
stm32f429_lcd2.elf:     file format elf32-littlearm

Sections:
Idx Name          Size      VMA       LMA       File off  Algn
  0 .isr_vector   000001ac  08000000  08000000  00008000  2**0
                  CONTENTS, ALLOC, LOAD, READONLY, DATA
  1 .text         00015728  080001b0  080001b0  000081b0  2**3
                  CONTENTS, ALLOC, LOAD, READONLY, CODE
  2 .rodata       0004a47c  080158d8  080158d8  0001d8d8  2**3
                  CONTENTS, ALLOC, LOAD, READONLY, DATA
  3 .ARM          00000008  0805fd54  0805fd54  00067d54  2**2
                  CONTENTS, ALLOC, LOAD, READONLY, DATA
  4 .data         000006a0  20000000  0805fd5c  00068000  2**2
                  CONTENTS, ALLOC, LOAD, DATA
  5 .bss          000224c8  200006a0  200006a0  000686a0  2**2
                  ALLOC
  6 ._user_heap_stack 00002a00  20022b68  20022b68  000686a0  2**0
                  ALLOC
  7 .ARM.attributes 00000037  00000000  00000000  000686a0  2**0
                  CONTENTS, READONLY
  8 .debug_line   00007e14  00000000  00000000  000686d7  2**0
                  CONTENTS, READONLY, DEBUGGING
  9 .debug_info   0000fd4f  00000000  00000000  000704eb  2**0
                  CONTENTS, READONLY, DEBUGGING
 10 .debug_abbrev 000026de  00000000  00000000  0008023a  2**0
                  CONTENTS, READONLY, DEBUGGING
 11 .debug_aranges 00000f08  00000000  00000000  00082918  2**3
                  CONTENTS, READONLY, DEBUGGING
 12 .debug_ranges 00000d68  00000000  00000000  00083820  2**3
                  CONTENTS, READONLY, DEBUGGING
 13 .debug_loc    00005555  00000000  00000000  00084588  2**0
                  CONTENTS, READONLY, DEBUGGING
 14 .debug_macro  00011ae2  00000000  00000000  00089add  2**0
                  CONTENTS, READONLY, DEBUGGING
 15 .debug_str    00067ba4  00000000  00000000  0009b5bf  2**0
                  CONTENTS, READONLY, DEBUGGING
 16 .comment      0002c91f  00000000  00000000  00103163  2**0
                  CONTENTS, READONLY
 17 .iar.rtmodel  00000b3d  00000000  00000000  0012fa82  2**0
                  CONTENTS, READONLY
 18 .iar_vfe_header 00000224  00000000  00000000  001305c0  2**2
                  CONTENTS, READONLY
 19 .iar.debug_frame 00000bc6  00000000  00000000  001307e4  2**0
                  CONTENTS, READONLY
 20 .debug_frame  0001a9ac  00000000  00000000  001313ac  2**2
                  CONTENTS, READONLY, DEBUGGING

Disassembly of section .text:

080001b0 <_GetMinIndex>:
 80001b0:	210f      	movs	r1, #15
 80001b2:	f8df 2718 	ldr.w	r2, [pc, #1816]	; 80008cc <.text_37>
 80001b6:	eb02 03c1 	add.w	r3, r2, r1, lsl #3
 80001ba:	6bdb      	ldr	r3, [r3, #60]	; 0x3c
 80001bc:	4298      	cmp	r0, r3
 80001be:	d201      	bcs.n	80001c4 <_GetMinIndex+0x14>
 80001c0:	1e49      	subs	r1, r1, #1
 80001c2:	d5f8      	bpl.n	80001b6 <_GetMinIndex+0x6>
 80001c4:	4608      	mov	r0, r1
 80001c6:	4770      	bx	lr

080001c8 <_WriteTagData>:
 80001c8:	6001      	str	r1, [r0, #0]
 80001ca:	6042      	str	r2, [r0, #4]
 80001cc:	6083      	str	r3, [r0, #8]
 80001ce:	6100      	str	r0, [r0, #16]
 80001d0:	1810      	adds	r0, r2, r0
 80001d2:	f840 2c04 	str.w	r2, [r0, #-4]
 80001d6:	4770      	bx	lr

080001d8 <_RemoveFreeBlock>:
 80001d8:	b510      	push	{r4, lr}
 80001da:	4604      	mov	r4, r0
 80001dc:	6860      	ldr	r0, [r4, #4]
 80001de:	f7ff ffe7 	bl	80001b0 <_GetMinIndex>
 80001e2:	f8df 16e8 	ldr.w	r1, [pc, #1768]	; 80008cc <.text_37>
 80001e6:	6863      	ldr	r3, [r4, #4]
 80001e8:	680a      	ldr	r2, [r1, #0]
 80001ea:	1ad2      	subs	r2, r2, r3
 80001ec:	600a      	str	r2, [r1, #0]
 80001ee:	eb01 00c0 	add.w	r0, r1, r0, lsl #3
 80001f2:	f104 0108 	add.w	r1, r4, #8
 80001f6:	3040      	adds	r0, #64	; 0x40
 80001f8:	680a      	ldr	r2, [r1, #0]
 80001fa:	6849      	ldr	r1, [r1, #4]
 80001fc:	b102      	cbz	r2, 8000200 <_RemoveFreeBlock+0x28>
 80001fe:	6051      	str	r1, [r2, #4]
 8000200:	b109      	cbz	r1, 8000206 <_RemoveFreeBlock+0x2e>
 8000202:	600a      	str	r2, [r1, #0]
 8000204:	bd10      	pop	{r4, pc}
 8000206:	6002      	str	r2, [r0, #0]
 8000208:	bd10      	pop	{r4, pc}

0800020a <_AddFreeMemory>:
 800020a:	b5f8      	push	{r3, r4, r5, r6, r7, lr}
 800020c:	f8df 46bc 	ldr.w	r4, [pc, #1724]	; 80008cc <.text_37>
 8000210:	4605      	mov	r5, r0
 8000212:	460e      	mov	r6, r1
 8000214:	6b60      	ldr	r0, [r4, #52]	; 0x34
 8000216:	68a1      	ldr	r1, [r4, #8]
 8000218:	1808      	adds	r0, r1, r0
 800021a:	19aa      	adds	r2, r5, r6
 800021c:	1e40      	subs	r0, r0, #1
 800021e:	4290      	cmp	r0, r2
 8000220:	d306      	bcc.n	8000230 <_AddFreeMemory+0x26>
 8000222:	6810      	ldr	r0, [r2, #0]
 8000224:	b920      	cbnz	r0, 8000230 <_AddFreeMemory+0x26>
 8000226:	6850      	ldr	r0, [r2, #4]
 8000228:	1945      	adds	r5, r0, r5
 800022a:	4610      	mov	r0, r2
 800022c:	f7ff ffd4 	bl	80001d8 <_RemoveFreeBlock>
 8000230:	6b60      	ldr	r0, [r4, #52]	; 0x34
 8000232:	42b0      	cmp	r0, r6
 8000234:	d20a      	bcs.n	800024c <_AddFreeMemory+0x42>
 8000236:	f856 0c04 	ldr.w	r0, [r6, #-4]
 800023a:	1a37      	subs	r7, r6, r0
 800023c:	6838      	ldr	r0, [r7, #0]
 800023e:	b928      	cbnz	r0, 800024c <_AddFreeMemory+0x42>
 8000240:	6878      	ldr	r0, [r7, #4]
 8000242:	1945      	adds	r5, r0, r5
 8000244:	4638      	mov	r0, r7
 8000246:	f7ff ffc7 	bl	80001d8 <_RemoveFreeBlock>
 800024a:	463e      	mov	r6, r7
 800024c:	4628      	mov	r0, r5
 800024e:	f7ff ffaf 	bl	80001b0 <_GetMinIndex>
 8000252:	eb04 07c0 	add.w	r7, r4, r0, lsl #3
 8000256:	462a      	mov	r2, r5
 8000258:	6c3b      	ldr	r3, [r7, #64]	; 0x40
 800025a:	2100      	movs	r1, #0
 800025c:	4630      	mov	r0, r6
 800025e:	f7ff ffb3 	bl	80001c8 <_WriteTagData>
 8000262:	f107 0040 	add.w	r0, r7, #64	; 0x40
 8000266:	f106 0108 	add.w	r1, r6, #8
 800026a:	6802      	ldr	r2, [r0, #0]
 800026c:	b102      	cbz	r2, 8000270 <_AddFreeMemory+0x66>
 800026e:	6051      	str	r1, [r2, #4]
 8000270:	600a      	str	r2, [r1, #0]
 8000272:	2200      	movs	r2, #0
 8000274:	604a      	str	r2, [r1, #4]
 8000276:	6001      	str	r1, [r0, #0]
 8000278:	6820      	ldr	r0, [r4, #0]
 800027a:	1828      	adds	r0, r5, r0
 800027c:	6020      	str	r0, [r4, #0]
 800027e:	4628      	mov	r0, r5
 8000280:	bdf2      	pop	{r1, r4, r5, r6, r7, pc}

08000282 <_RemoveHoles>:
 8000282:	e92d 49fd 	stmdb	sp!, {r0, r2, r3, r4, r5, r6, r7, r8, fp, lr}
 8000286:	f8df 4644 	ldr.w	r4, [pc, #1604]	; 80008cc <.text_37>
 800028a:	6b65      	ldr	r5, [r4, #52]	; 0x34
 800028c:	68a0      	ldr	r0, [r4, #8]
 800028e:	b082      	sub	sp, #8
 8000290:	1940      	adds	r0, r0, r5
 8000292:	1e40      	subs	r0, r0, #1
 8000294:	9001      	str	r0, [sp, #4]
 8000296:	4628      	mov	r0, r5
 8000298:	f8d0 b004 	ldr.w	fp, [r0, #4]
 800029c:	6801      	ldr	r1, [r0, #0]
 800029e:	bb91      	cbnz	r1, 8000306 <_RemoveHoles+0x84>
 80002a0:	9a01      	ldr	r2, [sp, #4]
 80002a2:	eb0b 0105 	add.w	r1, fp, r5
 80002a6:	4291      	cmp	r1, r2
 80002a8:	d22d      	bcs.n	8000306 <_RemoveHoles+0x84>
 80002aa:	9100      	str	r1, [sp, #0]
 80002ac:	460e      	mov	r6, r1
 80002ae:	f8d6 8004 	ldr.w	r8, [r6, #4]
 80002b2:	6831      	ldr	r1, [r6, #0]
 80002b4:	b339      	cbz	r1, 8000306 <_RemoveHoles+0x84>
 80002b6:	6b22      	ldr	r2, [r4, #48]	; 0x30
 80002b8:	f812 2031 	ldrb.w	r2, [r2, r1, lsl #3]
 80002bc:	2a01      	cmp	r2, #1
 80002be:	d122      	bne.n	8000306 <_RemoveHoles+0x84>
 80002c0:	6aa2      	ldr	r2, [r4, #40]	; 0x28
 80002c2:	4291      	cmp	r1, r2
 80002c4:	bf0c      	ite	eq
 80002c6:	2701      	moveq	r7, #1
 80002c8:	2700      	movne	r7, #0
 80002ca:	f7ff ff85 	bl	80001d8 <_RemoveFreeBlock>
 80002ce:	6830      	ldr	r0, [r6, #0]
 80002d0:	6b21      	ldr	r1, [r4, #48]	; 0x30
 80002d2:	eb01 00c0 	add.w	r0, r1, r0, lsl #3
 80002d6:	4642      	mov	r2, r8
 80002d8:	6045      	str	r5, [r0, #4]
 80002da:	4631      	mov	r1, r6
 80002dc:	4628      	mov	r0, r5
 80002de:	f00b f9d7 	bl	800b690 <__aeabi_memmove>
 80002e2:	b127      	cbz	r7, 80002ee <_RemoveHoles+0x6c>
 80002e4:	6b20      	ldr	r0, [r4, #48]	; 0x30
 80002e6:	9900      	ldr	r1, [sp, #0]
 80002e8:	1a40      	subs	r0, r0, r1
 80002ea:	1828      	adds	r0, r5, r0
 80002ec:	6320      	str	r0, [r4, #48]	; 0x30
 80002ee:	eb08 0105 	add.w	r1, r8, r5
 80002f2:	4658      	mov	r0, fp
 80002f4:	f7ff ff89 	bl	800020a <_AddFreeMemory>
 80002f8:	9902      	ldr	r1, [sp, #8]
 80002fa:	b119      	cbz	r1, 8000304 <_RemoveHoles+0x82>
 80002fc:	4288      	cmp	r0, r1
 80002fe:	d301      	bcc.n	8000304 <_RemoveHoles+0x82>
 8000300:	2000      	movs	r0, #0
 8000302:	e005      	b.n	8000310 <_RemoveHoles+0x8e>
 8000304:	46c3      	mov	fp, r8
 8000306:	9801      	ldr	r0, [sp, #4]
 8000308:	445d      	add	r5, fp
 800030a:	4285      	cmp	r5, r0
 800030c:	d3c3      	bcc.n	8000296 <_RemoveHoles+0x14>
 800030e:	2001      	movs	r0, #1
 8000310:	b005      	add	sp, #20
 8000312:	e8bd 89f0 	ldmia.w	sp!, {r4, r5, r6, r7, r8, fp, pc}

08000316 <_TestRAM>:
 8000316:	b5f8      	push	{r3, r4, r5, r6, r7, lr}
 8000318:	2300      	movs	r3, #0
 800031a:	4604      	mov	r4, r0
 800031c:	2500      	movs	r5, #0
 800031e:	e009      	b.n	8000334 <_TestRAM+0x1e>
 8000320:	195e      	adds	r6, r3, r5
 8000322:	27ff      	movs	r7, #255	; 0xff
 8000324:	fbb6 f7f7 	udiv	r7, r6, r7
 8000328:	ebc7 2707 	rsb	r7, r7, r7, lsl #8
 800032c:	1bf6      	subs	r6, r6, r7
 800032e:	f844 6b04 	str.w	r6, [r4], #4
 8000332:	1c6d      	adds	r5, r5, #1
 8000334:	ebb5 0f91 	cmp.w	r5, r1, lsr #2
 8000338:	d3f2      	bcc.n	8000320 <_TestRAM+0xa>
 800033a:	4605      	mov	r5, r0
 800033c:	2400      	movs	r4, #0
 800033e:	e000      	b.n	8000342 <_TestRAM+0x2c>
 8000340:	1c64      	adds	r4, r4, #1
 8000342:	ebb4 0f91 	cmp.w	r4, r1, lsr #2
 8000346:	d20e      	bcs.n	8000366 <_TestRAM+0x50>
 8000348:	191f      	adds	r7, r3, r4
 800034a:	f04f 0cff 	mov.w	ip, #255	; 0xff
 800034e:	fbb7 fcfc 	udiv	ip, r7, ip
 8000352:	f855 6b04 	ldr.w	r6, [r5], #4
 8000356:	ebcc 2c0c 	rsb	ip, ip, ip, lsl #8
 800035a:	eba7 070c 	sub.w	r7, r7, ip
 800035e:	42be      	cmp	r6, r7
 8000360:	d0ee      	beq.n	8000340 <_TestRAM+0x2a>
 8000362:	2003      	movs	r0, #3
 8000364:	bdf2      	pop	{r1, r4, r5, r6, r7, pc}
 8000366:	1c5b      	adds	r3, r3, #1
 8000368:	2b02      	cmp	r3, #2
 800036a:	d3d6      	bcc.n	800031a <_TestRAM+0x4>
 800036c:	2300      	movs	r3, #0
 800036e:	4604      	mov	r4, r0
 8000370:	2500      	movs	r5, #0
 8000372:	e009      	b.n	8000388 <_TestRAM+0x72>
 8000374:	195e      	adds	r6, r3, r5
 8000376:	27ff      	movs	r7, #255	; 0xff
 8000378:	fbb6 f7f7 	udiv	r7, r6, r7
 800037c:	ebc7 2707 	rsb	r7, r7, r7, lsl #8
 8000380:	1bf6      	subs	r6, r6, r7
 8000382:	f824 6b02 	strh.w	r6, [r4], #2
 8000386:	1c6d      	adds	r5, r5, #1
 8000388:	ebb5 0f51 	cmp.w	r5, r1, lsr #1
 800038c:	d3f2      	bcc.n	8000374 <_TestRAM+0x5e>
 800038e:	4605      	mov	r5, r0
 8000390:	2400      	movs	r4, #0
 8000392:	e000      	b.n	8000396 <_TestRAM+0x80>
 8000394:	1c64      	adds	r4, r4, #1
 8000396:	ebb4 0f51 	cmp.w	r4, r1, lsr #1
 800039a:	d20f      	bcs.n	80003bc <_TestRAM+0xa6>
 800039c:	191f      	adds	r7, r3, r4
 800039e:	f04f 0cff 	mov.w	ip, #255	; 0xff
 80003a2:	fbb7 fcfc 	udiv	ip, r7, ip
 80003a6:	ebcc 2c0c 	rsb	ip, ip, ip, lsl #8
 80003aa:	f835 6b02 	ldrh.w	r6, [r5], #2
 80003ae:	eba7 070c 	sub.w	r7, r7, ip
 80003b2:	b2bf      	uxth	r7, r7
 80003b4:	42be      	cmp	r6, r7
 80003b6:	d0ed      	beq.n	8000394 <_TestRAM+0x7e>
 80003b8:	2002      	movs	r0, #2
 80003ba:	bdf2      	pop	{r1, r4, r5, r6, r7, pc}
 80003bc:	1c5b      	adds	r3, r3, #1
 80003be:	2b02      	cmp	r3, #2
 80003c0:	d3d5      	bcc.n	800036e <_TestRAM+0x58>
 80003c2:	2300      	movs	r3, #0
 80003c4:	4602      	mov	r2, r0
 80003c6:	2400      	movs	r4, #0
 80003c8:	e009      	b.n	80003de <_TestRAM+0xc8>
 80003ca:	191d      	adds	r5, r3, r4
 80003cc:	26ff      	movs	r6, #255	; 0xff
 80003ce:	fbb5 f6f6 	udiv	r6, r5, r6
 80003d2:	ebc6 2606 	rsb	r6, r6, r6, lsl #8
 80003d6:	1bad      	subs	r5, r5, r6
 80003d8:	f802 5b01 	strb.w	r5, [r2], #1
 80003dc:	1c64      	adds	r4, r4, #1
 80003de:	428c      	cmp	r4, r1
 80003e0:	d3f3      	bcc.n	80003ca <_TestRAM+0xb4>
 80003e2:	4602      	mov	r2, r0
 80003e4:	2400      	movs	r4, #0
 80003e6:	e000      	b.n	80003ea <_TestRAM+0xd4>
 80003e8:	1c64      	adds	r4, r4, #1
 80003ea:	428c      	cmp	r4, r1
 80003ec:	d20b      	bcs.n	8000406 <_TestRAM+0xf0>
 80003ee:	191e      	adds	r6, r3, r4
 80003f0:	27ff      	movs	r7, #255	; 0xff
 80003f2:	fbb6 f7f7 	udiv	r7, r6, r7
 80003f6:	f812 5b01 	ldrb.w	r5, [r2], #1
 80003fa:	19be      	adds	r6, r7, r6
 80003fc:	b2f6      	uxtb	r6, r6
 80003fe:	42b5      	cmp	r5, r6
 8000400:	d0f2      	beq.n	80003e8 <_TestRAM+0xd2>
 8000402:	2001      	movs	r0, #1
 8000404:	bdf2      	pop	{r1, r4, r5, r6, r7, pc}
 8000406:	1c5b      	adds	r3, r3, #1
 8000408:	2b02      	cmp	r3, #2
 800040a:	d3db      	bcc.n	80003c4 <_TestRAM+0xae>
 800040c:	b109      	cbz	r1, 8000412 <_TestRAM+0xfc>
 800040e:	f00b f939 	bl	800b684 <__aeabi_memclr>
 8000412:	2000      	movs	r0, #0
 8000414:	bdf2      	pop	{r1, r4, r5, r6, r7, pc}

08000416 <_OnExit>:
 8000416:	b510      	push	{r4, lr}
 8000418:	f8df 44b0 	ldr.w	r4, [pc, #1200]	; 80008cc <.text_37>
 800041c:	2000      	movs	r0, #0
 800041e:	f884 0024 	strb.w	r0, [r4, #36]	; 0x24
 8000422:	2280      	movs	r2, #128	; 0x80
 8000424:	2100      	movs	r1, #0
 8000426:	f104 003c 	add.w	r0, r4, #60	; 0x3c
 800042a:	f006 ff07 	bl	800723c <GUI__memset>
 800042e:	22bc      	movs	r2, #188	; 0xbc
 8000430:	2100      	movs	r1, #0
 8000432:	4620      	mov	r0, r4
 8000434:	f006 ff02 	bl	800723c <GUI__memset>
 8000438:	e8bd 4010 	ldmia.w	sp!, {r4, lr}
 800043c:	220c      	movs	r2, #12
 800043e:	2100      	movs	r1, #0
 8000440:	f8df 048c 	ldr.w	r0, [pc, #1164]	; 80008d0 <.text_38>
 8000444:	f006 befa 	b.w	800723c <GUI__memset>

08000448 <_EnlargeBlocks>:
 8000448:	e92d 41f0 	stmdb	sp!, {r4, r5, r6, r7, r8, lr}
 800044c:	f8df 447c 	ldr.w	r4, [pc, #1148]	; 80008cc <.text_37>
 8000450:	6aa0      	ldr	r0, [r4, #40]	; 0x28
 8000452:	b940      	cbnz	r0, 8000466 <_EnlargeBlocks+0x1e>
 8000454:	f8df 0478 	ldr.w	r0, [pc, #1144]	; 80008d0 <.text_38>
 8000458:	6841      	ldr	r1, [r0, #4]
 800045a:	6880      	ldr	r0, [r0, #8]
 800045c:	3008      	adds	r0, #8
 800045e:	fbb1 f0f0 	udiv	r0, r1, r0
 8000462:	1c85      	adds	r5, r0, #2
 8000464:	e003      	b.n	800046e <_EnlargeBlocks+0x26>
 8000466:	68e0      	ldr	r0, [r4, #12]
 8000468:	eb00 00d0 	add.w	r0, r0, r0, lsr #3
 800046c:	1d05      	adds	r5, r0, #4
 800046e:	00e8      	lsls	r0, r5, #3
 8000470:	f000 f88f 	bl	8000592 <_Alloc>
 8000474:	ea5f 0800 	movs.w	r8, r0
 8000478:	d027      	beq.n	80004ca <_EnlargeBlocks+0x82>
 800047a:	6b21      	ldr	r1, [r4, #48]	; 0x30
 800047c:	6aa7      	ldr	r7, [r4, #40]	; 0x28
 800047e:	eb01 00c8 	add.w	r0, r1, r8, lsl #3
 8000482:	6840      	ldr	r0, [r0, #4]
 8000484:	f100 0608 	add.w	r6, r0, #8
 8000488:	68e0      	ldr	r0, [r4, #12]
 800048a:	00c2      	lsls	r2, r0, #3
 800048c:	4630      	mov	r0, r6
 800048e:	f00b f8fd 	bl	800b68c <__aeabi_memcpy>
 8000492:	68e0      	ldr	r0, [r4, #12]
 8000494:	6326      	str	r6, [r4, #48]	; 0x30
 8000496:	f8c4 8028 	str.w	r8, [r4, #40]	; 0x28
 800049a:	1e6a      	subs	r2, r5, #1
 800049c:	e001      	b.n	80004a2 <_EnlargeBlocks+0x5a>
 800049e:	1c40      	adds	r0, r0, #1
 80004a0:	6048      	str	r0, [r1, #4]
 80004a2:	eb06 01c0 	add.w	r1, r6, r0, lsl #3
 80004a6:	4290      	cmp	r0, r2
 80004a8:	d3f9      	bcc.n	800049e <_EnlargeBlocks+0x56>
 80004aa:	2000      	movs	r0, #0
 80004ac:	6048      	str	r0, [r1, #4]
 80004ae:	68e0      	ldr	r0, [r4, #12]
 80004b0:	68e1      	ldr	r1, [r4, #12]
 80004b2:	6220      	str	r0, [r4, #32]
 80004b4:	60e5      	str	r5, [r4, #12]
 80004b6:	6860      	ldr	r0, [r4, #4]
 80004b8:	1828      	adds	r0, r5, r0
 80004ba:	1a40      	subs	r0, r0, r1
 80004bc:	6060      	str	r0, [r4, #4]
 80004be:	b117      	cbz	r7, 80004c6 <_EnlargeBlocks+0x7e>
 80004c0:	4638      	mov	r0, r7
 80004c2:	f000 f9cb 	bl	800085c <GUI_ALLOC_Free>
 80004c6:	2000      	movs	r0, #0
 80004c8:	e000      	b.n	80004cc <_EnlargeBlocks+0x84>
 80004ca:	2001      	movs	r0, #1
 80004cc:	e8bd 81f0 	ldmia.w	sp!, {r4, r5, r6, r7, r8, pc}

080004d0 <_InitOnce>:
 80004d0:	b570      	push	{r4, r5, r6, lr}
 80004d2:	f8df 43f8 	ldr.w	r4, [pc, #1016]	; 80008cc <.text_37>
 80004d6:	f894 0024 	ldrb.w	r0, [r4, #36]	; 0x24
 80004da:	2800      	cmp	r0, #0
 80004dc:	d148      	bne.n	8000570 <_InitOnce+0xa0>
 80004de:	f8df 63f0 	ldr.w	r6, [pc, #1008]	; 80008d0 <.text_38>
 80004e2:	6871      	ldr	r1, [r6, #4]
 80004e4:	2001      	movs	r0, #1
 80004e6:	f884 0024 	strb.w	r0, [r4, #36]	; 0x24
 80004ea:	f5b1 5f20 	cmp.w	r1, #10240	; 0x2800
 80004ee:	bf88      	it	hi
 80004f0:	f44f 5120 	movhi.w	r1, #10240	; 0x2800
 80004f4:	6830      	ldr	r0, [r6, #0]
 80004f6:	f7ff ff0e 	bl	8000316 <_TestRAM>
 80004fa:	68b0      	ldr	r0, [r6, #8]
 80004fc:	b910      	cbnz	r0, 8000504 <_InitOnce+0x34>
 80004fe:	6870      	ldr	r0, [r6, #4]
 8000500:	0880      	lsrs	r0, r0, #2
 8000502:	60b0      	str	r0, [r6, #8]
 8000504:	f8df 03cc 	ldr.w	r0, [pc, #972]	; 80008d4 <.text_39>
 8000508:	60f0      	str	r0, [r6, #12]
 800050a:	f106 000c 	add.w	r0, r6, #12
 800050e:	f000 fc1e 	bl	8000d4e <GUI__RegisterExit>
 8000512:	1d20      	adds	r0, r4, #4
 8000514:	215a      	movs	r1, #90	; 0x5a
 8000516:	6181      	str	r1, [r0, #24]
 8000518:	2100      	movs	r1, #0
 800051a:	2310      	movs	r3, #16
 800051c:	eb04 02c1 	add.w	r2, r4, r1, lsl #3
 8000520:	408b      	lsls	r3, r1
 8000522:	1c49      	adds	r1, r1, #1
 8000524:	63d3      	str	r3, [r2, #60]	; 0x3c
 8000526:	2910      	cmp	r1, #16
 8000528:	d3f7      	bcc.n	800051a <_InitOnce+0x4a>
 800052a:	6831      	ldr	r1, [r6, #0]
 800052c:	6872      	ldr	r2, [r6, #4]
 800052e:	1852      	adds	r2, r2, r1
 8000530:	f104 0524 	add.w	r5, r4, #36	; 0x24
 8000534:	3a14      	subs	r2, #20
 8000536:	60ea      	str	r2, [r5, #12]
 8000538:	6129      	str	r1, [r5, #16]
 800053a:	2302      	movs	r3, #2
 800053c:	6872      	ldr	r2, [r6, #4]
 800053e:	6083      	str	r3, [r0, #8]
 8000540:	6042      	str	r2, [r0, #4]
 8000542:	2100      	movs	r1, #0
 8000544:	e005      	b.n	8000552 <_InitOnce+0x82>
 8000546:	68eb      	ldr	r3, [r5, #12]
 8000548:	1c4a      	adds	r2, r1, #1
 800054a:	eb03 01c1 	add.w	r1, r3, r1, lsl #3
 800054e:	604a      	str	r2, [r1, #4]
 8000550:	4611      	mov	r1, r2
 8000552:	6882      	ldr	r2, [r0, #8]
 8000554:	1e52      	subs	r2, r2, #1
 8000556:	4291      	cmp	r1, r2
 8000558:	d3f5      	bcc.n	8000546 <_InitOnce+0x76>
 800055a:	2101      	movs	r1, #1
 800055c:	61c1      	str	r1, [r0, #28]
 800055e:	6062      	str	r2, [r4, #4]
 8000560:	6929      	ldr	r1, [r5, #16]
 8000562:	6840      	ldr	r0, [r0, #4]
 8000564:	f7ff fe51 	bl	800020a <_AddFreeMemory>
 8000568:	f7ff ff6e 	bl	8000448 <_EnlargeBlocks>
 800056c:	2001      	movs	r0, #1
 800056e:	60a8      	str	r0, [r5, #8]
 8000570:	bd70      	pop	{r4, r5, r6, pc}

08000572 <_PushFreeBlock>:
 8000572:	b510      	push	{r4, lr}
 8000574:	f8df 1354 	ldr.w	r1, [pc, #852]	; 80008cc <.text_37>
 8000578:	684a      	ldr	r2, [r1, #4]
 800057a:	6a0c      	ldr	r4, [r1, #32]
 800057c:	1c52      	adds	r2, r2, #1
 800057e:	604a      	str	r2, [r1, #4]
 8000580:	6b0a      	ldr	r2, [r1, #48]	; 0x30
 8000582:	eb02 03c0 	add.w	r3, r2, r0, lsl #3
 8000586:	605c      	str	r4, [r3, #4]
 8000588:	2300      	movs	r3, #0
 800058a:	f802 3030 	strb.w	r3, [r2, r0, lsl #3]
 800058e:	6208      	str	r0, [r1, #32]
 8000590:	bd10      	pop	{r4, pc}

08000592 <_Alloc>:
 8000592:	e92d 41f0 	stmdb	sp!, {r4, r5, r6, r7, r8, lr}
 8000596:	4605      	mov	r5, r0
 8000598:	f7ff ff9a 	bl	80004d0 <_InitOnce>
 800059c:	f8df 432c 	ldr.w	r4, [pc, #812]	; 80008cc <.text_37>
 80005a0:	6be0      	ldr	r0, [r4, #60]	; 0x3c
 80005a2:	4285      	cmp	r5, r0
 80005a4:	d302      	bcc.n	80005ac <_Alloc+0x1a>
 80005a6:	1ce8      	adds	r0, r5, #3
 80005a8:	0880      	lsrs	r0, r0, #2
 80005aa:	0080      	lsls	r0, r0, #2
 80005ac:	f100 050c 	add.w	r5, r0, #12
 80005b0:	6820      	ldr	r0, [r4, #0]
 80005b2:	42a8      	cmp	r0, r5
 80005b4:	d31b      	bcc.n	80005ee <_Alloc+0x5c>
 80005b6:	6ae0      	ldr	r0, [r4, #44]	; 0x2c
 80005b8:	6861      	ldr	r1, [r4, #4]
 80005ba:	4288      	cmp	r0, r1
 80005bc:	d307      	bcc.n	80005ce <_Alloc+0x3c>
 80005be:	1e40      	subs	r0, r0, #1
 80005c0:	62e0      	str	r0, [r4, #44]	; 0x2c
 80005c2:	f7ff ff41 	bl	8000448 <_EnlargeBlocks>
 80005c6:	6ae1      	ldr	r1, [r4, #44]	; 0x2c
 80005c8:	1c49      	adds	r1, r1, #1
 80005ca:	62e1      	str	r1, [r4, #44]	; 0x2c
 80005cc:	b978      	cbnz	r0, 80005ee <_Alloc+0x5c>
 80005ce:	6860      	ldr	r0, [r4, #4]
 80005d0:	f8d4 8020 	ldr.w	r8, [r4, #32]
 80005d4:	1e40      	subs	r0, r0, #1
 80005d6:	6060      	str	r0, [r4, #4]
 80005d8:	6b20      	ldr	r0, [r4, #48]	; 0x30
 80005da:	eb00 01c8 	add.w	r1, r0, r8, lsl #3
 80005de:	6849      	ldr	r1, [r1, #4]
 80005e0:	6221      	str	r1, [r4, #32]
 80005e2:	2101      	movs	r1, #1
 80005e4:	f800 1038 	strb.w	r1, [r0, r8, lsl #3]
 80005e8:	f1b8 0f00 	cmp.w	r8, #0
 80005ec:	d101      	bne.n	80005f2 <_Alloc+0x60>
 80005ee:	2000      	movs	r0, #0
 80005f0:	e03d      	b.n	800066e <_Alloc+0xdc>
 80005f2:	2600      	movs	r6, #0
 80005f4:	4628      	mov	r0, r5
 80005f6:	f7ff fddb 	bl	80001b0 <_GetMinIndex>
 80005fa:	e001      	b.n	8000600 <_Alloc+0x6e>
 80005fc:	b956      	cbnz	r6, 8000614 <_Alloc+0x82>
 80005fe:	1c40      	adds	r0, r0, #1
 8000600:	2810      	cmp	r0, #16
 8000602:	d20f      	bcs.n	8000624 <_Alloc+0x92>
 8000604:	eb04 01c0 	add.w	r1, r4, r0, lsl #3
 8000608:	6c09      	ldr	r1, [r1, #64]	; 0x40
 800060a:	b129      	cbz	r1, 8000618 <_Alloc+0x86>
 800060c:	688e      	ldr	r6, [r1, #8]
 800060e:	6871      	ldr	r1, [r6, #4]
 8000610:	42a9      	cmp	r1, r5
 8000612:	d207      	bcs.n	8000624 <_Alloc+0x92>
 8000614:	68b1      	ldr	r1, [r6, #8]
 8000616:	b909      	cbnz	r1, 800061c <_Alloc+0x8a>
 8000618:	2600      	movs	r6, #0
 800061a:	e7f0      	b.n	80005fe <_Alloc+0x6c>
 800061c:	688e      	ldr	r6, [r1, #8]
 800061e:	6871      	ldr	r1, [r6, #4]
 8000620:	42a9      	cmp	r1, r5
 8000622:	d3eb      	bcc.n	80005fc <_Alloc+0x6a>
 8000624:	b946      	cbnz	r6, 8000638 <_Alloc+0xa6>
 8000626:	4628      	mov	r0, r5
 8000628:	f7ff fe2b 	bl	8000282 <_RemoveHoles>
 800062c:	2800      	cmp	r0, #0
 800062e:	d0e0      	beq.n	80005f2 <_Alloc+0x60>
 8000630:	4640      	mov	r0, r8
 8000632:	f7ff ff9e 	bl	8000572 <_PushFreeBlock>
 8000636:	e7da      	b.n	80005ee <_Alloc+0x5c>
 8000638:	6877      	ldr	r7, [r6, #4]
 800063a:	6be1      	ldr	r1, [r4, #60]	; 0x3c
 800063c:	1b78      	subs	r0, r7, r5
 800063e:	310c      	adds	r1, #12
 8000640:	4288      	cmp	r0, r1
 8000642:	bf38      	it	cc
 8000644:	463d      	movcc	r5, r7
 8000646:	4630      	mov	r0, r6
 8000648:	f7ff fdc6 	bl	80001d8 <_RemoveFreeBlock>
 800064c:	6b20      	ldr	r0, [r4, #48]	; 0x30
 800064e:	eb00 00c8 	add.w	r0, r0, r8, lsl #3
 8000652:	2300      	movs	r3, #0
 8000654:	6046      	str	r6, [r0, #4]
 8000656:	462a      	mov	r2, r5
 8000658:	4641      	mov	r1, r8
 800065a:	4630      	mov	r0, r6
 800065c:	f7ff fdb4 	bl	80001c8 <_WriteTagData>
 8000660:	42bd      	cmp	r5, r7
 8000662:	da03      	bge.n	800066c <_Alloc+0xda>
 8000664:	19a9      	adds	r1, r5, r6
 8000666:	1b78      	subs	r0, r7, r5
 8000668:	f7ff fdcf 	bl	800020a <_AddFreeMemory>
 800066c:	4640      	mov	r0, r8
 800066e:	e8bd 81f0 	ldmia.w	sp!, {r4, r5, r6, r7, r8, pc}

08000672 <GUI_ALLOC_p2h>:
 8000672:	f850 0c08 	ldr.w	r0, [r0, #-8]
 8000676:	4770      	bx	lr

08000678 <GUI_ALLOC_FreeFixedBlock>:
 8000678:	b128      	cbz	r0, 8000686 <GUI_ALLOC_FreeFixedBlock+0xe>
 800067a:	4994      	ldr	r1, [pc, #592]	; (80008cc <.text_37>)
 800067c:	6b8a      	ldr	r2, [r1, #56]	; 0x38
 800067e:	6002      	str	r2, [r0, #0]
 8000680:	b102      	cbz	r2, 8000684 <GUI_ALLOC_FreeFixedBlock+0xc>
 8000682:	6050      	str	r0, [r2, #4]
 8000684:	6388      	str	r0, [r1, #56]	; 0x38
 8000686:	4770      	bx	lr

08000688 <GUI_ALLOC_GetFixedBlock>:
 8000688:	e92d 43f8 	stmdb	sp!, {r3, r4, r5, r6, r7, r8, r9, lr}
 800068c:	4604      	mov	r4, r0
 800068e:	f7ff ff1f 	bl	80004d0 <_InitOnce>
 8000692:	1ce0      	adds	r0, r4, #3
 8000694:	0880      	lsrs	r0, r0, #2
 8000696:	0080      	lsls	r0, r0, #2
 8000698:	4c8c      	ldr	r4, [pc, #560]	; (80008cc <.text_37>)
 800069a:	1d06      	adds	r6, r0, #4
 800069c:	6be0      	ldr	r0, [r4, #60]	; 0x3c
 800069e:	4286      	cmp	r6, r0
 80006a0:	bf38      	it	cc
 80006a2:	4606      	movcc	r6, r0
 80006a4:	6ba5      	ldr	r5, [r4, #56]	; 0x38
 80006a6:	e000      	b.n	80006aa <GUI_ALLOC_GetFixedBlock+0x22>
 80006a8:	682d      	ldr	r5, [r5, #0]
 80006aa:	b195      	cbz	r5, 80006d2 <GUI_ALLOC_GetFixedBlock+0x4a>
 80006ac:	f855 0c04 	ldr.w	r0, [r5, #-4]
 80006b0:	42b0      	cmp	r0, r6
 80006b2:	d1f9      	bne.n	80006a8 <GUI_ALLOC_GetFixedBlock+0x20>
 80006b4:	b16d      	cbz	r5, 80006d2 <GUI_ALLOC_GetFixedBlock+0x4a>
 80006b6:	6828      	ldr	r0, [r5, #0]
 80006b8:	b108      	cbz	r0, 80006be <GUI_ALLOC_GetFixedBlock+0x36>
 80006ba:	6869      	ldr	r1, [r5, #4]
 80006bc:	6041      	str	r1, [r0, #4]
 80006be:	6868      	ldr	r0, [r5, #4]
 80006c0:	b108      	cbz	r0, 80006c6 <GUI_ALLOC_GetFixedBlock+0x3e>
 80006c2:	6829      	ldr	r1, [r5, #0]
 80006c4:	6001      	str	r1, [r0, #0]
 80006c6:	6ba0      	ldr	r0, [r4, #56]	; 0x38
 80006c8:	42a8      	cmp	r0, r5
 80006ca:	d12e      	bne.n	800072a <GUI_ALLOC_GetFixedBlock+0xa2>
 80006cc:	6828      	ldr	r0, [r5, #0]
 80006ce:	63a0      	str	r0, [r4, #56]	; 0x38
 80006d0:	e02b      	b.n	800072a <GUI_ALLOC_GetFixedBlock+0xa2>
 80006d2:	6b60      	ldr	r0, [r4, #52]	; 0x34
 80006d4:	68a1      	ldr	r1, [r4, #8]
 80006d6:	eb01 0800 	add.w	r8, r1, r0
 80006da:	f1a8 0904 	sub.w	r9, r8, #4
 80006de:	f8d9 0000 	ldr.w	r0, [r9]
 80006e2:	eba8 0700 	sub.w	r7, r8, r0
 80006e6:	6838      	ldr	r0, [r7, #0]
 80006e8:	b130      	cbz	r0, 80006f8 <GUI_ALLOC_GetFixedBlock+0x70>
 80006ea:	2000      	movs	r0, #0
 80006ec:	f7ff fdc9 	bl	8000282 <_RemoveHoles>
 80006f0:	f8d9 0000 	ldr.w	r0, [r9]
 80006f4:	eba8 0700 	sub.w	r7, r8, r0
 80006f8:	6838      	ldr	r0, [r7, #0]
 80006fa:	b9b0      	cbnz	r0, 800072a <GUI_ALLOC_GetFixedBlock+0xa2>
 80006fc:	6878      	ldr	r0, [r7, #4]
 80006fe:	42b0      	cmp	r0, r6
 8000700:	db13      	blt.n	800072a <GUI_ALLOC_GetFixedBlock+0xa2>
 8000702:	4271      	negs	r1, r6
 8000704:	19c0      	adds	r0, r0, r7
 8000706:	1808      	adds	r0, r1, r0
 8000708:	1d05      	adds	r5, r0, #4
 800070a:	4638      	mov	r0, r7
 800070c:	f7ff fd64 	bl	80001d8 <_RemoveFreeBlock>
 8000710:	68a0      	ldr	r0, [r4, #8]
 8000712:	1b80      	subs	r0, r0, r6
 8000714:	60a0      	str	r0, [r4, #8]
 8000716:	4639      	mov	r1, r7
 8000718:	6920      	ldr	r0, [r4, #16]
 800071a:	1830      	adds	r0, r6, r0
 800071c:	6120      	str	r0, [r4, #16]
 800071e:	6878      	ldr	r0, [r7, #4]
 8000720:	1b80      	subs	r0, r0, r6
 8000722:	f7ff fd72 	bl	800020a <_AddFreeMemory>
 8000726:	f845 6c04 	str.w	r6, [r5, #-4]
 800072a:	4628      	mov	r0, r5
 800072c:	e8bd 83f2 	ldmia.w	sp!, {r1, r4, r5, r6, r7, r8, r9, pc}

08000730 <GUI_ALLOC_AllocNoInit>:
 8000730:	2800      	cmp	r0, #0
 8000732:	bf18      	it	ne
 8000734:	f7ff bf2d 	bne.w	8000592 <_Alloc>
 8000738:	4770      	bx	lr

0800073a <GUI_ALLOC_h2p>:
 800073a:	b128      	cbz	r0, 8000748 <GUI_ALLOC_h2p+0xe>
 800073c:	4963      	ldr	r1, [pc, #396]	; (80008cc <.text_37>)
 800073e:	6b09      	ldr	r1, [r1, #48]	; 0x30
 8000740:	eb01 00c0 	add.w	r0, r1, r0, lsl #3
 8000744:	6840      	ldr	r0, [r0, #4]
 8000746:	3008      	adds	r0, #8
 8000748:	4770      	bx	lr

0800074a <GUI_ALLOC_LockH>:
 800074a:	4960      	ldr	r1, [pc, #384]	; (80008cc <.text_37>)
 800074c:	698a      	ldr	r2, [r1, #24]
 800074e:	1c52      	adds	r2, r2, #1
 8000750:	618a      	str	r2, [r1, #24]
 8000752:	6b09      	ldr	r1, [r1, #48]	; 0x30
 8000754:	eb01 01c0 	add.w	r1, r1, r0, lsl #3
 8000758:	780a      	ldrb	r2, [r1, #0]
 800075a:	1c52      	adds	r2, r2, #1
 800075c:	700a      	strb	r2, [r1, #0]
 800075e:	e7ec      	b.n	800073a <GUI_ALLOC_h2p>

08000760 <GUI_ALLOC_UnlockH>:
 8000760:	6802      	ldr	r2, [r0, #0]
 8000762:	495a      	ldr	r1, [pc, #360]	; (80008cc <.text_37>)
 8000764:	f852 2c08 	ldr.w	r2, [r2, #-8]
 8000768:	6b0b      	ldr	r3, [r1, #48]	; 0x30
 800076a:	eb03 02c2 	add.w	r2, r3, r2, lsl #3
 800076e:	7813      	ldrb	r3, [r2, #0]
 8000770:	2b02      	cmp	r3, #2
 8000772:	db03      	blt.n	800077c <GUI_ALLOC_UnlockH+0x1c>
 8000774:	698b      	ldr	r3, [r1, #24]
 8000776:	b10b      	cbz	r3, 800077c <GUI_ALLOC_UnlockH+0x1c>
 8000778:	1e5b      	subs	r3, r3, #1
 800077a:	618b      	str	r3, [r1, #24]
 800077c:	7811      	ldrb	r1, [r2, #0]
 800077e:	1e49      	subs	r1, r1, #1
 8000780:	7011      	strb	r1, [r2, #0]
 8000782:	2100      	movs	r1, #0
 8000784:	6001      	str	r1, [r0, #0]
 8000786:	2000      	movs	r0, #0
 8000788:	4770      	bx	lr

0800078a <GUI_ALLOC_GetNumFreeBytes>:
 800078a:	4850      	ldr	r0, [pc, #320]	; (80008cc <.text_37>)
 800078c:	6800      	ldr	r0, [r0, #0]
 800078e:	380c      	subs	r0, #12
 8000790:	2801      	cmp	r0, #1
 8000792:	bfb8      	it	lt
 8000794:	2000      	movlt	r0, #0
 8000796:	4770      	bx	lr

08000798 <GUI_ALLOC_GetNumFreeBlocks>:
 8000798:	484c      	ldr	r0, [pc, #304]	; (80008cc <.text_37>)
 800079a:	6840      	ldr	r0, [r0, #4]
 800079c:	4770      	bx	lr

0800079e <GUI_ALLOC_GetNumUsedBytes>:
 800079e:	484b      	ldr	r0, [pc, #300]	; (80008cc <.text_37>)
 80007a0:	6881      	ldr	r1, [r0, #8]
 80007a2:	6800      	ldr	r0, [r0, #0]
 80007a4:	1a08      	subs	r0, r1, r0
 80007a6:	4770      	bx	lr

080007a8 <GUI_ALLOC_GetNumUsedBlocks>:
 80007a8:	4848      	ldr	r0, [pc, #288]	; (80008cc <.text_37>)
 80007aa:	68c1      	ldr	r1, [r0, #12]
 80007ac:	6840      	ldr	r0, [r0, #4]
 80007ae:	1a08      	subs	r0, r1, r0
 80007b0:	4770      	bx	lr

080007b2 <GUI_ALLOC_GetMaxSize>:
 80007b2:	b510      	push	{r4, lr}
 80007b4:	2400      	movs	r4, #0
 80007b6:	f7ff fe8b 	bl	80004d0 <_InitOnce>
 80007ba:	200f      	movs	r0, #15
 80007bc:	4943      	ldr	r1, [pc, #268]	; (80008cc <.text_37>)
 80007be:	eb01 01c0 	add.w	r1, r1, r0, lsl #3
 80007c2:	6c09      	ldr	r1, [r1, #64]	; 0x40
 80007c4:	b109      	cbz	r1, 80007ca <GUI_ALLOC_GetMaxSize+0x18>
 80007c6:	6889      	ldr	r1, [r1, #8]
 80007c8:	e003      	b.n	80007d2 <GUI_ALLOC_GetMaxSize+0x20>
 80007ca:	1e40      	subs	r0, r0, #1
 80007cc:	d5f6      	bpl.n	80007bc <GUI_ALLOC_GetMaxSize+0xa>
 80007ce:	e008      	b.n	80007e2 <GUI_ALLOC_GetMaxSize+0x30>
 80007d0:	6881      	ldr	r1, [r0, #8]
 80007d2:	b131      	cbz	r1, 80007e2 <GUI_ALLOC_GetMaxSize+0x30>
 80007d4:	6848      	ldr	r0, [r1, #4]
 80007d6:	4284      	cmp	r4, r0
 80007d8:	bf38      	it	cc
 80007da:	4604      	movcc	r4, r0
 80007dc:	6888      	ldr	r0, [r1, #8]
 80007de:	2800      	cmp	r0, #0
 80007e0:	d1f6      	bne.n	80007d0 <GUI_ALLOC_GetMaxSize+0x1e>
 80007e2:	f1a4 000c 	sub.w	r0, r4, #12
 80007e6:	bd10      	pop	{r4, pc}

080007e8 <GUI_ALLOC_RequestSize>:
 80007e8:	b580      	push	{r7, lr}
 80007ea:	f7ff ffe2 	bl	80007b2 <GUI_ALLOC_GetMaxSize>
 80007ee:	4937      	ldr	r1, [pc, #220]	; (80008cc <.text_37>)
 80007f0:	69c9      	ldr	r1, [r1, #28]
 80007f2:	f5b0 0f80 	cmp.w	r0, #4194304	; 0x400000
 80007f6:	d904      	bls.n	8000802 <GUI_ALLOC_RequestSize+0x1a>
 80007f8:	2264      	movs	r2, #100	; 0x64
 80007fa:	fb90 f0f2 	sdiv	r0, r0, r2
 80007fe:	4348      	muls	r0, r1
 8000800:	bd02      	pop	{r1, pc}
 8000802:	4348      	muls	r0, r1
 8000804:	2164      	movs	r1, #100	; 0x64
 8000806:	fbb0 f0f1 	udiv	r0, r0, r1
 800080a:	bd02      	pop	{r1, pc}

0800080c <GUI_ALLOC_Lock>:
 800080c:	482f      	ldr	r0, [pc, #188]	; (80008cc <.text_37>)
 800080e:	6941      	ldr	r1, [r0, #20]
 8000810:	1c49      	adds	r1, r1, #1
 8000812:	6141      	str	r1, [r0, #20]
 8000814:	4770      	bx	lr

08000816 <GUI_ALLOC_Unlock>:
 8000816:	482d      	ldr	r0, [pc, #180]	; (80008cc <.text_37>)
 8000818:	6941      	ldr	r1, [r0, #20]
 800081a:	1e49      	subs	r1, r1, #1
 800081c:	6141      	str	r1, [r0, #20]
 800081e:	4770      	bx	lr

08000820 <GUI_ALLOC_AssignMemory>:
 8000820:	4a2b      	ldr	r2, [pc, #172]	; (80008d0 <.text_38>)
 8000822:	6010      	str	r0, [r2, #0]
 8000824:	0888      	lsrs	r0, r1, #2
 8000826:	0080      	lsls	r0, r0, #2
 8000828:	6050      	str	r0, [r2, #4]
 800082a:	4770      	bx	lr

0800082c <GUI_ALLOC_SetAvBlockSize>:
 800082c:	4928      	ldr	r1, [pc, #160]	; (80008d0 <.text_38>)
 800082e:	2811      	cmp	r0, #17
 8000830:	d305      	bcc.n	800083e <GUI_ALLOC_SetAvBlockSize+0x12>
 8000832:	684a      	ldr	r2, [r1, #4]
 8000834:	ebb0 0f52 	cmp.w	r0, r2, lsr #1
 8000838:	d302      	bcc.n	8000840 <GUI_ALLOC_SetAvBlockSize+0x14>
 800083a:	0850      	lsrs	r0, r2, #1
 800083c:	e000      	b.n	8000840 <GUI_ALLOC_SetAvBlockSize+0x14>
 800083e:	2010      	movs	r0, #16
 8000840:	6088      	str	r0, [r1, #8]
 8000842:	4770      	bx	lr

08000844 <GUI_ALLOC_GetSize>:
 8000844:	2100      	movs	r1, #0
 8000846:	b138      	cbz	r0, 8000858 <GUI_ALLOC_GetSize+0x14>
 8000848:	4920      	ldr	r1, [pc, #128]	; (80008cc <.text_37>)
 800084a:	6b09      	ldr	r1, [r1, #48]	; 0x30
 800084c:	eb01 00c0 	add.w	r0, r1, r0, lsl #3
 8000850:	6840      	ldr	r0, [r0, #4]
 8000852:	6840      	ldr	r0, [r0, #4]
 8000854:	f1a0 010c 	sub.w	r1, r0, #12
 8000858:	4608      	mov	r0, r1
 800085a:	4770      	bx	lr

0800085c <GUI_ALLOC_Free>:
 800085c:	b510      	push	{r4, lr}
 800085e:	0004      	movs	r4, r0
 8000860:	bf1f      	itttt	ne
 8000862:	481a      	ldrne	r0, [pc, #104]	; (80008cc <.text_37>)
 8000864:	6b00      	ldrne	r0, [r0, #48]	; 0x30
 8000866:	f810 1034 	ldrbne.w	r1, [r0, r4, lsl #3]
 800086a:	2900      	cmpne	r1, #0
 800086c:	d00b      	beq.n	8000886 <GUI_ALLOC_Free+0x2a>
 800086e:	2902      	cmp	r1, #2
 8000870:	da09      	bge.n	8000886 <GUI_ALLOC_Free+0x2a>
 8000872:	eb00 00c4 	add.w	r0, r0, r4, lsl #3
 8000876:	6841      	ldr	r1, [r0, #4]
 8000878:	6848      	ldr	r0, [r1, #4]
 800087a:	f7ff fcc6 	bl	800020a <_AddFreeMemory>
 800087e:	4620      	mov	r0, r4
 8000880:	e8bd 4010 	ldmia.w	sp!, {r4, lr}
 8000884:	e675      	b.n	8000572 <_PushFreeBlock>
 8000886:	bd10      	pop	{r4, pc}

08000888 <GUI_ALLOC_FreePtr>:
 8000888:	b510      	push	{r4, lr}
 800088a:	4604      	mov	r4, r0
 800088c:	6820      	ldr	r0, [r4, #0]
 800088e:	f7ff ffe5 	bl	800085c <GUI_ALLOC_Free>
 8000892:	2000      	movs	r0, #0
 8000894:	6020      	str	r0, [r4, #0]
 8000896:	bd10      	pop	{r4, pc}

08000898 <GUI_ALLOC_FreePtrArray>:
 8000898:	b5f8      	push	{r3, r4, r5, r6, r7, lr}
 800089a:	4604      	mov	r4, r0
 800089c:	460d      	mov	r5, r1
 800089e:	2600      	movs	r6, #0
 80008a0:	e007      	b.n	80008b2 <GUI_ALLOC_FreePtrArray+0x1a>
 80008a2:	eb04 0786 	add.w	r7, r4, r6, lsl #2
 80008a6:	6838      	ldr	r0, [r7, #0]
 80008a8:	f7ff ffd8 	bl	800085c <GUI_ALLOC_Free>
 80008ac:	2000      	movs	r0, #0
 80008ae:	6038      	str	r0, [r7, #0]
 80008b0:	1c76      	adds	r6, r6, #1
 80008b2:	42ae      	cmp	r6, r5
 80008b4:	dbf5      	blt.n	80008a2 <GUI_ALLOC_FreePtrArray+0xa>
 80008b6:	bdf1      	pop	{r0, r4, r5, r6, r7, pc}

080008b8 <GUI_ALLOC_SetMaxPercentage>:
 80008b8:	f1a0 010a 	sub.w	r1, r0, #10
 80008bc:	295b      	cmp	r1, #91	; 0x5b
 80008be:	d203      	bcs.n	80008c8 <GUI_ALLOC_SetMaxPercentage+0x10>
 80008c0:	4902      	ldr	r1, [pc, #8]	; (80008cc <.text_37>)
 80008c2:	61c8      	str	r0, [r1, #28]
 80008c4:	2000      	movs	r0, #0
 80008c6:	4770      	bx	lr
 80008c8:	2001      	movs	r0, #1
 80008ca:	4770      	bx	lr

080008cc <.text_37>:
 80008cc:	200006a0 	.word	0x200006a0

080008d0 <.text_38>:
 80008d0:	2000075c 	.word	0x2000075c

080008d4 <.text_39>:
 80008d4:	08000417 	.word	0x08000417

080008d8 <GUI_ALLOC_AllocZero>:
 80008d8:	b538      	push	{r3, r4, r5, lr}
 80008da:	4604      	mov	r4, r0
 80008dc:	f7ff ff28 	bl	8000730 <GUI_ALLOC_AllocNoInit>
 80008e0:	0005      	movs	r5, r0
 80008e2:	d009      	beq.n	80008f8 <GUI_ALLOC_AllocZero+0x20>
 80008e4:	f7ff ff31 	bl	800074a <GUI_ALLOC_LockH>
 80008e8:	9000      	str	r0, [sp, #0]
 80008ea:	4622      	mov	r2, r4
 80008ec:	2100      	movs	r1, #0
 80008ee:	f006 fca5 	bl	800723c <GUI__memset>
 80008f2:	a800      	add	r0, sp, #0
 80008f4:	f7ff ff34 	bl	8000760 <GUI_ALLOC_UnlockH>
 80008f8:	4628      	mov	r0, r5
 80008fa:	bd32      	pop	{r1, r4, r5, pc}

080008fc <GUI_DispNextLine>:
 80008fc:	b580      	push	{r7, lr}
 80008fe:	f000 f836 	bl	800096e <GUI_GetFontDistY>
 8000902:	4923      	ldr	r1, [pc, #140]	; (8000990 <.text_8>)
 8000904:	6809      	ldr	r1, [r1, #0]
 8000906:	8c8a      	ldrh	r2, [r1, #36]	; 0x24
 8000908:	1880      	adds	r0, r0, r2
 800090a:	8488      	strh	r0, [r1, #36]	; 0x24
 800090c:	8c08      	ldrh	r0, [r1, #32]
 800090e:	8448      	strh	r0, [r1, #34]	; 0x22
 8000910:	bd01      	pop	{r0, pc}

08000912 <GL_DispChar>:
 8000912:	b510      	push	{r4, lr}
 8000914:	4604      	mov	r4, r0
 8000916:	280a      	cmp	r0, #10
 8000918:	bf04      	itt	eq
 800091a:	e8bd 4010 	ldmiaeq.w	sp!, {r4, lr}
 800091e:	f7ff bfed 	beq.w	80008fc <GUI_DispNextLine>
 8000922:	280d      	cmp	r0, #13
 8000924:	d00c      	beq.n	8000940 <__iar_annotation$$tailcall+0x2>
 8000926:	491a      	ldr	r1, [pc, #104]	; (8000990 <.text_8>)
 8000928:	6809      	ldr	r1, [r1, #0]
 800092a:	69c9      	ldr	r1, [r1, #28]
 800092c:	6809      	ldr	r1, [r1, #0]
 800092e:	4788      	blx	r1
 8000930:	4818      	ldr	r0, [pc, #96]	; (8000994 <.text_9>)
 8000932:	6801      	ldr	r1, [r0, #0]
 8000934:	0008      	movs	r0, r1
 8000936:	d003      	beq.n	8000940 <__iar_annotation$$tailcall+0x2>
 8000938:	4620      	mov	r0, r4
 800093a:	e8bd 4010 	ldmia.w	sp!, {r4, lr}

0800093e <__iar_annotation$$tailcall>:
 800093e:	4708      	bx	r1
 8000940:	bd10      	pop	{r4, pc}

08000942 <GUI_GetYAdjust>:
 8000942:	4913      	ldr	r1, [pc, #76]	; (8000990 <.text_8>)
 8000944:	6809      	ldr	r1, [r1, #0]
 8000946:	f891 202c 	ldrb.w	r2, [r1, #44]	; 0x2c
 800094a:	2000      	movs	r0, #0
 800094c:	f002 020c 	and.w	r2, r2, #12
 8000950:	2a04      	cmp	r2, #4
 8000952:	d004      	beq.n	800095e <GUI_GetYAdjust+0x1c>
 8000954:	2a08      	cmp	r2, #8
 8000956:	bf18      	it	ne
 8000958:	2a0c      	cmpne	r2, #12
 800095a:	d004      	beq.n	8000966 <GUI_GetYAdjust+0x24>
 800095c:	4770      	bx	lr
 800095e:	69c8      	ldr	r0, [r1, #28]
 8000960:	7e00      	ldrb	r0, [r0, #24]
 8000962:	1e40      	subs	r0, r0, #1
 8000964:	4770      	bx	lr
 8000966:	69c8      	ldr	r0, [r1, #28]
 8000968:	7e00      	ldrb	r0, [r0, #24]
 800096a:	0840      	lsrs	r0, r0, #1
 800096c:	4770      	bx	lr

0800096e <GUI_GetFontDistY>:
 800096e:	4808      	ldr	r0, [pc, #32]	; (8000990 <.text_8>)
 8000970:	6800      	ldr	r0, [r0, #0]
 8000972:	69c0      	ldr	r0, [r0, #28]
 8000974:	7e40      	ldrb	r0, [r0, #25]
 8000976:	4770      	bx	lr

08000978 <GUI_GetCharDistX>:
 8000978:	4a05      	ldr	r2, [pc, #20]	; (8000990 <.text_8>)
 800097a:	6812      	ldr	r2, [r2, #0]
 800097c:	69d2      	ldr	r2, [r2, #28]
 800097e:	6852      	ldr	r2, [r2, #4]
 8000980:	2100      	movs	r1, #0

08000982 <__iar_annotation$$tailcall>:
 8000982:	4710      	bx	r2

08000984 <GUI_GetCharDistXEx>:
 8000984:	4a02      	ldr	r2, [pc, #8]	; (8000990 <.text_8>)
 8000986:	6812      	ldr	r2, [r2, #0]
 8000988:	69d2      	ldr	r2, [r2, #28]
 800098a:	6852      	ldr	r2, [r2, #4]

0800098c <__iar_annotation$$tailcall>:
 800098c:	4710      	bx	r2
	...

08000990 <.text_8>:
 8000990:	2000000c 	.word	0x2000000c

08000994 <.text_9>:
 8000994:	20000778 	.word	0x20000778

08000998 <GUIPROP__FindChar>:
 8000998:	e000      	b.n	800099c <GUIPROP__FindChar+0x4>
 800099a:	6880      	ldr	r0, [r0, #8]
 800099c:	b128      	cbz	r0, 80009aa <GUIPROP__FindChar+0x12>
 800099e:	8802      	ldrh	r2, [r0, #0]
 80009a0:	4291      	cmp	r1, r2
 80009a2:	bf24      	itt	cs
 80009a4:	8842      	ldrhcs	r2, [r0, #2]
 80009a6:	428a      	cmpcs	r2, r1
 80009a8:	d3f7      	bcc.n	800099a <GUIPROP__FindChar+0x2>
 80009aa:	4770      	bx	lr

080009ac <GUIPROP_DispChar>:
 80009ac:	e92d 43f0 	stmdb	sp!, {r4, r5, r6, r7, r8, r9, lr}
 80009b0:	4c3e      	ldr	r4, [pc, #248]	; (8000aac <.text_5>)
 80009b2:	4605      	mov	r5, r0
 80009b4:	6820      	ldr	r0, [r4, #0]
 80009b6:	b087      	sub	sp, #28
 80009b8:	f9b0 602a 	ldrsh.w	r6, [r0, #42]	; 0x2a
 80009bc:	69c0      	ldr	r0, [r0, #28]
 80009be:	69c0      	ldr	r0, [r0, #28]
 80009c0:	4629      	mov	r1, r5
 80009c2:	f7ff ffe9 	bl	8000998 <GUIPROP__FindChar>
 80009c6:	2800      	cmp	r0, #0
 80009c8:	d051      	beq.n	8000a6e <GUIPROP_DispChar+0xc2>
 80009ca:	8801      	ldrh	r1, [r0, #0]
 80009cc:	6840      	ldr	r0, [r0, #4]
 80009ce:	1a69      	subs	r1, r5, r1
 80009d0:	eb00 05c1 	add.w	r5, r0, r1, lsl #3
 80009d4:	4630      	mov	r0, r6
 80009d6:	78af      	ldrb	r7, [r5, #2]
 80009d8:	f003 fd28 	bl	800442c <LCD_SetDrawMode>
 80009dc:	4681      	mov	r9, r0
 80009de:	6820      	ldr	r0, [r4, #0]
 80009e0:	69c1      	ldr	r1, [r0, #28]
 80009e2:	6b82      	ldr	r2, [r0, #56]	; 0x38
 80009e4:	9205      	str	r2, [sp, #20]
 80009e6:	686a      	ldr	r2, [r5, #4]
 80009e8:	9204      	str	r2, [sp, #16]
 80009ea:	9703      	str	r7, [sp, #12]
 80009ec:	2201      	movs	r2, #1
 80009ee:	9202      	str	r2, [sp, #8]
 80009f0:	7eca      	ldrb	r2, [r1, #27]
 80009f2:	9201      	str	r2, [sp, #4]
 80009f4:	7e8a      	ldrb	r2, [r1, #26]
 80009f6:	9200      	str	r2, [sp, #0]
 80009f8:	7e0b      	ldrb	r3, [r1, #24]
 80009fa:	f9b0 1024 	ldrsh.w	r1, [r0, #36]	; 0x24
 80009fe:	782a      	ldrb	r2, [r5, #0]
 8000a00:	f9b0 0022 	ldrsh.w	r0, [r0, #34]	; 0x22
 8000a04:	f003 fe5b 	bl	80046be <LCD_DrawBitmap>
 8000a08:	6820      	ldr	r0, [r4, #0]
 8000a0a:	69c0      	ldr	r0, [r0, #28]
 8000a0c:	7e41      	ldrb	r1, [r0, #25]
 8000a0e:	7e02      	ldrb	r2, [r0, #24]
 8000a10:	428a      	cmp	r2, r1
 8000a12:	d220      	bcs.n	8000a56 <GUIPROP_DispChar+0xaa>
 8000a14:	7ec0      	ldrb	r0, [r0, #27]
 8000a16:	fb10 f701 	smulbb	r7, r0, r1
 8000a1a:	fb10 f802 	smulbb	r8, r0, r2
 8000a1e:	2e02      	cmp	r6, #2
 8000a20:	d019      	beq.n	8000a56 <GUIPROP_DispChar+0xaa>
 8000a22:	f000 fd0a 	bl	800143a <GUI_GetColor>
 8000a26:	4606      	mov	r6, r0
 8000a28:	f000 fd01 	bl	800142e <GUI_GetBkColor>
 8000a2c:	f000 fea5 	bl	800177a <GUI_SetColor>
 8000a30:	6821      	ldr	r1, [r4, #0]
 8000a32:	f9b1 0022 	ldrsh.w	r0, [r1, #34]	; 0x22
 8000a36:	f9b1 c024 	ldrsh.w	ip, [r1, #36]	; 0x24
 8000a3a:	69c9      	ldr	r1, [r1, #28]
 8000a3c:	782a      	ldrb	r2, [r5, #0]
 8000a3e:	7ec9      	ldrb	r1, [r1, #27]
 8000a40:	fb11 0202 	smlabb	r2, r1, r2, r0
 8000a44:	eb07 030c 	add.w	r3, r7, ip
 8000a48:	eb08 010c 	add.w	r1, r8, ip
 8000a4c:	f003 fd65 	bl	800451a <LCD_FillRect>
 8000a50:	4630      	mov	r0, r6
 8000a52:	f000 fe92 	bl	800177a <GUI_SetColor>
 8000a56:	4648      	mov	r0, r9
 8000a58:	f003 fce8 	bl	800442c <LCD_SetDrawMode>
 8000a5c:	6820      	ldr	r0, [r4, #0]
 8000a5e:	786a      	ldrb	r2, [r5, #1]
 8000a60:	69c3      	ldr	r3, [r0, #28]
 8000a62:	f9b0 1022 	ldrsh.w	r1, [r0, #34]	; 0x22
 8000a66:	7e9b      	ldrb	r3, [r3, #26]
 8000a68:	435a      	muls	r2, r3
 8000a6a:	1851      	adds	r1, r2, r1
 8000a6c:	8441      	strh	r1, [r0, #34]	; 0x22
 8000a6e:	b007      	add	sp, #28
 8000a70:	e8bd 83f0 	ldmia.w	sp!, {r4, r5, r6, r7, r8, r9, pc}

08000a74 <GUIPROP_GetCharDistX>:
 8000a74:	b570      	push	{r4, r5, r6, lr}
 8000a76:	4605      	mov	r5, r0
 8000a78:	480c      	ldr	r0, [pc, #48]	; (8000aac <.text_5>)
 8000a7a:	6806      	ldr	r6, [r0, #0]
 8000a7c:	69f0      	ldr	r0, [r6, #28]
 8000a7e:	69c0      	ldr	r0, [r0, #28]
 8000a80:	460c      	mov	r4, r1
 8000a82:	4629      	mov	r1, r5
 8000a84:	f7ff ff88 	bl	8000998 <GUIPROP__FindChar>
 8000a88:	b170      	cbz	r0, 8000aa8 <GUIPROP_GetCharDistX+0x34>
 8000a8a:	8802      	ldrh	r2, [r0, #0]
 8000a8c:	6843      	ldr	r3, [r0, #4]
 8000a8e:	69f1      	ldr	r1, [r6, #28]
 8000a90:	7e89      	ldrb	r1, [r1, #26]
 8000a92:	1aaa      	subs	r2, r5, r2
 8000a94:	eb03 00c2 	add.w	r0, r3, r2, lsl #3
 8000a98:	7840      	ldrb	r0, [r0, #1]
 8000a9a:	4348      	muls	r0, r1
 8000a9c:	b124      	cbz	r4, 8000aa8 <GUIPROP_GetCharDistX+0x34>
 8000a9e:	f813 2032 	ldrb.w	r2, [r3, r2, lsl #3]
 8000aa2:	fb11 f102 	smulbb	r1, r1, r2
 8000aa6:	6021      	str	r1, [r4, #0]
 8000aa8:	bd70      	pop	{r4, r5, r6, pc}
	...

08000aac <.text_5>:
 8000aac:	2000000c 	.word	0x2000000c

08000ab0 <GUIPROP_GetFontInfo>:
 8000ab0:	2001      	movs	r0, #1
 8000ab2:	8008      	strh	r0, [r1, #0]
 8000ab4:	4770      	bx	lr

08000ab6 <GUIPROP_IsInFont>:
 8000ab6:	b580      	push	{r7, lr}
 8000ab8:	69c0      	ldr	r0, [r0, #28]
 8000aba:	f7ff ff6d 	bl	8000998 <GUIPROP__FindChar>
 8000abe:	b100      	cbz	r0, 8000ac2 <GUIPROP_IsInFont+0xc>
 8000ac0:	2001      	movs	r0, #1
 8000ac2:	bd02      	pop	{r1, pc}

08000ac4 <GUIPROP_EXT__FindChar>:
 8000ac4:	e000      	b.n	8000ac8 <GUIPROP_EXT__FindChar+0x4>
 8000ac6:	6880      	ldr	r0, [r0, #8]
 8000ac8:	b128      	cbz	r0, 8000ad6 <GUIPROP_EXT__FindChar+0x12>
 8000aca:	8802      	ldrh	r2, [r0, #0]
 8000acc:	4291      	cmp	r1, r2
 8000ace:	bf24      	itt	cs
 8000ad0:	8842      	ldrhcs	r2, [r0, #2]
 8000ad2:	428a      	cmpcs	r2, r1
 8000ad4:	d3f7      	bcc.n	8000ac6 <GUIPROP_EXT__FindChar+0x2>
 8000ad6:	4770      	bx	lr

08000ad8 <GUIPROP_EXT_DispChar>:
 8000ad8:	b5f0      	push	{r4, r5, r6, r7, lr}
 8000ada:	4c3e      	ldr	r4, [pc, #248]	; (8000bd4 <.text_8>)
 8000adc:	4606      	mov	r6, r0
 8000ade:	6820      	ldr	r0, [r4, #0]
 8000ae0:	b087      	sub	sp, #28
 8000ae2:	f9b0 502a 	ldrsh.w	r5, [r0, #42]	; 0x2a
 8000ae6:	69c0      	ldr	r0, [r0, #28]
 8000ae8:	69c0      	ldr	r0, [r0, #28]
 8000aea:	4631      	mov	r1, r6
 8000aec:	f7ff ffea 	bl	8000ac4 <GUIPROP_EXT__FindChar>
 8000af0:	4939      	ldr	r1, [pc, #228]	; (8000bd8 <.text_9>)
 8000af2:	7809      	ldrb	r1, [r1, #0]
 8000af4:	b109      	cbz	r1, 8000afa <GUIPROP_EXT_DispChar+0x22>
 8000af6:	f045 0502 	orr.w	r5, r5, #2
 8000afa:	b398      	cbz	r0, 8000b64 <GUIPROP_EXT_DispChar+0x8c>
 8000afc:	8801      	ldrh	r1, [r0, #0]
 8000afe:	6840      	ldr	r0, [r0, #4]
 8000b00:	1a71      	subs	r1, r6, r1
 8000b02:	220c      	movs	r2, #12
 8000b04:	fb02 0601 	mla	r6, r2, r1, r0
 8000b08:	7830      	ldrb	r0, [r6, #0]
 8000b0a:	1dc0      	adds	r0, r0, #7
 8000b0c:	10c7      	asrs	r7, r0, #3
 8000b0e:	4628      	mov	r0, r5
 8000b10:	f003 fc8c 	bl	800442c <LCD_SetDrawMode>
 8000b14:	4605      	mov	r5, r0
 8000b16:	6820      	ldr	r0, [r4, #0]
 8000b18:	69c1      	ldr	r1, [r0, #28]
 8000b1a:	6b82      	ldr	r2, [r0, #56]	; 0x38
 8000b1c:	9205      	str	r2, [sp, #20]
 8000b1e:	68b2      	ldr	r2, [r6, #8]
 8000b20:	9204      	str	r2, [sp, #16]
 8000b22:	9703      	str	r7, [sp, #12]
 8000b24:	2201      	movs	r2, #1
 8000b26:	9202      	str	r2, [sp, #8]
 8000b28:	7eca      	ldrb	r2, [r1, #27]
 8000b2a:	9201      	str	r2, [sp, #4]
 8000b2c:	7e89      	ldrb	r1, [r1, #26]
 8000b2e:	9100      	str	r1, [sp, #0]
 8000b30:	f996 7003 	ldrsb.w	r7, [r6, #3]
 8000b34:	f9b0 1024 	ldrsh.w	r1, [r0, #36]	; 0x24
 8000b38:	7873      	ldrb	r3, [r6, #1]
 8000b3a:	7832      	ldrb	r2, [r6, #0]
 8000b3c:	f9b0 0022 	ldrsh.w	r0, [r0, #34]	; 0x22
 8000b40:	1879      	adds	r1, r7, r1
 8000b42:	f996 7002 	ldrsb.w	r7, [r6, #2]
 8000b46:	1838      	adds	r0, r7, r0
 8000b48:	f003 fdb9 	bl	80046be <LCD_DrawBitmap>
 8000b4c:	4628      	mov	r0, r5
 8000b4e:	f003 fc6d 	bl	800442c <LCD_SetDrawMode>
 8000b52:	6820      	ldr	r0, [r4, #0]
 8000b54:	7932      	ldrb	r2, [r6, #4]
 8000b56:	69c3      	ldr	r3, [r0, #28]
 8000b58:	f9b0 1022 	ldrsh.w	r1, [r0, #34]	; 0x22
 8000b5c:	7e9b      	ldrb	r3, [r3, #26]
 8000b5e:	435a      	muls	r2, r3
 8000b60:	1851      	adds	r1, r2, r1
 8000b62:	8441      	strh	r1, [r0, #34]	; 0x22
 8000b64:	b007      	add	sp, #28
 8000b66:	bdf0      	pop	{r4, r5, r6, r7, pc}

08000b68 <GUIPROP_EXT_GetCharDistX>:
 8000b68:	b570      	push	{r4, r5, r6, lr}
 8000b6a:	4605      	mov	r5, r0
 8000b6c:	4819      	ldr	r0, [pc, #100]	; (8000bd4 <.text_8>)
 8000b6e:	6806      	ldr	r6, [r0, #0]
 8000b70:	69f0      	ldr	r0, [r6, #28]
 8000b72:	f000 f833 	bl	8000bdc <.text_10>
 8000b76:	b170      	cbz	r0, 8000b96 <GUIPROP_EXT_GetCharDistX+0x2e>
 8000b78:	8802      	ldrh	r2, [r0, #0]
 8000b7a:	1aaa      	subs	r2, r5, r2
 8000b7c:	230c      	movs	r3, #12
 8000b7e:	435a      	muls	r2, r3
 8000b80:	6843      	ldr	r3, [r0, #4]
 8000b82:	69f1      	ldr	r1, [r6, #28]
 8000b84:	7e89      	ldrb	r1, [r1, #26]
 8000b86:	18d0      	adds	r0, r2, r3
 8000b88:	7900      	ldrb	r0, [r0, #4]
 8000b8a:	4348      	muls	r0, r1
 8000b8c:	b11c      	cbz	r4, 8000b96 <GUIPROP_EXT_GetCharDistX+0x2e>
 8000b8e:	5cd2      	ldrb	r2, [r2, r3]
 8000b90:	fb11 f102 	smulbb	r1, r1, r2
 8000b94:	6021      	str	r1, [r4, #0]
 8000b96:	bd70      	pop	{r4, r5, r6, pc}

08000b98 <GUIPROP_EXT_GetFontInfo>:
 8000b98:	2001      	movs	r0, #1
 8000b9a:	8008      	strh	r0, [r1, #0]
 8000b9c:	4770      	bx	lr

08000b9e <GUIPROP_EXT_IsInFont>:
 8000b9e:	b580      	push	{r7, lr}
 8000ba0:	69c0      	ldr	r0, [r0, #28]
 8000ba2:	f7ff ff8f 	bl	8000ac4 <GUIPROP_EXT__FindChar>
 8000ba6:	b100      	cbz	r0, 8000baa <GUIPROP_EXT_IsInFont+0xc>
 8000ba8:	2001      	movs	r0, #1
 8000baa:	bd02      	pop	{r1, pc}

08000bac <GUIPROP_EXT_GetCharInfo>:
 8000bac:	b538      	push	{r3, r4, r5, lr}
 8000bae:	4605      	mov	r5, r0
 8000bb0:	4808      	ldr	r0, [pc, #32]	; (8000bd4 <.text_8>)
 8000bb2:	6800      	ldr	r0, [r0, #0]
 8000bb4:	69c0      	ldr	r0, [r0, #28]
 8000bb6:	f000 f811 	bl	8000bdc <.text_10>
 8000bba:	b148      	cbz	r0, 8000bd0 <GUIPROP_EXT_GetCharInfo+0x24>
 8000bbc:	8801      	ldrh	r1, [r0, #0]
 8000bbe:	6840      	ldr	r0, [r0, #4]
 8000bc0:	1a69      	subs	r1, r5, r1
 8000bc2:	220c      	movs	r2, #12
 8000bc4:	fb02 0001 	mla	r0, r2, r1, r0
 8000bc8:	c80e      	ldmia	r0!, {r1, r2, r3}
 8000bca:	c40e      	stmia	r4!, {r1, r2, r3}
 8000bcc:	2000      	movs	r0, #0
 8000bce:	bd32      	pop	{r1, r4, r5, pc}
 8000bd0:	2001      	movs	r0, #1
 8000bd2:	bd32      	pop	{r1, r4, r5, pc}

08000bd4 <.text_8>:
 8000bd4:	2000000c 	.word	0x2000000c

08000bd8 <.text_9>:
 8000bd8:	20000014 	.word	0x20000014

08000bdc <.text_10>:
 8000bdc:	69c0      	ldr	r0, [r0, #28]
 8000bde:	460c      	mov	r4, r1
 8000be0:	4629      	mov	r1, r5
 8000be2:	e76f      	b.n	8000ac4 <GUIPROP_EXT__FindChar>

08000be4 <_OnExit>:
 8000be4:	b510      	push	{r4, lr}
 8000be6:	4864      	ldr	r0, [pc, #400]	; (8000d78 <.text_22>)
 8000be8:	4c64      	ldr	r4, [pc, #400]	; (8000d7c <.text_23>)
 8000bea:	2100      	movs	r1, #0
 8000bec:	6001      	str	r1, [r0, #0]
 8000bee:	2278      	movs	r2, #120	; 0x78
 8000bf0:	4620      	mov	r0, r4
 8000bf2:	f006 fb23 	bl	800723c <GUI__memset>
 8000bf6:	f104 0078 	add.w	r0, r4, #120	; 0x78
 8000bfa:	e8bd 4010 	ldmia.w	sp!, {r4, lr}
 8000bfe:	2208      	movs	r2, #8
 8000c00:	2100      	movs	r1, #0
 8000c02:	f006 bb1b 	b.w	800723c <GUI__memset>

08000c06 <GUI_SetFuncGetpPalConvTable>:
 8000c06:	495e      	ldr	r1, [pc, #376]	; (8000d80 <.text_24>)
 8000c08:	6008      	str	r0, [r1, #0]
 8000c0a:	4770      	bx	lr

08000c0c <GUI_SetDefaultFont>:
 8000c0c:	495d      	ldr	r1, [pc, #372]	; (8000d84 <.text_25>)
 8000c0e:	6088      	str	r0, [r1, #8]
 8000c10:	4770      	bx	lr

08000c12 <GUI_ClearRect>:
 8000c12:	e92d 41fc 	stmdb	sp!, {r2, r3, r4, r5, r6, r7, r8, lr}
 8000c16:	4605      	mov	r5, r0
 8000c18:	460e      	mov	r6, r1
 8000c1a:	4617      	mov	r7, r2
 8000c1c:	4698      	mov	r8, r3
 8000c1e:	2004      	movs	r0, #4
 8000c20:	f003 fc04 	bl	800442c <LCD_SetDrawMode>
 8000c24:	4604      	mov	r4, r0
 8000c26:	4857      	ldr	r0, [pc, #348]	; (8000d84 <.text_25>)
 8000c28:	68c0      	ldr	r0, [r0, #12]
 8000c2a:	6cc1      	ldr	r1, [r0, #76]	; 0x4c
 8000c2c:	6d00      	ldr	r0, [r0, #80]	; 0x50
 8000c2e:	194d      	adds	r5, r1, r5
 8000c30:	1986      	adds	r6, r0, r6
 8000c32:	19cf      	adds	r7, r1, r7
 8000c34:	4480      	add	r8, r0
 8000c36:	f8ad 5000 	strh.w	r5, [sp]
 8000c3a:	f8ad 7004 	strh.w	r7, [sp, #4]
 8000c3e:	f8ad 6002 	strh.w	r6, [sp, #2]
 8000c42:	f8ad 8006 	strh.w	r8, [sp, #6]
 8000c46:	a800      	add	r0, sp, #0
 8000c48:	f004 ffdf 	bl	8005c0a <WM__InitIVRSearch>
 8000c4c:	b148      	cbz	r0, 8000c62 <GUI_ClearRect+0x50>
 8000c4e:	4643      	mov	r3, r8
 8000c50:	463a      	mov	r2, r7
 8000c52:	4631      	mov	r1, r6
 8000c54:	4628      	mov	r0, r5
 8000c56:	f003 fc60 	bl	800451a <LCD_FillRect>
 8000c5a:	f004 ffbb 	bl	8005bd4 <WM__GetNextIVR>
 8000c5e:	2800      	cmp	r0, #0
 8000c60:	d1f5      	bne.n	8000c4e <GUI_ClearRect+0x3c>
 8000c62:	4620      	mov	r0, r4
 8000c64:	f003 fbe2 	bl	800442c <LCD_SetDrawMode>
 8000c68:	e8bd 81f3 	ldmia.w	sp!, {r0, r1, r4, r5, r6, r7, r8, pc}

08000c6c <GUI_Clear>:
 8000c6c:	b580      	push	{r7, lr}
 8000c6e:	2100      	movs	r1, #0
 8000c70:	2000      	movs	r0, #0
 8000c72:	f000 fbfd 	bl	8001470 <GUI_GotoXY>
 8000c76:	e8bd 5000 	ldmia.w	sp!, {ip, lr}
 8000c7a:	4943      	ldr	r1, [pc, #268]	; (8000d88 <.text_26>)
 8000c7c:	f640 72ff 	movw	r2, #4095	; 0xfff
 8000c80:	4613      	mov	r3, r2
 8000c82:	4608      	mov	r0, r1
 8000c84:	e7c5      	b.n	8000c12 <GUI_ClearRect>

08000c86 <GUI__Config>:
 8000c86:	b510      	push	{r4, lr}
 8000c88:	4c3b      	ldr	r4, [pc, #236]	; (8000d78 <.text_22>)
 8000c8a:	6820      	ldr	r0, [r4, #0]
 8000c8c:	b958      	cbnz	r0, 8000ca6 <GUI__Config+0x20>
 8000c8e:	2001      	movs	r0, #1
 8000c90:	6020      	str	r0, [r4, #0]
 8000c92:	f012 fc59 	bl	8013548 <GUI_X_Config>
 8000c96:	f013 fa4f 	bl	8014138 <LCD_X_Config>
 8000c9a:	483c      	ldr	r0, [pc, #240]	; (8000d8c <.text_27>)
 8000c9c:	6060      	str	r0, [r4, #4]
 8000c9e:	1d20      	adds	r0, r4, #4
 8000ca0:	e8bd 4010 	ldmia.w	sp!, {r4, lr}
 8000ca4:	e053      	b.n	8000d4e <GUI__RegisterExit>
 8000ca6:	bd10      	pop	{r4, pc}

08000ca8 <GUI_Init>:
 8000ca8:	b570      	push	{r4, r5, r6, lr}
 8000caa:	4839      	ldr	r0, [pc, #228]	; (8000d90 <.text_28>)
 8000cac:	6801      	ldr	r1, [r0, #0]
 8000cae:	0849      	lsrs	r1, r1, #1
 8000cb0:	0049      	lsls	r1, r1, #1
 8000cb2:	6001      	str	r1, [r0, #0]
 8000cb4:	2101      	movs	r1, #1
 8000cb6:	4837      	ldr	r0, [pc, #220]	; (8000d94 <.text_29>)
 8000cb8:	6081      	str	r1, [r0, #8]
 8000cba:	4937      	ldr	r1, [pc, #220]	; (8000d98 <.text_30>)
 8000cbc:	6001      	str	r1, [r0, #0]
 8000cbe:	6800      	ldr	r0, [r0, #0]
 8000cc0:	4936      	ldr	r1, [pc, #216]	; (8000d9c <.text_31>)
 8000cc2:	4288      	cmp	r0, r1
 8000cc4:	d000      	beq.n	8000cc8 <GUI_Init+0x20>
 8000cc6:	e7fe      	b.n	8000cc6 <GUI_Init+0x1e>
 8000cc8:	f7ff ffdd 	bl	8000c86 <GUI__Config>
 8000ccc:	4c2d      	ldr	r4, [pc, #180]	; (8000d84 <.text_25>)
 8000cce:	202e      	movs	r0, #46	; 0x2e
 8000cd0:	7020      	strb	r0, [r4, #0]
 8000cd2:	f012 fc2d 	bl	8013530 <GUI_X_Init>
 8000cd6:	68e0      	ldr	r0, [r4, #12]
 8000cd8:	4d28      	ldr	r5, [pc, #160]	; (8000d7c <.text_23>)
 8000cda:	6380      	str	r0, [r0, #56]	; 0x38
 8000cdc:	1d01      	adds	r1, r0, #4
 8000cde:	63c1      	str	r1, [r0, #60]	; 0x3c
 8000ce0:	6400      	str	r0, [r0, #64]	; 0x40
 8000ce2:	f100 0108 	add.w	r1, r0, #8
 8000ce6:	6169      	str	r1, [r5, #20]
 8000ce8:	f105 0108 	add.w	r1, r5, #8
 8000cec:	7c40      	ldrb	r0, [r0, #17]
 8000cee:	eb05 0080 	add.w	r0, r5, r0, lsl #2
 8000cf2:	6f80      	ldr	r0, [r0, #120]	; 0x78
 8000cf4:	68c2      	ldr	r2, [r0, #12]
 8000cf6:	6b12      	ldr	r2, [r2, #48]	; 0x30
 8000cf8:	4790      	blx	r2
 8000cfa:	f20f 00ac 	addw	r0, pc, #172	; 0xac
 8000cfe:	f105 0614 	add.w	r6, r5, #20
 8000d02:	65b0      	str	r0, [r6, #88]	; 0x58
 8000d04:	68a0      	ldr	r0, [r4, #8]
 8000d06:	60b0      	str	r0, [r6, #8]
 8000d08:	68e0      	ldr	r0, [r4, #12]
 8000d0a:	3008      	adds	r0, #8
 8000d0c:	6168      	str	r0, [r5, #20]
 8000d0e:	2001      	movs	r0, #1
 8000d10:	7130      	strb	r0, [r6, #4]
 8000d12:	f005 fbe1 	bl	80064d8 <WM_GetDesktopWindow>
 8000d16:	6370      	str	r0, [r6, #52]	; 0x34
 8000d18:	2003      	movs	r0, #3
 8000d1a:	f885 0070 	strb.w	r0, [r5, #112]	; 0x70
 8000d1e:	f06f 4070 	mvn.w	r0, #4026531840	; 0xf0000000
 8000d22:	61f0      	str	r0, [r6, #28]
 8000d24:	6230      	str	r0, [r6, #32]
 8000d26:	2000      	movs	r0, #0
 8000d28:	f003 fe37 	bl	800499a <LCD_SetBkColor>
 8000d2c:	f06f 407f 	mvn.w	r0, #4278190080	; 0xff000000
 8000d30:	f003 fe37 	bl	80049a2 <LCD_SetColor>
 8000d34:	481a      	ldr	r0, [pc, #104]	; (8000da0 <.text_32>)
 8000d36:	6060      	str	r0, [r4, #4]
 8000d38:	f003 fdc5 	bl	80048c6 <emWin_LCD_Init>
 8000d3c:	4604      	mov	r4, r0
 8000d3e:	2100      	movs	r1, #0
 8000d40:	2000      	movs	r0, #0
 8000d42:	f000 fd31 	bl	80017a8 <GUI_SetOrg>
 8000d46:	f005 fa51 	bl	80061ec <WM_Init>
 8000d4a:	4620      	mov	r0, r4
 8000d4c:	bd70      	pop	{r4, r5, r6, pc}

08000d4e <GUI__RegisterExit>:
 8000d4e:	4915      	ldr	r1, [pc, #84]	; (8000da4 <.text_33>)
 8000d50:	680a      	ldr	r2, [r1, #0]
 8000d52:	6042      	str	r2, [r0, #4]
 8000d54:	6008      	str	r0, [r1, #0]
 8000d56:	4770      	bx	lr

08000d58 <GUI_Exit>:
 8000d58:	b510      	push	{r4, lr}
 8000d5a:	4c12      	ldr	r4, [pc, #72]	; (8000da4 <.text_33>)
 8000d5c:	6820      	ldr	r0, [r4, #0]
 8000d5e:	b148      	cbz	r0, 8000d74 <GUI_Exit+0x1c>
 8000d60:	6820      	ldr	r0, [r4, #0]
 8000d62:	6800      	ldr	r0, [r0, #0]
 8000d64:	0001      	movs	r1, r0
 8000d66:	bf18      	it	ne
 8000d68:	4780      	blxne	r0
 8000d6a:	6820      	ldr	r0, [r4, #0]
 8000d6c:	6840      	ldr	r0, [r0, #4]
 8000d6e:	6020      	str	r0, [r4, #0]
 8000d70:	2800      	cmp	r0, #0
 8000d72:	d1f5      	bne.n	8000d60 <GUI_Exit+0x8>
 8000d74:	bd10      	pop	{r4, pc}
	...

08000d78 <.text_22>:
 8000d78:	20000808 	.word	0x20000808

08000d7c <.text_23>:
 8000d7c:	20000784 	.word	0x20000784

08000d80 <.text_24>:
 8000d80:	20000010 	.word	0x20000010

08000d84 <.text_25>:
 8000d84:	20000000 	.word	0x20000000

08000d88 <.text_26>:
 8000d88:	fffff001 	.word	0xfffff001

08000d8c <.text_27>:
 8000d8c:	08000be5 	.word	0x08000be5

08000d90 <.text_28>:
 8000d90:	e0002000 	.word	0xe0002000

08000d94 <.text_29>:
 8000d94:	40023000 	.word	0x40023000

08000d98 <.text_30>:
 8000d98:	f407a5c2 	.word	0xf407a5c2

08000d9c <.text_31>:
 8000d9c:	b5e8b5cd 	.word	0xb5e8b5cd

08000da0 <.text_32>:
 8000da0:	080018b0 	.word	0x080018b0

08000da4 <.text_33>:
 8000da4:	20000804 	.word	0x20000804

08000da8 <_HL_APIList>:
 8000da8:	08004491 08004437                       .D..7D..

08000db0 <_UnlinkDevice>:
 8000db0:	6981      	ldr	r1, [r0, #24]
 8000db2:	4a5e      	ldr	r2, [pc, #376]	; (8000f2c <.text_11>)
 8000db4:	f852 3021 	ldr.w	r3, [r2, r1, lsl #2]
 8000db8:	4283      	cmp	r3, r0
 8000dba:	bf04      	itt	eq
 8000dbc:	6803      	ldreq	r3, [r0, #0]
 8000dbe:	f842 3021 	streq.w	r3, [r2, r1, lsl #2]
 8000dc2:	6841      	ldr	r1, [r0, #4]
 8000dc4:	b109      	cbz	r1, 8000dca <_UnlinkDevice+0x1a>
 8000dc6:	6802      	ldr	r2, [r0, #0]
 8000dc8:	600a      	str	r2, [r1, #0]
 8000dca:	6801      	ldr	r1, [r0, #0]
 8000dcc:	b109      	cbz	r1, 8000dd2 <_UnlinkDevice+0x22>
 8000dce:	6842      	ldr	r2, [r0, #4]
 8000dd0:	604a      	str	r2, [r1, #4]
 8000dd2:	2100      	movs	r1, #0
 8000dd4:	6001      	str	r1, [r0, #0]
 8000dd6:	6041      	str	r1, [r0, #4]
 8000dd8:	4770      	bx	lr

08000dda <GUI_DEVICE__GetpDevice>:
 8000dda:	2802      	cmp	r0, #2
 8000ddc:	da0a      	bge.n	8000df4 <GUI_DEVICE__GetpDevice+0x1a>
 8000dde:	4a53      	ldr	r2, [pc, #332]	; (8000f2c <.text_11>)
 8000de0:	f852 0020 	ldr.w	r0, [r2, r0, lsl #2]
 8000de4:	e000      	b.n	8000de8 <GUI_DEVICE__GetpDevice+0xe>
 8000de6:	6800      	ldr	r0, [r0, #0]
 8000de8:	b120      	cbz	r0, 8000df4 <GUI_DEVICE__GetpDevice+0x1a>
 8000dea:	68c2      	ldr	r2, [r0, #12]
 8000dec:	6812      	ldr	r2, [r2, #0]
 8000dee:	428a      	cmp	r2, r1
 8000df0:	d1f9      	bne.n	8000de6 <GUI_DEVICE__GetpDevice+0xc>
 8000df2:	4770      	bx	lr
 8000df4:	2000      	movs	r0, #0
 8000df6:	4770      	bx	lr

08000df8 <GUI_DEVICE__GetpDriver>:
 8000df8:	2802      	cmp	r0, #2
 8000dfa:	db01      	blt.n	8000e00 <GUI_DEVICE__GetpDriver+0x8>
 8000dfc:	2000      	movs	r0, #0
 8000dfe:	4770      	bx	lr
 8000e00:	494a      	ldr	r1, [pc, #296]	; (8000f2c <.text_11>)
 8000e02:	f851 0020 	ldr.w	r0, [r1, r0, lsl #2]
 8000e06:	e000      	b.n	8000e0a <GUI_DEVICE__GetpDriver+0x12>
 8000e08:	6800      	ldr	r0, [r0, #0]
 8000e0a:	2800      	cmp	r0, #0
 8000e0c:	bf1e      	ittt	ne
 8000e0e:	68c1      	ldrne	r1, [r0, #12]
 8000e10:	6809      	ldrne	r1, [r1, #0]
 8000e12:	2900      	cmpne	r1, #0
 8000e14:	d1f8      	bne.n	8000e08 <GUI_DEVICE__GetpDriver+0x10>
 8000e16:	4770      	bx	lr

08000e18 <GUI_DEVICE_Delete>:
 8000e18:	f7ff bc2e 	b.w	8000678 <GUI_ALLOC_FreeFixedBlock>

08000e1c <GUI_DEVICE_Create>:
 8000e1c:	b5f8      	push	{r3, r4, r5, r6, r7, lr}
 8000e1e:	461f      	mov	r7, r3
 8000e20:	4604      	mov	r4, r0
 8000e22:	460d      	mov	r5, r1
 8000e24:	4616      	mov	r6, r2
 8000e26:	2f02      	cmp	r7, #2
 8000e28:	da03      	bge.n	8000e32 <GUI_DEVICE_Create+0x16>
 8000e2a:	201c      	movs	r0, #28
 8000e2c:	f7ff fc2c 	bl	8000688 <GUI_ALLOC_GetFixedBlock>
 8000e30:	b908      	cbnz	r0, 8000e36 <GUI_DEVICE_Create+0x1a>
 8000e32:	2000      	movs	r0, #0
 8000e34:	bdf2      	pop	{r1, r4, r5, r6, r7, pc}
 8000e36:	b10d      	cbz	r5, 8000e3c <GUI_DEVICE_Create+0x20>
 8000e38:	6105      	str	r5, [r0, #16]
 8000e3a:	e00a      	b.n	8000e52 <GUI_DEVICE_Create+0x36>
 8000e3c:	493b      	ldr	r1, [pc, #236]	; (8000f2c <.text_11>)
 8000e3e:	f851 1027 	ldr.w	r1, [r1, r7, lsl #2]
 8000e42:	b131      	cbz	r1, 8000e52 <GUI_DEVICE_Create+0x36>
 8000e44:	e000      	b.n	8000e48 <GUI_DEVICE_Create+0x2c>
 8000e46:	4611      	mov	r1, r2
 8000e48:	680a      	ldr	r2, [r1, #0]
 8000e4a:	2a00      	cmp	r2, #0
 8000e4c:	d1fb      	bne.n	8000e46 <GUI_DEVICE_Create+0x2a>
 8000e4e:	6909      	ldr	r1, [r1, #16]
 8000e50:	6101      	str	r1, [r0, #16]
 8000e52:	6187      	str	r7, [r0, #24]
 8000e54:	8286      	strh	r6, [r0, #20]
 8000e56:	60c4      	str	r4, [r0, #12]
 8000e58:	2100      	movs	r1, #0
 8000e5a:	6001      	str	r1, [r0, #0]
 8000e5c:	6041      	str	r1, [r0, #4]
 8000e5e:	6081      	str	r1, [r0, #8]
 8000e60:	bdf2      	pop	{r1, r4, r5, r6, r7, pc}

08000e62 <GUI_DEVICE_Unlink>:
 8000e62:	e7a5      	b.n	8000db0 <_UnlinkDevice>

08000e64 <GUI_DEVICE_Link>:
 8000e64:	b570      	push	{r4, r5, r6, lr}
 8000e66:	b360      	cbz	r0, 8000ec2 <GUI_DEVICE_Link+0x5e>
 8000e68:	6981      	ldr	r1, [r0, #24]
 8000e6a:	460c      	mov	r4, r1
 8000e6c:	2c02      	cmp	r4, #2
 8000e6e:	da28      	bge.n	8000ec2 <GUI_DEVICE_Link+0x5e>
 8000e70:	4a2e      	ldr	r2, [pc, #184]	; (8000f2c <.text_11>)
 8000e72:	f852 3024 	ldr.w	r3, [r2, r4, lsl #2]
 8000e76:	b91b      	cbnz	r3, 8000e80 <GUI_DEVICE_Link+0x1c>
 8000e78:	f842 0024 	str.w	r0, [r2, r4, lsl #2]
 8000e7c:	e025      	b.n	8000eca <GUI_DEVICE_Link+0x66>
 8000e7e:	4623      	mov	r3, r4
 8000e80:	685c      	ldr	r4, [r3, #4]
 8000e82:	2c00      	cmp	r4, #0
 8000e84:	d1fb      	bne.n	8000e7e <GUI_DEVICE_Link+0x1a>
 8000e86:	b1e3      	cbz	r3, 8000ec2 <GUI_DEVICE_Link+0x5e>
 8000e88:	68dc      	ldr	r4, [r3, #12]
 8000e8a:	68c5      	ldr	r5, [r0, #12]
 8000e8c:	6824      	ldr	r4, [r4, #0]
 8000e8e:	682e      	ldr	r6, [r5, #0]
 8000e90:	42a6      	cmp	r6, r4
 8000e92:	bfb8      	it	lt
 8000e94:	681b      	ldrlt	r3, [r3, #0]
 8000e96:	dbf6      	blt.n	8000e86 <GUI_DEVICE_Link+0x22>
 8000e98:	42b4      	cmp	r4, r6
 8000e9a:	bf04      	itt	eq
 8000e9c:	8a84      	ldrheq	r4, [r0, #20]
 8000e9e:	2c01      	cmpeq	r4, #1
 8000ea0:	d106      	bne.n	8000eb0 <GUI_DEVICE_Link+0x4c>
 8000ea2:	681c      	ldr	r4, [r3, #0]
 8000ea4:	b124      	cbz	r4, 8000eb0 <GUI_DEVICE_Link+0x4c>
 8000ea6:	4623      	mov	r3, r4
 8000ea8:	68dc      	ldr	r4, [r3, #12]
 8000eaa:	6824      	ldr	r4, [r4, #0]
 8000eac:	42b4      	cmp	r4, r6
 8000eae:	daf8      	bge.n	8000ea2 <GUI_DEVICE_Link+0x3e>
 8000eb0:	685c      	ldr	r4, [r3, #4]
 8000eb2:	2c00      	cmp	r4, #0
 8000eb4:	bf1d      	ittte	ne
 8000eb6:	6020      	strne	r0, [r4, #0]
 8000eb8:	6859      	ldrne	r1, [r3, #4]
 8000eba:	6041      	strne	r1, [r0, #4]
 8000ebc:	f842 0021 	streq.w	r0, [r2, r1, lsl #2]
 8000ec0:	e001      	b.n	8000ec6 <GUI_DEVICE_Link+0x62>
 8000ec2:	2001      	movs	r0, #1
 8000ec4:	bd70      	pop	{r4, r5, r6, pc}
 8000ec6:	6058      	str	r0, [r3, #4]
 8000ec8:	6003      	str	r3, [r0, #0]
 8000eca:	2000      	movs	r0, #0
 8000ecc:	bd70      	pop	{r4, r5, r6, pc}

08000ece <GUI_DEVICE_CreateAndLink>:
 8000ece:	b538      	push	{r3, r4, r5, lr}
 8000ed0:	461c      	mov	r4, r3
 8000ed2:	f7ff ffa3 	bl	8000e1c <GUI_DEVICE_Create>
 8000ed6:	0005      	movs	r5, r0
 8000ed8:	bf18      	it	ne
 8000eda:	f7ff ffc3 	blne	8000e64 <GUI_DEVICE_Link>
 8000ede:	68e8      	ldr	r0, [r5, #12]
 8000ee0:	6800      	ldr	r0, [r0, #0]
 8000ee2:	b920      	cbnz	r0, 8000eee <GUI_DEVICE_CreateAndLink+0x20>
 8000ee4:	4812      	ldr	r0, [pc, #72]	; (8000f30 <.text_12>)
 8000ee6:	6800      	ldr	r0, [r0, #0]
 8000ee8:	eb00 0084 	add.w	r0, r0, r4, lsl #2
 8000eec:	6585      	str	r5, [r0, #88]	; 0x58
 8000eee:	4628      	mov	r0, r5
 8000ef0:	bd32      	pop	{r1, r4, r5, pc}

08000ef2 <GUI_DEVICE_UnlinkTaskDevices>:
 8000ef2:	e92d 41f0 	stmdb	sp!, {r4, r5, r6, r7, r8, lr}
 8000ef6:	2400      	movs	r4, #0
 8000ef8:	2500      	movs	r5, #0
 8000efa:	f20f 064c 	addw	r6, pc, #76	; 0x4c
 8000efe:	f8df 802c 	ldr.w	r8, [pc, #44]	; 8000f2c <.text_11>
 8000f02:	f858 7025 	ldr.w	r7, [r8, r5, lsl #2]
 8000f06:	e009      	b.n	8000f1c <GUI_DEVICE_UnlinkTaskDevices+0x2a>
 8000f08:	68f8      	ldr	r0, [r7, #12]
 8000f0a:	6800      	ldr	r0, [r0, #0]
 8000f0c:	5d80      	ldrb	r0, [r0, r6]
 8000f0e:	b120      	cbz	r0, 8000f1a <GUI_DEVICE_UnlinkTaskDevices+0x28>
 8000f10:	4638      	mov	r0, r7
 8000f12:	f7ff ff4d 	bl	8000db0 <_UnlinkDevice>
 8000f16:	603c      	str	r4, [r7, #0]
 8000f18:	463c      	mov	r4, r7
 8000f1a:	683f      	ldr	r7, [r7, #0]
 8000f1c:	2f00      	cmp	r7, #0
 8000f1e:	d1f3      	bne.n	8000f08 <GUI_DEVICE_UnlinkTaskDevices+0x16>
 8000f20:	1c6d      	adds	r5, r5, #1
 8000f22:	2d02      	cmp	r5, #2
 8000f24:	dbed      	blt.n	8000f02 <GUI_DEVICE_UnlinkTaskDevices+0x10>
 8000f26:	4620      	mov	r0, r4
 8000f28:	e8bd 81f0 	ldmia.w	sp!, {r4, r5, r6, r7, r8, pc}

08000f2c <.text_11>:
 8000f2c:	200007fc 	.word	0x200007fc

08000f30 <.text_12>:
 8000f30:	2000000c 	.word	0x2000000c

08000f34 <GUI_DEVICE_LinkDevices>:
 8000f34:	b510      	push	{r4, lr}
 8000f36:	2800      	cmp	r0, #0
 8000f38:	e003      	b.n	8000f42 <GUI_DEVICE_LinkDevices+0xe>
 8000f3a:	6804      	ldr	r4, [r0, #0]
 8000f3c:	f7ff ff92 	bl	8000e64 <GUI_DEVICE_Link>
 8000f40:	0020      	movs	r0, r4
 8000f42:	d1fa      	bne.n	8000f3a <GUI_DEVICE_LinkDevices+0x6>
 8000f44:	bd10      	pop	{r4, pc}
	...

08000f48 <_aBelongsToTask>:
 8000f48:	0000 0000 0101 0101                         ........

08000f50 <GUI__DispStringInRect>:
 8000f50:	e92d 47f9 	stmdb	sp!, {r0, r3, r4, r5, r6, r7, r8, r9, sl, lr}
 8000f54:	b086      	sub	sp, #24
 8000f56:	460d      	mov	r5, r1
 8000f58:	4690      	mov	r8, r2
 8000f5a:	4699      	mov	r9, r3
 8000f5c:	f7ff fd07 	bl	800096e <GUI_GetFontDistY>
 8000f60:	4682      	mov	sl, r0
 8000f62:	9806      	ldr	r0, [sp, #24]
 8000f64:	9004      	str	r0, [sp, #16]
 8000f66:	2700      	movs	r7, #0
 8000f68:	2400      	movs	r4, #0
 8000f6a:	2d00      	cmp	r5, #0
 8000f6c:	a800      	add	r0, sp, #0
 8000f6e:	d004      	beq.n	8000f7a <GUI__DispStringInRect+0x2a>
 8000f70:	4629      	mov	r1, r5
 8000f72:	2208      	movs	r2, #8
 8000f74:	f00a fb8a 	bl	800b68c <__aeabi_memcpy>
 8000f78:	e001      	b.n	8000f7e <GUI__DispStringInRect+0x2e>
 8000f7a:	f000 fa51 	bl	8001420 <GUI_GetClientRect>
 8000f7e:	f018 0f0c 	tst.w	r8, #12
 8000f82:	bf08      	it	eq
 8000f84:	f9bd 4002 	ldrsheq.w	r4, [sp, #2]
 8000f88:	d02f      	beq.n	8000fea <GUI__DispStringInRect+0x9a>
 8000f8a:	464e      	mov	r6, r9
 8000f8c:	2500      	movs	r5, #0
 8000f8e:	b18e      	cbz	r6, 8000fb4 <GUI__DispStringInRect+0x64>
 8000f90:	9806      	ldr	r0, [sp, #24]
 8000f92:	1c6d      	adds	r5, r5, #1
 8000f94:	4631      	mov	r1, r6
 8000f96:	f006 fa4c 	bl	8007432 <GUI__GetLineNumChars>
 8000f9a:	1a36      	subs	r6, r6, r0
 8000f9c:	4601      	mov	r1, r0
 8000f9e:	9806      	ldr	r0, [sp, #24]
 8000fa0:	f000 fc4f 	bl	8001842 <GUI_UC__NumChars2NumBytes>
 8000fa4:	9906      	ldr	r1, [sp, #24]
 8000fa6:	1840      	adds	r0, r0, r1
 8000fa8:	9006      	str	r0, [sp, #24]
 8000faa:	a806      	add	r0, sp, #24
 8000fac:	f006 f892 	bl	80070d4 <GUI__HandleEOLine>
 8000fb0:	2800      	cmp	r0, #0
 8000fb2:	d0ec      	beq.n	8000f8e <GUI__DispStringInRect+0x3e>
 8000fb4:	f008 010c 	and.w	r1, r8, #12
 8000fb8:	fb0a f005 	mul.w	r0, sl, r5
 8000fbc:	2904      	cmp	r1, #4
 8000fbe:	bf18      	it	ne
 8000fc0:	2908      	cmpne	r1, #8
 8000fc2:	d002      	beq.n	8000fca <GUI__DispStringInRect+0x7a>
 8000fc4:	290c      	cmp	r1, #12
 8000fc6:	d005      	beq.n	8000fd4 <GUI__DispStringInRect+0x84>
 8000fc8:	e00f      	b.n	8000fea <GUI__DispStringInRect+0x9a>
 8000fca:	f9bd 1006 	ldrsh.w	r1, [sp, #6]
 8000fce:	1a08      	subs	r0, r1, r0
 8000fd0:	1c44      	adds	r4, r0, #1
 8000fd2:	e00a      	b.n	8000fea <GUI__DispStringInRect+0x9a>
 8000fd4:	f9bd 1002 	ldrsh.w	r1, [sp, #2]
 8000fd8:	f9bd 2006 	ldrsh.w	r2, [sp, #6]
 8000fdc:	1a52      	subs	r2, r2, r1
 8000fde:	1c52      	adds	r2, r2, #1
 8000fe0:	1a10      	subs	r0, r2, r0
 8000fe2:	eb00 70d0 	add.w	r0, r0, r0, lsr #31
 8000fe6:	eb01 0460 	add.w	r4, r1, r0, asr #1
 8000fea:	9804      	ldr	r0, [sp, #16]
 8000fec:	9006      	str	r0, [sp, #24]
 8000fee:	f1b9 0f00 	cmp.w	r9, #0
 8000ff2:	d049      	beq.n	8001088 <GUI__DispStringInRect+0x138>
 8000ff4:	9806      	ldr	r0, [sp, #24]
 8000ff6:	4649      	mov	r1, r9
 8000ff8:	f006 fa1b 	bl	8007432 <GUI__GetLineNumChars>
 8000ffc:	4605      	mov	r5, r0
 8000ffe:	9806      	ldr	r0, [sp, #24]
 8001000:	eba9 0905 	sub.w	r9, r9, r5
 8001004:	4629      	mov	r1, r5
 8001006:	f006 fa3d 	bl	8007484 <GUI__GetLineDistX>
 800100a:	f018 0103 	ands.w	r1, r8, #3
 800100e:	d012      	beq.n	8001036 <GUI__DispStringInRect+0xe6>
 8001010:	2902      	cmp	r1, #2
 8001012:	d005      	beq.n	8001020 <GUI__DispStringInRect+0xd0>
 8001014:	bf3e      	ittt	cc
 8001016:	f9bd 1004 	ldrshcc.w	r1, [sp, #4]
 800101a:	1a09      	subcc	r1, r1, r0
 800101c:	1c4f      	addcc	r7, r1, #1
 800101e:	e00c      	b.n	800103a <GUI__DispStringInRect+0xea>
 8001020:	f9bd 1000 	ldrsh.w	r1, [sp]
 8001024:	f9bd 2004 	ldrsh.w	r2, [sp, #4]
 8001028:	1a52      	subs	r2, r2, r1
 800102a:	1a12      	subs	r2, r2, r0
 800102c:	eb02 72d2 	add.w	r2, r2, r2, lsr #31
 8001030:	eb01 0762 	add.w	r7, r1, r2, asr #1
 8001034:	e001      	b.n	800103a <GUI__DispStringInRect+0xea>
 8001036:	f9bd 7000 	ldrsh.w	r7, [sp]
 800103a:	4915      	ldr	r1, [pc, #84]	; (8001090 <.text_3>)
 800103c:	6809      	ldr	r1, [r1, #0]
 800103e:	844f      	strh	r7, [r1, #34]	; 0x22
 8001040:	848c      	strh	r4, [r1, #36]	; 0x24
 8001042:	f8ad 7008 	strh.w	r7, [sp, #8]
 8001046:	f8ad 400a 	strh.w	r4, [sp, #10]
 800104a:	aa02      	add	r2, sp, #8
 800104c:	f8bd 1008 	ldrh.w	r1, [sp, #8]
 8001050:	1840      	adds	r0, r0, r1
 8001052:	1e40      	subs	r0, r0, #1
 8001054:	f8ad 000c 	strh.w	r0, [sp, #12]
 8001058:	4629      	mov	r1, r5
 800105a:	eb0a 0004 	add.w	r0, sl, r4
 800105e:	1e40      	subs	r0, r0, #1
 8001060:	f8ad 000e 	strh.w	r0, [sp, #14]
 8001064:	9806      	ldr	r0, [sp, #24]
 8001066:	f006 fa34 	bl	80074d2 <GUI__DispLine>
 800106a:	9806      	ldr	r0, [sp, #24]
 800106c:	4629      	mov	r1, r5
 800106e:	f000 fbe8 	bl	8001842 <GUI_UC__NumChars2NumBytes>
 8001072:	9906      	ldr	r1, [sp, #24]
 8001074:	1840      	adds	r0, r0, r1
 8001076:	9006      	str	r0, [sp, #24]
 8001078:	f7ff fc79 	bl	800096e <GUI_GetFontDistY>
 800107c:	1904      	adds	r4, r0, r4
 800107e:	a806      	add	r0, sp, #24
 8001080:	f006 f828 	bl	80070d4 <GUI__HandleEOLine>
 8001084:	2800      	cmp	r0, #0
 8001086:	d0b2      	beq.n	8000fee <GUI__DispStringInRect+0x9e>
 8001088:	b008      	add	sp, #32
 800108a:	e8bd 87f0 	ldmia.w	sp!, {r4, r5, r6, r7, r8, r9, sl, pc}
	...

08001090 <.text_3>:
 8001090:	2000000c 	.word	0x2000000c

08001094 <GUI_DispStringInRectMax>:
 8001094:	e92d 41fc 	stmdb	sp!, {r2, r3, r4, r5, r6, r7, r8, lr}
 8001098:	4604      	mov	r4, r0
 800109a:	460d      	mov	r5, r1
 800109c:	4616      	mov	r6, r2
 800109e:	4698      	mov	r8, r3
 80010a0:	2700      	movs	r7, #0
 80010a2:	b1b4      	cbz	r4, 80010d2 <GUI_DispStringInRectMax+0x3e>
 80010a4:	b165      	cbz	r5, 80010c0 <GUI_DispStringInRectMax+0x2c>
 80010a6:	4628      	mov	r0, r5
 80010a8:	f005 fb9c 	bl	80067e4 <WM_SetUserClipRect>
 80010ac:	0007      	movs	r7, r0
 80010ae:	d007      	beq.n	80010c0 <GUI_DispStringInRectMax+0x2c>
 80010b0:	463a      	mov	r2, r7
 80010b2:	4629      	mov	r1, r5
 80010b4:	a800      	add	r0, sp, #0
 80010b6:	f006 f838 	bl	800712a <GUI__IntersectRects>
 80010ba:	a800      	add	r0, sp, #0
 80010bc:	f005 fb92 	bl	80067e4 <WM_SetUserClipRect>
 80010c0:	4643      	mov	r3, r8
 80010c2:	4632      	mov	r2, r6
 80010c4:	4629      	mov	r1, r5
 80010c6:	4620      	mov	r0, r4
 80010c8:	f7ff ff42 	bl	8000f50 <GUI__DispStringInRect>
 80010cc:	4638      	mov	r0, r7
 80010ce:	f005 fb89 	bl	80067e4 <WM_SetUserClipRect>
 80010d2:	e8bd 81f3 	ldmia.w	sp!, {r0, r1, r4, r5, r6, r7, r8, pc}

080010d6 <GUI_DispStringInRect>:
 80010d6:	f647 73ff 	movw	r3, #32767	; 0x7fff
 80010da:	e7db      	b.n	8001094 <GUI_DispStringInRectMax>

080010dc <GUI_WrapGetNumLines>:
 80010dc:	b5f8      	push	{r3, r4, r5, r6, r7, lr}
 80010de:	4604      	mov	r4, r0
 80010e0:	460d      	mov	r5, r1
 80010e2:	4616      	mov	r6, r2
 80010e4:	2700      	movs	r7, #0
 80010e6:	e000      	b.n	80010ea <GUI_WrapGetNumLines+0xe>
 80010e8:	1c7f      	adds	r7, r7, #1
 80010ea:	4632      	mov	r2, r6
 80010ec:	4629      	mov	r1, r5
 80010ee:	4620      	mov	r0, r4
 80010f0:	f006 f961 	bl	80073b6 <GUI__WrapGetNumBytesToNextLine>
 80010f4:	1904      	adds	r4, r0, r4
 80010f6:	2800      	cmp	r0, #0
 80010f8:	d1f6      	bne.n	80010e8 <GUI_WrapGetNumLines+0xc>
 80010fa:	4638      	mov	r0, r7
 80010fc:	bdf2      	pop	{r1, r4, r5, r6, r7, pc}

080010fe <GUI_DispStringInRectWrap>:
 80010fe:	e92d 4ff4 	stmdb	sp!, {r2, r4, r5, r6, r7, r8, r9, sl, fp, lr}
 8001102:	b084      	sub	sp, #16
 8001104:	0004      	movs	r4, r0
 8001106:	460d      	mov	r5, r1
 8001108:	469b      	mov	fp, r3
 800110a:	d079      	beq.n	8001200 <GUI_DispStringInRectWrap+0x102>
 800110c:	f9b5 0000 	ldrsh.w	r0, [r5]
 8001110:	f8ad 0002 	strh.w	r0, [sp, #2]
 8001114:	f9b5 6002 	ldrsh.w	r6, [r5, #2]
 8001118:	f9b5 0004 	ldrsh.w	r0, [r5, #4]
 800111c:	f9bd 1002 	ldrsh.w	r1, [sp, #2]
 8001120:	f8ad 0000 	strh.w	r0, [sp]
 8001124:	1a40      	subs	r0, r0, r1
 8001126:	f9b5 9006 	ldrsh.w	r9, [r5, #6]
 800112a:	1c47      	adds	r7, r0, #1
 800112c:	f7ff fc1f 	bl	800096e <GUI_GetFontDistY>
 8001130:	4680      	mov	r8, r0
 8001132:	9804      	ldr	r0, [sp, #16]
 8001134:	f010 0f0c 	tst.w	r0, #12
 8001138:	d01b      	beq.n	8001172 <GUI_DispStringInRectWrap+0x74>
 800113a:	465a      	mov	r2, fp
 800113c:	4639      	mov	r1, r7
 800113e:	4620      	mov	r0, r4
 8001140:	f7ff ffcc 	bl	80010dc <GUI_WrapGetNumLines>
 8001144:	9904      	ldr	r1, [sp, #16]
 8001146:	f001 010c 	and.w	r1, r1, #12
 800114a:	2904      	cmp	r1, #4
 800114c:	bf18      	it	ne
 800114e:	2908      	cmpne	r1, #8
 8001150:	d002      	beq.n	8001158 <GUI_DispStringInRectWrap+0x5a>
 8001152:	290c      	cmp	r1, #12
 8001154:	d004      	beq.n	8001160 <GUI_DispStringInRectWrap+0x62>
 8001156:	e00c      	b.n	8001172 <GUI_DispStringInRectWrap+0x74>
 8001158:	fb08 9010 	mls	r0, r8, r0, r9
 800115c:	1c46      	adds	r6, r0, #1
 800115e:	e008      	b.n	8001172 <GUI_DispStringInRectWrap+0x74>
 8001160:	eba9 0106 	sub.w	r1, r9, r6
 8001164:	1c49      	adds	r1, r1, #1
 8001166:	fb08 1010 	mls	r0, r8, r0, r1
 800116a:	eb00 70d0 	add.w	r0, r0, r0, lsr #31
 800116e:	eb06 0660 	add.w	r6, r6, r0, asr #1
 8001172:	4628      	mov	r0, r5
 8001174:	f000 fafd 	bl	8001772 <GUI_SetClipRect>
 8001178:	4681      	mov	r9, r0
 800117a:	465a      	mov	r2, fp
 800117c:	4639      	mov	r1, r7
 800117e:	4620      	mov	r0, r4
 8001180:	f006 f8ea 	bl	8007358 <GUI__WrapGetNumCharsDisp>
 8001184:	4682      	mov	sl, r0
 8001186:	f8bd 0002 	ldrh.w	r0, [sp, #2]
 800118a:	f8ad 0004 	strh.w	r0, [sp, #4]
 800118e:	f8ad 6006 	strh.w	r6, [sp, #6]
 8001192:	4446      	add	r6, r8
 8001194:	f8bd 0000 	ldrh.w	r0, [sp]
 8001198:	f8ad 0008 	strh.w	r0, [sp, #8]
 800119c:	4651      	mov	r1, sl
 800119e:	1e70      	subs	r0, r6, #1
 80011a0:	f8ad 000a 	strh.w	r0, [sp, #10]
 80011a4:	4620      	mov	r0, r4
 80011a6:	f006 f96d 	bl	8007484 <GUI__GetLineDistX>
 80011aa:	9904      	ldr	r1, [sp, #16]
 80011ac:	f011 0103 	ands.w	r1, r1, #3
 80011b0:	d00e      	beq.n	80011d0 <GUI_DispStringInRectWrap+0xd2>
 80011b2:	2902      	cmp	r1, #2
 80011b4:	d001      	beq.n	80011ba <GUI_DispStringInRectWrap+0xbc>
 80011b6:	d30d      	bcc.n	80011d4 <GUI_DispStringInRectWrap+0xd6>
 80011b8:	e011      	b.n	80011de <GUI_DispStringInRectWrap+0xe0>
 80011ba:	f9b5 1000 	ldrsh.w	r1, [r5]
 80011be:	f9b5 2004 	ldrsh.w	r2, [r5, #4]
 80011c2:	1a52      	subs	r2, r2, r1
 80011c4:	1a10      	subs	r0, r2, r0
 80011c6:	eb00 70d0 	add.w	r0, r0, r0, lsr #31
 80011ca:	eb01 0060 	add.w	r0, r1, r0, asr #1
 80011ce:	e004      	b.n	80011da <GUI_DispStringInRectWrap+0xdc>
 80011d0:	8828      	ldrh	r0, [r5, #0]
 80011d2:	e002      	b.n	80011da <GUI_DispStringInRectWrap+0xdc>
 80011d4:	88a9      	ldrh	r1, [r5, #4]
 80011d6:	1a08      	subs	r0, r1, r0
 80011d8:	1c40      	adds	r0, r0, #1
 80011da:	f8ad 0004 	strh.w	r0, [sp, #4]
 80011de:	aa01      	add	r2, sp, #4
 80011e0:	4651      	mov	r1, sl
 80011e2:	4620      	mov	r0, r4
 80011e4:	f006 f975 	bl	80074d2 <GUI__DispLine>
 80011e8:	465a      	mov	r2, fp
 80011ea:	4639      	mov	r1, r7
 80011ec:	4620      	mov	r0, r4
 80011ee:	f006 f8e2 	bl	80073b6 <GUI__WrapGetNumBytesToNextLine>
 80011f2:	1904      	adds	r4, r0, r4
 80011f4:	7820      	ldrb	r0, [r4, #0]
 80011f6:	2800      	cmp	r0, #0
 80011f8:	d1bf      	bne.n	800117a <GUI_DispStringInRectWrap+0x7c>
 80011fa:	4648      	mov	r0, r9
 80011fc:	f000 fab9 	bl	8001772 <GUI_SetClipRect>
 8001200:	b005      	add	sp, #20
 8001202:	e8bd 8ff0 	ldmia.w	sp!, {r4, r5, r6, r7, r8, r9, sl, fp, pc}
	...

08001208 <GL_DrawBitmap>:
 8001208:	e92d 41f0 	stmdb	sp!, {r4, r5, r6, r7, r8, lr}
 800120c:	4604      	mov	r4, r0
 800120e:	b086      	sub	sp, #24
 8001210:	68e7      	ldr	r7, [r4, #12]
 8001212:	460d      	mov	r5, r1
 8001214:	4616      	mov	r6, r2
 8001216:	2000      	movs	r0, #0
 8001218:	f000 fab1 	bl	800177e <GUI_SetDrawMode>
 800121c:	4680      	mov	r8, r0
 800121e:	2f00      	cmp	r7, #0
 8001220:	bf1d      	ittte	ne
 8001222:	7938      	ldrbne	r0, [r7, #4]
 8001224:	2800      	cmpne	r0, #0
 8001226:	f048 0002 	orrne.w	r0, r8, #2
 800122a:	f028 0002 	biceq.w	r0, r8, #2
 800122e:	f000 faa6 	bl	800177e <GUI_SetDrawMode>
 8001232:	6927      	ldr	r7, [r4, #16]
 8001234:	68e0      	ldr	r0, [r4, #12]
 8001236:	2f00      	cmp	r7, #0
 8001238:	d00c      	beq.n	8001254 <GL_DrawBitmap+0x4c>
 800123a:	2101      	movs	r1, #1
 800123c:	9001      	str	r0, [sp, #4]
 800123e:	9103      	str	r1, [sp, #12]
 8001240:	9102      	str	r1, [sp, #8]
 8001242:	4631      	mov	r1, r6
 8001244:	68a0      	ldr	r0, [r4, #8]
 8001246:	9000      	str	r0, [sp, #0]
 8001248:	8863      	ldrh	r3, [r4, #2]
 800124a:	8822      	ldrh	r2, [r4, #0]
 800124c:	683c      	ldr	r4, [r7, #0]
 800124e:	4628      	mov	r0, r5
 8001250:	47a0      	blx	r4
 8001252:	e01b      	b.n	800128c <GL_DrawBitmap+0x84>
 8001254:	4f25      	ldr	r7, [pc, #148]	; (80012ec <.text_4>)
 8001256:	4b26      	ldr	r3, [pc, #152]	; (80012f0 <.text_5>)
 8001258:	6839      	ldr	r1, [r7, #0]
 800125a:	7c4a      	ldrb	r2, [r1, #17]
 800125c:	681b      	ldr	r3, [r3, #0]
 800125e:	4621      	mov	r1, r4
 8001260:	4798      	blx	r3
 8001262:	88e1      	ldrh	r1, [r4, #6]
 8001264:	2800      	cmp	r0, #0
 8001266:	bf02      	ittt	eq
 8001268:	2901      	cmpeq	r1, #1
 800126a:	6838      	ldreq	r0, [r7, #0]
 800126c:	6b80      	ldreq	r0, [r0, #56]	; 0x38
 800126e:	9005      	str	r0, [sp, #20]
 8001270:	68a0      	ldr	r0, [r4, #8]
 8001272:	9004      	str	r0, [sp, #16]
 8001274:	88a0      	ldrh	r0, [r4, #4]
 8001276:	9003      	str	r0, [sp, #12]
 8001278:	9102      	str	r1, [sp, #8]
 800127a:	2001      	movs	r0, #1
 800127c:	9001      	str	r0, [sp, #4]
 800127e:	9000      	str	r0, [sp, #0]
 8001280:	8863      	ldrh	r3, [r4, #2]
 8001282:	8822      	ldrh	r2, [r4, #0]
 8001284:	4631      	mov	r1, r6
 8001286:	4628      	mov	r0, r5
 8001288:	f003 fa19 	bl	80046be <LCD_DrawBitmap>
 800128c:	4640      	mov	r0, r8
 800128e:	b006      	add	sp, #24
 8001290:	e8bd 41f0 	ldmia.w	sp!, {r4, r5, r6, r7, r8, lr}
 8001294:	f000 ba73 	b.w	800177e <GUI_SetDrawMode>

08001298 <GUI_DrawBitmap>:
 8001298:	b57c      	push	{r2, r3, r4, r5, r6, lr}
 800129a:	4604      	mov	r4, r0
 800129c:	4813      	ldr	r0, [pc, #76]	; (80012ec <.text_4>)
 800129e:	6800      	ldr	r0, [r0, #0]
 80012a0:	6cc3      	ldr	r3, [r0, #76]	; 0x4c
 80012a2:	6d00      	ldr	r0, [r0, #80]	; 0x50
 80012a4:	185d      	adds	r5, r3, r1
 80012a6:	1886      	adds	r6, r0, r2
 80012a8:	f8ad 5000 	strh.w	r5, [sp]
 80012ac:	f8bd 0000 	ldrh.w	r0, [sp]
 80012b0:	f9b4 1000 	ldrsh.w	r1, [r4]
 80012b4:	f8ad 6002 	strh.w	r6, [sp, #2]
 80012b8:	1808      	adds	r0, r1, r0
 80012ba:	1e40      	subs	r0, r0, #1
 80012bc:	f8ad 0004 	strh.w	r0, [sp, #4]
 80012c0:	f9b4 1002 	ldrsh.w	r1, [r4, #2]
 80012c4:	f8bd 0002 	ldrh.w	r0, [sp, #2]
 80012c8:	1808      	adds	r0, r1, r0
 80012ca:	1e40      	subs	r0, r0, #1
 80012cc:	f8ad 0006 	strh.w	r0, [sp, #6]
 80012d0:	a800      	add	r0, sp, #0
 80012d2:	f004 fc9a 	bl	8005c0a <WM__InitIVRSearch>
 80012d6:	b140      	cbz	r0, 80012ea <GUI_DrawBitmap+0x52>
 80012d8:	4632      	mov	r2, r6
 80012da:	4629      	mov	r1, r5
 80012dc:	4620      	mov	r0, r4
 80012de:	f7ff ff93 	bl	8001208 <GL_DrawBitmap>
 80012e2:	f004 fc77 	bl	8005bd4 <WM__GetNextIVR>
 80012e6:	2800      	cmp	r0, #0
 80012e8:	d1f6      	bne.n	80012d8 <GUI_DrawBitmap+0x40>
 80012ea:	bd73      	pop	{r0, r1, r4, r5, r6, pc}

080012ec <.text_4>:
 80012ec:	2000000c 	.word	0x2000000c

080012f0 <.text_5>:
 80012f0:	20000010 	.word	0x20000010

080012f4 <GUIPROP_EXT__ClearLine>:
 80012f4:	e92d 4ff1 	stmdb	sp!, {r0, r4, r5, r6, r7, r8, r9, sl, fp, lr}
 80012f8:	460c      	mov	r4, r1
 80012fa:	2500      	movs	r5, #0
 80012fc:	f000 f89d 	bl	800143a <GUI_GetColor>
 8001300:	4f37      	ldr	r7, [pc, #220]	; (80013e0 <.text_6>)
 8001302:	4606      	mov	r6, r0
 8001304:	6838      	ldr	r0, [r7, #0]
 8001306:	f890 002a 	ldrb.w	r0, [r0, #42]	; 0x2a
 800130a:	0740      	lsls	r0, r0, #29
 800130c:	d502      	bpl.n	8001314 <GUIPROP_EXT__ClearLine+0x20>
 800130e:	f000 f894 	bl	800143a <GUI_GetColor>
 8001312:	e001      	b.n	8001318 <GUIPROP_EXT__ClearLine+0x24>
 8001314:	f000 f88b 	bl	800142e <GUI_GetBkColor>
 8001318:	f000 fa2f 	bl	800177a <GUI_SetColor>
 800131c:	6838      	ldr	r0, [r7, #0]
 800131e:	69c1      	ldr	r1, [r0, #28]
 8001320:	7e4a      	ldrb	r2, [r1, #25]
 8001322:	7ec9      	ldrb	r1, [r1, #27]
 8001324:	f9b0 a022 	ldrsh.w	sl, [r0, #34]	; 0x22
 8001328:	f9b0 b024 	ldrsh.w	fp, [r0, #36]	; 0x24
 800132c:	46a8      	mov	r8, r5
 800132e:	fb11 f902 	smulbb	r9, r1, r2
 8001332:	e01c      	b.n	800136e <GUIPROP_EXT__ClearLine+0x7a>
 8001334:	a800      	add	r0, sp, #0
 8001336:	f000 fa73 	bl	8001820 <GUI_UC__GetCharCodeInc>
 800133a:	4605      	mov	r5, r0
 800133c:	6838      	ldr	r0, [r7, #0]
 800133e:	69c0      	ldr	r0, [r0, #28]
 8001340:	69c0      	ldr	r0, [r0, #28]
 8001342:	4629      	mov	r1, r5
 8001344:	f7ff fbbe 	bl	8000ac4 <GUIPROP_EXT__FindChar>
 8001348:	b188      	cbz	r0, 800136e <GUIPROP_EXT__ClearLine+0x7a>
 800134a:	8801      	ldrh	r1, [r0, #0]
 800134c:	6840      	ldr	r0, [r0, #4]
 800134e:	1a69      	subs	r1, r5, r1
 8001350:	220c      	movs	r2, #12
 8001352:	fb02 0001 	mla	r0, r2, r1, r0
 8001356:	f990 1002 	ldrsb.w	r1, [r0, #2]
 800135a:	7900      	ldrb	r0, [r0, #4]
 800135c:	fa40 f081 	sxtab	r0, r0, r1
 8001360:	6839      	ldr	r1, [r7, #0]
 8001362:	69c9      	ldr	r1, [r1, #28]
 8001364:	7e89      	ldrb	r1, [r1, #26]
 8001366:	4348      	muls	r0, r1
 8001368:	2801      	cmp	r0, #1
 800136a:	bfa8      	it	ge
 800136c:	4480      	addge	r8, r0
 800136e:	1e64      	subs	r4, r4, #1
 8001370:	d5e0      	bpl.n	8001334 <GUIPROP_EXT__ClearLine+0x40>
 8001372:	b11d      	cbz	r5, 800137c <GUIPROP_EXT__ClearLine+0x88>
 8001374:	4628      	mov	r0, r5
 8001376:	f006 f877 	bl	8007468 <GUI__GetOverlap>
 800137a:	4480      	add	r8, r0
 800137c:	eb09 000b 	add.w	r0, r9, fp
 8001380:	1e43      	subs	r3, r0, #1
 8001382:	eb08 000a 	add.w	r0, r8, sl
 8001386:	1e42      	subs	r2, r0, #1
 8001388:	4659      	mov	r1, fp
 800138a:	4650      	mov	r0, sl
 800138c:	f003 f8c5 	bl	800451a <LCD_FillRect>
 8001390:	4630      	mov	r0, r6
 8001392:	f000 f9f2 	bl	800177a <GUI_SetColor>
 8001396:	4813      	ldr	r0, [pc, #76]	; (80013e4 <.text_7>)
 8001398:	2101      	movs	r1, #1
 800139a:	7001      	strb	r1, [r0, #0]
 800139c:	e8bd 8ff1 	ldmia.w	sp!, {r0, r4, r5, r6, r7, r8, r9, sl, fp, pc}

080013a0 <GUIPROP_EXT__DispLine>:
 80013a0:	b5f1      	push	{r0, r4, r5, r6, r7, lr}
 80013a2:	4d0f      	ldr	r5, [pc, #60]	; (80013e0 <.text_6>)
 80013a4:	4e0f      	ldr	r6, [pc, #60]	; (80013e4 <.text_7>)
 80013a6:	6828      	ldr	r0, [r5, #0]
 80013a8:	f9b0 702a 	ldrsh.w	r7, [r0, #42]	; 0x2a
 80013ac:	2003      	movs	r0, #3
 80013ae:	460c      	mov	r4, r1
 80013b0:	4207      	tst	r7, r0
 80013b2:	d10a      	bne.n	80013ca <GUIPROP_EXT__DispLine+0x2a>
 80013b4:	9800      	ldr	r0, [sp, #0]
 80013b6:	6872      	ldr	r2, [r6, #4]
 80013b8:	4790      	blx	r2
 80013ba:	e006      	b.n	80013ca <GUIPROP_EXT__DispLine+0x2a>
 80013bc:	a800      	add	r0, sp, #0
 80013be:	f000 fa2f 	bl	8001820 <GUI_UC__GetCharCodeInc>
 80013c2:	6829      	ldr	r1, [r5, #0]
 80013c4:	69c9      	ldr	r1, [r1, #28]
 80013c6:	6809      	ldr	r1, [r1, #0]
 80013c8:	4788      	blx	r1
 80013ca:	1e64      	subs	r4, r4, #1
 80013cc:	d5f6      	bpl.n	80013bc <GUIPROP_EXT__DispLine+0x1c>
 80013ce:	2000      	movs	r0, #0
 80013d0:	7030      	strb	r0, [r6, #0]
 80013d2:	6828      	ldr	r0, [r5, #0]
 80013d4:	8547      	strh	r7, [r0, #42]	; 0x2a
 80013d6:	bdf1      	pop	{r0, r4, r5, r6, r7, pc}

080013d8 <GUIPROP_EXT__SetfpClearLine>:
 80013d8:	4902      	ldr	r1, [pc, #8]	; (80013e4 <.text_7>)
 80013da:	6048      	str	r0, [r1, #4]
 80013dc:	4770      	bx	lr
	...

080013e0 <.text_6>:
 80013e0:	2000000c 	.word	0x2000000c

080013e4 <.text_7>:
 80013e4:	20000014 	.word	0x20000014

080013e8 <GUI_Exec1>:
 80013e8:	b510      	push	{r4, lr}
 80013ea:	4807      	ldr	r0, [pc, #28]	; (8001408 <.text_3>)
 80013ec:	6800      	ldr	r0, [r0, #0]
 80013ee:	2400      	movs	r4, #0
 80013f0:	0001      	movs	r1, r0
 80013f2:	d002      	beq.n	80013fa <GUI_Exec1+0x12>
 80013f4:	4780      	blx	r0
 80013f6:	b100      	cbz	r0, 80013fa <GUI_Exec1+0x12>
 80013f8:	2401      	movs	r4, #1
 80013fa:	f004 fe11 	bl	8006020 <WM_Exec>
 80013fe:	b100      	cbz	r0, 8001402 <GUI_Exec1+0x1a>
 8001400:	2401      	movs	r4, #1
 8001402:	4620      	mov	r0, r4
 8001404:	bd10      	pop	{r4, pc}
	...

08001408 <.text_3>:
 8001408:	20000770 	.word	0x20000770

0800140c <GUI_Exec>:
 800140c:	b510      	push	{r4, lr}
 800140e:	2400      	movs	r4, #0
 8001410:	e000      	b.n	8001414 <GUI_Exec+0x8>
 8001412:	2401      	movs	r4, #1
 8001414:	f7ff ffe8 	bl	80013e8 <GUI_Exec1>
 8001418:	2800      	cmp	r0, #0
 800141a:	d1fa      	bne.n	8001412 <GUI_Exec+0x6>
 800141c:	4620      	mov	r0, r4
 800141e:	bd10      	pop	{r4, pc}

08001420 <GUI_GetClientRect>:
 8001420:	2800      	cmp	r0, #0
 8001422:	bf18      	it	ne
 8001424:	f005 b84a 	bne.w	80064bc <WM_GetClientRect>
 8001428:	4770      	bx	lr

0800142a <GUI_GetBkColorIndex>:
 800142a:	f003 bc39 	b.w	8004ca0 <LCD_GetBkColorIndex>

0800142e <GUI_GetBkColor>:
 800142e:	b580      	push	{r7, lr}
 8001430:	f003 fc36 	bl	8004ca0 <LCD_GetBkColorIndex>
 8001434:	e004      	b.n	8001440 <.text_6>

08001436 <GUI_GetColorIndex>:
 8001436:	f003 bc38 	b.w	8004caa <LCD_GetColorIndex>

0800143a <GUI_GetColor>:
 800143a:	b580      	push	{r7, lr}
 800143c:	f003 fc35 	bl	8004caa <LCD_GetColorIndex>

08001440 <.text_6>:
 8001440:	e8bd 4002 	ldmia.w	sp!, {r1, lr}
 8001444:	f003 ba8e 	b.w	8004964 <LCD_Index2Color>

08001448 <GUI_GetDrawMode>:
 8001448:	4801      	ldr	r0, [pc, #4]	; (8001450 <GUI_GetDrawMode+0x8>)
 800144a:	6800      	ldr	r0, [r0, #0]
 800144c:	7c00      	ldrb	r0, [r0, #16]
 800144e:	4770      	bx	lr
 8001450:	2000000c 	.word	0x2000000c

08001454 <_GotoY>:
 8001454:	4904      	ldr	r1, [pc, #16]	; (8001468 <.text_4>)
 8001456:	6809      	ldr	r1, [r1, #0]
 8001458:	8488      	strh	r0, [r1, #36]	; 0x24
 800145a:	2000      	movs	r0, #0
 800145c:	4770      	bx	lr

0800145e <_GotoX>:
 800145e:	4902      	ldr	r1, [pc, #8]	; (8001468 <.text_4>)
 8001460:	6809      	ldr	r1, [r1, #0]
 8001462:	8448      	strh	r0, [r1, #34]	; 0x22
 8001464:	2000      	movs	r0, #0
 8001466:	4770      	bx	lr

08001468 <.text_4>:
 8001468:	2000000c 	.word	0x2000000c

0800146c <GUI_GotoY>:
 800146c:	e7f2      	b.n	8001454 <_GotoY>

0800146e <GUI_GotoX>:
 800146e:	e7f6      	b.n	800145e <_GotoX>

08001470 <GUI_GotoXY>:
 8001470:	b538      	push	{r3, r4, r5, lr}
 8001472:	460c      	mov	r4, r1
 8001474:	f7ff fff3 	bl	800145e <_GotoX>
 8001478:	4605      	mov	r5, r0
 800147a:	4620      	mov	r0, r4
 800147c:	f7ff ffea 	bl	8001454 <_GotoY>
 8001480:	4328      	orrs	r0, r5
 8001482:	bd32      	pop	{r1, r4, r5, pc}

08001484 <GUI_MoveRect>:
 8001484:	b158      	cbz	r0, 800149e <GUI_MoveRect+0x1a>
 8001486:	8803      	ldrh	r3, [r0, #0]
 8001488:	18cb      	adds	r3, r1, r3
 800148a:	8003      	strh	r3, [r0, #0]
 800148c:	8883      	ldrh	r3, [r0, #4]
 800148e:	18c9      	adds	r1, r1, r3
 8001490:	8081      	strh	r1, [r0, #4]
 8001492:	8841      	ldrh	r1, [r0, #2]
 8001494:	1851      	adds	r1, r2, r1
 8001496:	8041      	strh	r1, [r0, #2]
 8001498:	88c1      	ldrh	r1, [r0, #6]
 800149a:	1851      	adds	r1, r2, r1
 800149c:	80c1      	strh	r1, [r0, #6]
 800149e:	4770      	bx	lr

080014a0 <_GetIndex>:
 80014a0:	4952      	ldr	r1, [pc, #328]	; (80015ec <.text_16>)
 80014a2:	6809      	ldr	r1, [r1, #0]
 80014a4:	b101      	cbz	r1, 80014a8 <_GetIndex+0x8>
 80014a6:	2000      	movs	r0, #0
 80014a8:	4770      	bx	lr

080014aa <GUI_MULTIBUF_BeginEx>:
 80014aa:	b570      	push	{r4, r5, r6, lr}
 80014ac:	b082      	sub	sp, #8
 80014ae:	4605      	mov	r5, r0
 80014b0:	f7ff fff6 	bl	80014a0 <_GetIndex>
 80014b4:	494e      	ldr	r1, [pc, #312]	; (80015f0 <.text_17>)
 80014b6:	eb01 0280 	add.w	r2, r1, r0, lsl #2
 80014ba:	6a13      	ldr	r3, [r2, #32]
 80014bc:	2b02      	cmp	r3, #2
 80014be:	db32      	blt.n	8001526 <GUI_MULTIBUF_BeginEx+0x7c>
 80014c0:	6913      	ldr	r3, [r2, #16]
 80014c2:	1c5c      	adds	r4, r3, #1
 80014c4:	6114      	str	r4, [r2, #16]
 80014c6:	bb73      	cbnz	r3, 8001526 <GUI_MULTIBUF_BeginEx+0x7c>
 80014c8:	6894      	ldr	r4, [r2, #8]
 80014ca:	f101 0308 	add.w	r3, r1, #8
 80014ce:	f101 0608 	add.w	r6, r1, #8
 80014d2:	f853 3020 	ldr.w	r3, [r3, r0, lsl #2]
 80014d6:	1c5b      	adds	r3, r3, #1
 80014d8:	f846 3020 	str.w	r3, [r6, r0, lsl #2]
 80014dc:	f101 0620 	add.w	r6, r1, #32
 80014e0:	f856 6020 	ldr.w	r6, [r6, r0, lsl #2]
 80014e4:	42b3      	cmp	r3, r6
 80014e6:	d104      	bne.n	80014f2 <GUI_MULTIBUF_BeginEx+0x48>
 80014e8:	f101 0308 	add.w	r3, r1, #8
 80014ec:	2600      	movs	r6, #0
 80014ee:	f843 6020 	str.w	r6, [r3, r0, lsl #2]
 80014f2:	f101 0308 	add.w	r3, r1, #8
 80014f6:	f851 6020 	ldr.w	r6, [r1, r0, lsl #2]
 80014fa:	f853 3020 	ldr.w	r3, [r3, r0, lsl #2]
 80014fe:	42b3      	cmp	r3, r6
 8001500:	d0e3      	beq.n	80014ca <GUI_MULTIBUF_BeginEx+0x20>
 8001502:	461e      	mov	r6, r3
 8001504:	4628      	mov	r0, r5
 8001506:	f7ff fc77 	bl	8000df8 <GUI_DEVICE__GetpDriver>
 800150a:	9000      	str	r0, [sp, #0]
 800150c:	b158      	cbz	r0, 8001526 <GUI_MULTIBUF_BeginEx+0x7c>
 800150e:	9a00      	ldr	r2, [sp, #0]
 8001510:	68d2      	ldr	r2, [r2, #12]
 8001512:	6a52      	ldr	r2, [r2, #36]	; 0x24
 8001514:	2121      	movs	r1, #33	; 0x21
 8001516:	a800      	add	r0, sp, #0
 8001518:	4790      	blx	r2
 800151a:	0003      	movs	r3, r0
 800151c:	d003      	beq.n	8001526 <GUI_MULTIBUF_BeginEx+0x7c>
 800151e:	9800      	ldr	r0, [sp, #0]
 8001520:	4632      	mov	r2, r6
 8001522:	4621      	mov	r1, r4
 8001524:	4798      	blx	r3
 8001526:	bd73      	pop	{r0, r1, r4, r5, r6, pc}

08001528 <GUI_MULTIBUF_EndEx>:
 8001528:	b538      	push	{r3, r4, r5, lr}
 800152a:	4605      	mov	r5, r0
 800152c:	f7ff ffb8 	bl	80014a0 <_GetIndex>
 8001530:	492f      	ldr	r1, [pc, #188]	; (80015f0 <.text_17>)
 8001532:	eb01 0080 	add.w	r0, r1, r0, lsl #2
 8001536:	6a01      	ldr	r1, [r0, #32]
 8001538:	2902      	cmp	r1, #2
 800153a:	db15      	blt.n	8001568 <GUI_MULTIBUF_EndEx+0x40>
 800153c:	6901      	ldr	r1, [r0, #16]
 800153e:	1e49      	subs	r1, r1, #1
 8001540:	6101      	str	r1, [r0, #16]
 8001542:	d111      	bne.n	8001568 <GUI_MULTIBUF_EndEx+0x40>
 8001544:	6884      	ldr	r4, [r0, #8]
 8001546:	6184      	str	r4, [r0, #24]
 8001548:	4628      	mov	r0, r5
 800154a:	f7ff fc55 	bl	8000df8 <GUI_DEVICE__GetpDriver>
 800154e:	9000      	str	r0, [sp, #0]
 8001550:	b150      	cbz	r0, 8001568 <GUI_MULTIBUF_EndEx+0x40>
 8001552:	9a00      	ldr	r2, [sp, #0]
 8001554:	68d2      	ldr	r2, [r2, #12]
 8001556:	6a52      	ldr	r2, [r2, #36]	; 0x24
 8001558:	2122      	movs	r1, #34	; 0x22
 800155a:	a800      	add	r0, sp, #0
 800155c:	4790      	blx	r2
 800155e:	0002      	movs	r2, r0
 8001560:	d002      	beq.n	8001568 <GUI_MULTIBUF_EndEx+0x40>
 8001562:	9800      	ldr	r0, [sp, #0]
 8001564:	4621      	mov	r1, r4
 8001566:	4790      	blx	r2
 8001568:	bd31      	pop	{r0, r4, r5, pc}

0800156a <GUI_MULTIBUF_ConfirmEx>:
 800156a:	b510      	push	{r4, lr}
 800156c:	460c      	mov	r4, r1
 800156e:	f7ff ff97 	bl	80014a0 <_GetIndex>
 8001572:	491f      	ldr	r1, [pc, #124]	; (80015f0 <.text_17>)
 8001574:	eb01 0280 	add.w	r2, r1, r0, lsl #2
 8001578:	6993      	ldr	r3, [r2, #24]
 800157a:	2b00      	cmp	r3, #0
 800157c:	d404      	bmi.n	8001588 <GUI_MULTIBUF_ConfirmEx+0x1e>
 800157e:	f841 4020 	str.w	r4, [r1, r0, lsl #2]
 8001582:	f04f 30ff 	mov.w	r0, #4294967295
 8001586:	6190      	str	r0, [r2, #24]
 8001588:	bd10      	pop	{r4, pc}

0800158a <GUI_MULTIBUF_ConfigEx>:
 800158a:	b510      	push	{r4, lr}
 800158c:	460c      	mov	r4, r1
 800158e:	f7ff ff87 	bl	80014a0 <_GetIndex>
 8001592:	2c01      	cmp	r4, #1
 8001594:	bfb8      	it	lt
 8001596:	2401      	movlt	r4, #1
 8001598:	4915      	ldr	r1, [pc, #84]	; (80015f0 <.text_17>)
 800159a:	eb01 0080 	add.w	r0, r1, r0, lsl #2
 800159e:	6204      	str	r4, [r0, #32]
 80015a0:	bd10      	pop	{r4, pc}

080015a2 <GUI_MULTIBUF_GetNumBuffersEx>:
 80015a2:	b580      	push	{r7, lr}
 80015a4:	f7ff ff7c 	bl	80014a0 <_GetIndex>
 80015a8:	4911      	ldr	r1, [pc, #68]	; (80015f0 <.text_17>)
 80015aa:	eb01 0080 	add.w	r0, r1, r0, lsl #2
 80015ae:	6a00      	ldr	r0, [r0, #32]
 80015b0:	b900      	cbnz	r0, 80015b4 <GUI_MULTIBUF_GetNumBuffersEx+0x12>
 80015b2:	2001      	movs	r0, #1
 80015b4:	bd02      	pop	{r1, pc}

080015b6 <GUI_MULTIBUF_Begin>:
 80015b6:	480f      	ldr	r0, [pc, #60]	; (80015f4 <.text_18>)
 80015b8:	6800      	ldr	r0, [r0, #0]
 80015ba:	7c40      	ldrb	r0, [r0, #17]
 80015bc:	e775      	b.n	80014aa <GUI_MULTIBUF_BeginEx>

080015be <GUI_MULTIBUF_End>:
 80015be:	480d      	ldr	r0, [pc, #52]	; (80015f4 <.text_18>)
 80015c0:	6800      	ldr	r0, [r0, #0]
 80015c2:	7c40      	ldrb	r0, [r0, #17]
 80015c4:	e7b0      	b.n	8001528 <GUI_MULTIBUF_EndEx>

080015c6 <GUI_MULTIBUF_Confirm>:
 80015c6:	4601      	mov	r1, r0
 80015c8:	480a      	ldr	r0, [pc, #40]	; (80015f4 <.text_18>)
 80015ca:	6800      	ldr	r0, [r0, #0]
 80015cc:	7c40      	ldrb	r0, [r0, #17]
 80015ce:	e7cc      	b.n	800156a <GUI_MULTIBUF_ConfirmEx>

080015d0 <GUI_MULTIBUF_Config>:
 80015d0:	4601      	mov	r1, r0
 80015d2:	4808      	ldr	r0, [pc, #32]	; (80015f4 <.text_18>)
 80015d4:	6800      	ldr	r0, [r0, #0]
 80015d6:	7c40      	ldrb	r0, [r0, #17]
 80015d8:	e7d7      	b.n	800158a <GUI_MULTIBUF_ConfigEx>

080015da <GUI_MULTIBUF_GetNumBuffers>:
 80015da:	4806      	ldr	r0, [pc, #24]	; (80015f4 <.text_18>)
 80015dc:	6800      	ldr	r0, [r0, #0]
 80015de:	7c40      	ldrb	r0, [r0, #17]
 80015e0:	e7df      	b.n	80015a2 <GUI_MULTIBUF_GetNumBuffersEx>

080015e2 <GUI_MULTIBUF_UseSingleBuffer>:
 80015e2:	4802      	ldr	r0, [pc, #8]	; (80015ec <.text_16>)
 80015e4:	2101      	movs	r1, #1
 80015e6:	6001      	str	r1, [r0, #0]
 80015e8:	4770      	bx	lr
	...

080015ec <.text_16>:
 80015ec:	2000083c 	.word	0x2000083c

080015f0 <.text_17>:
 80015f0:	20000814 	.word	0x20000814

080015f4 <.text_18>:
 80015f4:	2000000c 	.word	0x2000000c

080015f8 <_IncPointer>:
 80015f8:	4a2c      	ldr	r2, [pc, #176]	; (80016ac <.text_13>)
 80015fa:	f102 0350 	add.w	r3, r2, #80	; 0x50
 80015fe:	4298      	cmp	r0, r3
 8001600:	bf18      	it	ne
 8001602:	f100 0208 	addne.w	r2, r0, #8
 8001606:	b109      	cbz	r1, 800160c <_IncPointer+0x14>
 8001608:	428a      	cmp	r2, r1
 800160a:	d000      	beq.n	800160e <_IncPointer+0x16>
 800160c:	4610      	mov	r0, r2
 800160e:	4770      	bx	lr

08001610 <_IncReadPointer>:
 8001610:	2100      	movs	r1, #0
 8001612:	e7f1      	b.n	80015f8 <_IncPointer>

08001614 <GUI_GetKey>:
 8001614:	4926      	ldr	r1, [pc, #152]	; (80016b0 <.text_14>)
 8001616:	6888      	ldr	r0, [r1, #8]
 8001618:	2200      	movs	r2, #0
 800161a:	608a      	str	r2, [r1, #8]
 800161c:	4770      	bx	lr

0800161e <GUI_StoreKey>:
 800161e:	4924      	ldr	r1, [pc, #144]	; (80016b0 <.text_14>)
 8001620:	688a      	ldr	r2, [r1, #8]
 8001622:	b902      	cbnz	r2, 8001626 <GUI_StoreKey+0x8>
 8001624:	6088      	str	r0, [r1, #8]
 8001626:	f000 b95a 	b.w	80018de <GUI_SignalEvent>

0800162a <GUI_ClearKeyBuffer>:
 800162a:	b510      	push	{r4, lr}
 800162c:	4c20      	ldr	r4, [pc, #128]	; (80016b0 <.text_14>)
 800162e:	6820      	ldr	r0, [r4, #0]
 8001630:	e001      	b.n	8001636 <GUI_ClearKeyBuffer+0xc>
 8001632:	f7ff ffed 	bl	8001610 <_IncReadPointer>
 8001636:	6861      	ldr	r1, [r4, #4]
 8001638:	4288      	cmp	r0, r1
 800163a:	d1fa      	bne.n	8001632 <GUI_ClearKeyBuffer+0x8>
 800163c:	6020      	str	r0, [r4, #0]
 800163e:	bd10      	pop	{r4, pc}

08001640 <GUI_StoreKeyMsg>:
 8001640:	b538      	push	{r3, r4, r5, lr}
 8001642:	4d1b      	ldr	r5, [pc, #108]	; (80016b0 <.text_14>)
 8001644:	4604      	mov	r4, r0
 8001646:	6868      	ldr	r0, [r5, #4]
 8001648:	6004      	str	r4, [r0, #0]
 800164a:	6041      	str	r1, [r0, #4]
 800164c:	6829      	ldr	r1, [r5, #0]
 800164e:	f7ff ffd3 	bl	80015f8 <_IncPointer>
 8001652:	6068      	str	r0, [r5, #4]
 8001654:	60ac      	str	r4, [r5, #8]
 8001656:	e8bd 4031 	ldmia.w	sp!, {r0, r4, r5, lr}
 800165a:	f000 b940 	b.w	80018de <GUI_SignalEvent>

0800165e <GUI_PollKeyMsg>:
 800165e:	b570      	push	{r4, r5, r6, lr}
 8001660:	4c13      	ldr	r4, [pc, #76]	; (80016b0 <.text_14>)
 8001662:	6821      	ldr	r1, [r4, #0]
 8001664:	6862      	ldr	r2, [r4, #4]
 8001666:	2000      	movs	r0, #0
 8001668:	4291      	cmp	r1, r2
 800166a:	d00a      	beq.n	8001682 <GUI_PollKeyMsg+0x24>
 800166c:	680d      	ldr	r5, [r1, #0]
 800166e:	684e      	ldr	r6, [r1, #4]
 8001670:	4608      	mov	r0, r1
 8001672:	f7ff ffcd 	bl	8001610 <_IncReadPointer>
 8001676:	6020      	str	r0, [r4, #0]
 8001678:	4631      	mov	r1, r6
 800167a:	4628      	mov	r0, r5
 800167c:	f005 f80c 	bl	8006698 <WM_OnKey>
 8001680:	2001      	movs	r0, #1
 8001682:	bd70      	pop	{r4, r5, r6, pc}

08001684 <GUI_SendKeyMsg>:
 8001684:	b538      	push	{r3, r4, r5, lr}
 8001686:	4604      	mov	r4, r0
 8001688:	460d      	mov	r5, r1
 800168a:	f005 f805 	bl	8006698 <WM_OnKey>
 800168e:	b920      	cbnz	r0, 800169a <GUI_SendKeyMsg+0x16>
 8001690:	4629      	mov	r1, r5
 8001692:	4620      	mov	r0, r4
 8001694:	e8bd 4034 	ldmia.w	sp!, {r2, r4, r5, lr}
 8001698:	e7d2      	b.n	8001640 <GUI_StoreKeyMsg>
 800169a:	bd31      	pop	{r0, r4, r5, pc}

0800169c <GUI_GetKeyState>:
 800169c:	4904      	ldr	r1, [pc, #16]	; (80016b0 <.text_14>)
 800169e:	6809      	ldr	r1, [r1, #0]
 80016a0:	b119      	cbz	r1, 80016aa <GUI_GetKeyState+0xe>
 80016a2:	e9d1 2300 	ldrd	r2, r3, [r1]
 80016a6:	e9c0 2300 	strd	r2, r3, [r0]
 80016aa:	4770      	bx	lr

080016ac <.text_13>:
 80016ac:	20000840 	.word	0x20000840

080016b0 <.text_14>:
 80016b0:	2000001c 	.word	0x2000001c

080016b4 <GUI_GetPenSize>:
 80016b4:	4809      	ldr	r0, [pc, #36]	; (80016dc <.text_6>)
 80016b6:	6800      	ldr	r0, [r0, #0]
 80016b8:	7e00      	ldrb	r0, [r0, #24]
 80016ba:	4770      	bx	lr

080016bc <GUI_GetPenShape>:
 80016bc:	4807      	ldr	r0, [pc, #28]	; (80016dc <.text_6>)
 80016be:	6800      	ldr	r0, [r0, #0]
 80016c0:	7e40      	ldrb	r0, [r0, #25]
 80016c2:	4770      	bx	lr

080016c4 <GUI_SetPenSize>:
 80016c4:	4905      	ldr	r1, [pc, #20]	; (80016dc <.text_6>)
 80016c6:	680a      	ldr	r2, [r1, #0]
 80016c8:	7e11      	ldrb	r1, [r2, #24]
 80016ca:	7610      	strb	r0, [r2, #24]
 80016cc:	4608      	mov	r0, r1
 80016ce:	4770      	bx	lr

080016d0 <GUI_SetPenShape>:
 80016d0:	4902      	ldr	r1, [pc, #8]	; (80016dc <.text_6>)
 80016d2:	680a      	ldr	r2, [r1, #0]
 80016d4:	7e51      	ldrb	r1, [r2, #25]
 80016d6:	7650      	strb	r0, [r2, #25]
 80016d8:	4608      	mov	r0, r1
 80016da:	4770      	bx	lr

080016dc <.text_6>:
 80016dc:	2000000c 	.word	0x2000000c

080016e0 <GUI_SelectLayer>:
 80016e0:	b538      	push	{r3, r4, r5, lr}
 80016e2:	4604      	mov	r4, r0
 80016e4:	4812      	ldr	r0, [pc, #72]	; (8001730 <.text_6>)
 80016e6:	6800      	ldr	r0, [r0, #0]
 80016e8:	7c45      	ldrb	r5, [r0, #17]
 80016ea:	2c02      	cmp	r4, #2
 80016ec:	bf3c      	itt	cc
 80016ee:	7444      	strbcc	r4, [r0, #17]
 80016f0:	f000 f836 	blcc	8001760 <GUI_SelectLCD>
 80016f4:	480f      	ldr	r0, [pc, #60]	; (8001734 <.text_7>)
 80016f6:	6004      	str	r4, [r0, #0]
 80016f8:	4628      	mov	r0, r5
 80016fa:	bd32      	pop	{r1, r4, r5, pc}

080016fc <GUI_AssignCursorLayer>:
 80016fc:	b538      	push	{r3, r4, r5, lr}
 80016fe:	4604      	mov	r4, r0
 8001700:	460d      	mov	r5, r1
 8001702:	f7ff fb79 	bl	8000df8 <GUI_DEVICE__GetpDriver>
 8001706:	9000      	str	r0, [sp, #0]
 8001708:	b148      	cbz	r0, 800171e <GUI_AssignCursorLayer+0x22>
 800170a:	9a00      	ldr	r2, [sp, #0]
 800170c:	68d2      	ldr	r2, [r2, #12]
 800170e:	6a52      	ldr	r2, [r2, #36]	; 0x24
 8001710:	2103      	movs	r1, #3
 8001712:	a800      	add	r0, sp, #0
 8001714:	4790      	blx	r2
 8001716:	b110      	cbz	r0, 800171e <GUI_AssignCursorLayer+0x22>
 8001718:	4807      	ldr	r0, [pc, #28]	; (8001738 <.text_8>)
 800171a:	f840 5024 	str.w	r5, [r0, r4, lsl #2]
 800171e:	bd31      	pop	{r0, r4, r5, pc}

08001720 <GUI_GetCursorLayer>:
 8001720:	2100      	movs	r1, #0
 8001722:	2802      	cmp	r0, #2
 8001724:	bf3c      	itt	cc
 8001726:	4904      	ldrcc	r1, [pc, #16]	; (8001738 <.text_8>)
 8001728:	f851 1020 	ldrcc.w	r1, [r1, r0, lsl #2]
 800172c:	4608      	mov	r0, r1
 800172e:	4770      	bx	lr

08001730 <.text_6>:
 8001730:	2000000c 	.word	0x2000000c

08001734 <.text_7>:
 8001734:	20000908 	.word	0x20000908

08001738 <.text_8>:
 8001738:	20000898 	.word	0x20000898

0800173c <GUI_SetLayerPosEx>:
 800173c:	f003 bc4c 	b.w	8004fd8 <LCD_SetPosEx>

08001740 <GUI_SetLayerSizeEx>:
 8001740:	f003 bc21 	b.w	8004f86 <LCD_SetSizeEx>

08001744 <GUI_SetLayerVisEx>:
 8001744:	f003 bc32 	b.w	8004fac <LCD_SetVisEx>

08001748 <GUI_SetLayerAlphaEx>:
 8001748:	f003 bbe6 	b.w	8004f18 <LCD_SetAlphaEx>

0800174c <GUI_GetLayerPosEx>:
 800174c:	b538      	push	{r3, r4, r5, lr}
 800174e:	460c      	mov	r4, r1
 8001750:	4615      	mov	r5, r2
 8001752:	f003 fcab 	bl	80050ac <LCD_GetPosEx>
 8001756:	b110      	cbz	r0, 800175e <GUI_GetLayerPosEx+0x12>
 8001758:	2000      	movs	r0, #0
 800175a:	6020      	str	r0, [r4, #0]
 800175c:	6028      	str	r0, [r5, #0]
 800175e:	bd31      	pop	{r0, r4, r5, pc}

08001760 <GUI_SelectLCD>:
 8001760:	b580      	push	{r7, lr}
 8001762:	f003 fbb7 	bl	8004ed4 <LCD_SelectLCD>
 8001766:	f003 fd1f 	bl	80051a8 <LCD_UpdateColorIndices>
 800176a:	e8bd 4001 	ldmia.w	sp!, {r0, lr}
 800176e:	f004 bd00 	b.w	8006172 <WM_Activate>

08001772 <GUI_SetClipRect>:
 8001772:	f005 b837 	b.w	80067e4 <WM_SetUserClipRect>

08001776 <GUI_SetBkColor>:
 8001776:	f003 b910 	b.w	800499a <LCD_SetBkColor>

0800177a <GUI_SetColor>:
 800177a:	f003 b912 	b.w	80049a2 <LCD_SetColor>

0800177e <GUI_SetDrawMode>:
 800177e:	f002 be55 	b.w	800442c <LCD_SetDrawMode>
	...

08001784 <GUI_SetFont>:
 8001784:	4903      	ldr	r1, [pc, #12]	; (8001794 <GUI_SetFont+0x10>)
 8001786:	680a      	ldr	r2, [r1, #0]
 8001788:	69d1      	ldr	r1, [r2, #28]
 800178a:	b100      	cbz	r0, 800178e <GUI_SetFont+0xa>
 800178c:	61d0      	str	r0, [r2, #28]
 800178e:	4608      	mov	r0, r1
 8001790:	4770      	bx	lr
 8001792:	bf00      	nop
 8001794:	2000000c 	.word	0x2000000c

08001798 <GUI_SetLineStyle>:
 8001798:	4902      	ldr	r1, [pc, #8]	; (80017a4 <GUI_SetLineStyle+0xc>)
 800179a:	680a      	ldr	r2, [r1, #0]
 800179c:	7e91      	ldrb	r1, [r2, #26]
 800179e:	7690      	strb	r0, [r2, #26]
 80017a0:	4608      	mov	r0, r1
 80017a2:	4770      	bx	lr
 80017a4:	2000000c 	.word	0x2000000c

080017a8 <GUI_SetOrg>:
 80017a8:	4a07      	ldr	r2, [pc, #28]	; (80017c8 <__iar_annotation$$tailcall+0x2>)
 80017aa:	4b08      	ldr	r3, [pc, #32]	; (80017cc <__iar_annotation$$tailcall+0x6>)
 80017ac:	8010      	strh	r0, [r2, #0]
 80017ae:	4a08      	ldr	r2, [pc, #32]	; (80017d0 <__iar_annotation$$tailcall+0xa>)
 80017b0:	8011      	strh	r1, [r2, #0]
 80017b2:	4a08      	ldr	r2, [pc, #32]	; (80017d4 <__iar_annotation$$tailcall+0xe>)
 80017b4:	6812      	ldr	r2, [r2, #0]
 80017b6:	7c52      	ldrb	r2, [r2, #17]
 80017b8:	f853 3022 	ldr.w	r3, [r3, r2, lsl #2]
 80017bc:	460a      	mov	r2, r1
 80017be:	4601      	mov	r1, r0
 80017c0:	4618      	mov	r0, r3
 80017c2:	68db      	ldr	r3, [r3, #12]
 80017c4:	6a1b      	ldr	r3, [r3, #32]

080017c6 <__iar_annotation$$tailcall>:
 80017c6:	4718      	bx	r3
 80017c8:	20000780 	.word	0x20000780
 80017cc:	200007fc 	.word	0x200007fc
 80017d0:	20000782 	.word	0x20000782
 80017d4:	2000000c 	.word	0x2000000c

080017d8 <GUI_SetTextAlign>:
 80017d8:	4903      	ldr	r1, [pc, #12]	; (80017e8 <GUI_SetTextAlign+0x10>)
 80017da:	680a      	ldr	r2, [r1, #0]
 80017dc:	f9b2 102c 	ldrsh.w	r1, [r2, #44]	; 0x2c
 80017e0:	8590      	strh	r0, [r2, #44]	; 0x2c
 80017e2:	4608      	mov	r0, r1
 80017e4:	4770      	bx	lr
 80017e6:	bf00      	nop
 80017e8:	2000000c 	.word	0x2000000c

080017ec <GUI_SetTextMode>:
 80017ec:	4903      	ldr	r1, [pc, #12]	; (80017fc <GUI_SetTextMode+0x10>)
 80017ee:	680a      	ldr	r2, [r1, #0]
 80017f0:	f9b2 102a 	ldrsh.w	r1, [r2, #42]	; 0x2a
 80017f4:	8550      	strh	r0, [r2, #42]	; 0x2a
 80017f6:	4608      	mov	r0, r1
 80017f8:	4770      	bx	lr
 80017fa:	bf00      	nop
 80017fc:	2000000c 	.word	0x2000000c

08001800 <GUI_UC_GetCharSize>:
 8001800:	4922      	ldr	r1, [pc, #136]	; (800188c <.text_9>)
 8001802:	6809      	ldr	r1, [r1, #0]
 8001804:	6849      	ldr	r1, [r1, #4]

08001806 <__iar_annotation$$tailcall>:
 8001806:	4708      	bx	r1

08001808 <GUI_UC_GetCharCode>:
 8001808:	4920      	ldr	r1, [pc, #128]	; (800188c <.text_9>)
 800180a:	6809      	ldr	r1, [r1, #0]
 800180c:	6809      	ldr	r1, [r1, #0]

0800180e <__iar_annotation$$tailcall>:
 800180e:	4708      	bx	r1

08001810 <GUI_UC_Encode>:
 8001810:	4a1e      	ldr	r2, [pc, #120]	; (800188c <.text_9>)
 8001812:	6812      	ldr	r2, [r2, #0]
 8001814:	68d2      	ldr	r2, [r2, #12]

08001816 <__iar_annotation$$tailcall>:
 8001816:	4710      	bx	r2

08001818 <GUI_UC__CalcSizeOfChar>:
 8001818:	491c      	ldr	r1, [pc, #112]	; (800188c <.text_9>)
 800181a:	6809      	ldr	r1, [r1, #0]
 800181c:	6889      	ldr	r1, [r1, #8]

0800181e <__iar_annotation$$tailcall>:
 800181e:	4708      	bx	r1

08001820 <GUI_UC__GetCharCodeInc>:
 8001820:	b5f8      	push	{r3, r4, r5, r6, r7, lr}
 8001822:	4e1a      	ldr	r6, [pc, #104]	; (800188c <.text_9>)
 8001824:	6831      	ldr	r1, [r6, #0]
 8001826:	6809      	ldr	r1, [r1, #0]
 8001828:	4604      	mov	r4, r0
 800182a:	6825      	ldr	r5, [r4, #0]
 800182c:	4628      	mov	r0, r5
 800182e:	4788      	blx	r1
 8001830:	6831      	ldr	r1, [r6, #0]
 8001832:	6849      	ldr	r1, [r1, #4]
 8001834:	4607      	mov	r7, r0
 8001836:	4628      	mov	r0, r5
 8001838:	4788      	blx	r1
 800183a:	1940      	adds	r0, r0, r5
 800183c:	6020      	str	r0, [r4, #0]
 800183e:	4638      	mov	r0, r7
 8001840:	bdf2      	pop	{r1, r4, r5, r6, r7, pc}

08001842 <GUI_UC__NumChars2NumBytes>:
 8001842:	b5f8      	push	{r3, r4, r5, r6, r7, lr}
 8001844:	4604      	mov	r4, r0
 8001846:	460d      	mov	r5, r1
 8001848:	2600      	movs	r6, #0
 800184a:	4f10      	ldr	r7, [pc, #64]	; (800188c <.text_9>)
 800184c:	e005      	b.n	800185a <GUI_UC__NumChars2NumBytes+0x18>
 800184e:	6839      	ldr	r1, [r7, #0]
 8001850:	6849      	ldr	r1, [r1, #4]
 8001852:	4620      	mov	r0, r4
 8001854:	4788      	blx	r1
 8001856:	1904      	adds	r4, r0, r4
 8001858:	1986      	adds	r6, r0, r6
 800185a:	4628      	mov	r0, r5
 800185c:	1e45      	subs	r5, r0, #1
 800185e:	2800      	cmp	r0, #0
 8001860:	d1f5      	bne.n	800184e <GUI_UC__NumChars2NumBytes+0xc>
 8001862:	4630      	mov	r0, r6
 8001864:	bdf2      	pop	{r1, r4, r5, r6, r7, pc}

08001866 <GUI_UC__NumBytes2NumChars>:
 8001866:	e92d 41f0 	stmdb	sp!, {r4, r5, r6, r7, r8, lr}
 800186a:	4604      	mov	r4, r0
 800186c:	4688      	mov	r8, r1
 800186e:	2600      	movs	r6, #0
 8001870:	2700      	movs	r7, #0
 8001872:	4d06      	ldr	r5, [pc, #24]	; (800188c <.text_9>)
 8001874:	e005      	b.n	8001882 <GUI_UC__NumBytes2NumChars+0x1c>
 8001876:	6829      	ldr	r1, [r5, #0]
 8001878:	6849      	ldr	r1, [r1, #4]
 800187a:	1938      	adds	r0, r7, r4
 800187c:	4788      	blx	r1
 800187e:	19c7      	adds	r7, r0, r7
 8001880:	1c76      	adds	r6, r6, #1
 8001882:	4547      	cmp	r7, r8
 8001884:	dbf7      	blt.n	8001876 <GUI_UC__NumBytes2NumChars+0x10>
 8001886:	4630      	mov	r0, r6
 8001888:	e8bd 81f0 	ldmia.w	sp!, {r4, r5, r6, r7, r8, pc}

0800188c <.text_9>:
 800188c:	20000004 	.word	0x20000004

08001890 <_GetCharCode>:
 8001890:	7800      	ldrb	r0, [r0, #0]
 8001892:	4770      	bx	lr

08001894 <_GetCharSize>:
 8001894:	2001      	movs	r0, #1
 8001896:	4770      	bx	lr

08001898 <_CalcSizeOfChar>:
 8001898:	2001      	movs	r0, #1
 800189a:	4770      	bx	lr

0800189c <_Encode>:
 800189c:	7001      	strb	r1, [r0, #0]
 800189e:	2001      	movs	r0, #1
 80018a0:	4770      	bx	lr

080018a2 <GUI_UC_SetEncodeNone>:
 80018a2:	4802      	ldr	r0, [pc, #8]	; (80018ac <.text_7>)
 80018a4:	f20f 0108 	addw	r1, pc, #8
 80018a8:	6001      	str	r1, [r0, #0]
 80018aa:	4770      	bx	lr

080018ac <.text_7>:
 80018ac:	20000004 	.word	0x20000004

080018b0 <GUI_UC_None>:
 80018b0:	08001891 08001895 08001899 0800189d     ................

080018c0 <_WaitEvent>:
 80018c0:	4815      	ldr	r0, [pc, #84]	; (8001918 <.text_11>)
 80018c2:	6800      	ldr	r0, [r0, #0]
 80018c4:	0001      	movs	r1, r0
 80018c6:	bf18      	it	ne

080018c8 <__iar_annotation$$tailcall>:
 80018c8:	4700      	bxne	r0
 80018ca:	4770      	bx	lr

080018cc <GUI_SetSignalEventFunc>:
 80018cc:	4913      	ldr	r1, [pc, #76]	; (800191c <.text_12>)
 80018ce:	6008      	str	r0, [r1, #0]
 80018d0:	4770      	bx	lr

080018d2 <GUI_SetWaitEventFunc>:
 80018d2:	4911      	ldr	r1, [pc, #68]	; (8001918 <.text_11>)
 80018d4:	6008      	str	r0, [r1, #0]
 80018d6:	4770      	bx	lr

080018d8 <GUI_SetWaitEventTimedFunc>:
 80018d8:	4911      	ldr	r1, [pc, #68]	; (8001920 <.text_13>)
 80018da:	6008      	str	r0, [r1, #0]
 80018dc:	4770      	bx	lr

080018de <GUI_SignalEvent>:
 80018de:	480f      	ldr	r0, [pc, #60]	; (800191c <.text_12>)
 80018e0:	6800      	ldr	r0, [r0, #0]
 80018e2:	0001      	movs	r1, r0
 80018e4:	bf18      	it	ne

080018e6 <__iar_annotation$$tailcall>:
 80018e6:	4700      	bxne	r0
 80018e8:	4770      	bx	lr

080018ea <GUI_WaitEvent>:
 80018ea:	b510      	push	{r4, lr}
 80018ec:	4c0c      	ldr	r4, [pc, #48]	; (8001920 <.text_13>)
 80018ee:	6820      	ldr	r0, [r4, #0]
 80018f0:	b158      	cbz	r0, 800190a <__iar_annotation$$tailcall+0x2>
 80018f2:	f006 fd90 	bl	8008416 <GUI_TIMER__IsActive>
 80018f6:	b158      	cbz	r0, 8001910 <__iar_annotation$$tailcall+0x8>
 80018f8:	f006 fd93 	bl	8008422 <GUI_TIMER__GetPeriod>
 80018fc:	b158      	cbz	r0, 8001916 <__iar_annotation$$tailcall+0xe>
 80018fe:	6821      	ldr	r1, [r4, #0]
 8001900:	000a      	movs	r2, r1
 8001902:	d008      	beq.n	8001916 <__iar_annotation$$tailcall+0xe>
 8001904:	e8bd 4010 	ldmia.w	sp!, {r4, lr}

08001908 <__iar_annotation$$tailcall>:
 8001908:	4708      	bx	r1
 800190a:	f006 fd84 	bl	8008416 <GUI_TIMER__IsActive>
 800190e:	b910      	cbnz	r0, 8001916 <__iar_annotation$$tailcall+0xe>
 8001910:	e8bd 4010 	ldmia.w	sp!, {r4, lr}
 8001914:	e7d4      	b.n	80018c0 <_WaitEvent>
 8001916:	bd10      	pop	{r4, pc}

08001918 <.text_11>:
 8001918:	20000028 	.word	0x20000028

0800191c <.text_12>:
 800191c:	200008a0 	.word	0x200008a0

08001920 <.text_13>:
 8001920:	200008a4 	.word	0x200008a4

08001924 <_DrawCharAA4_Trans>:
 8001924:	e92d 4fff 	stmdb	sp!, {r0, r1, r2, r3, r4, r5, r6, r7, r8, r9, sl, fp, lr}
 8001928:	b081      	sub	sp, #4
 800192a:	2400      	movs	r4, #0
 800192c:	f8dd 8040 	ldr.w	r8, [sp, #64]	; 0x40
 8001930:	e01e      	b.n	8001970 <_DrawCharAA4_Trans+0x4c>
 8001932:	f816 bb01 	ldrb.w	fp, [r6], #1
 8001936:	ea4f 121b 	mov.w	r2, fp, lsr #4
 800193a:	4649      	mov	r1, r9
 800193c:	4650      	mov	r0, sl
 800193e:	47c0      	blx	r8
 8001940:	f00b 020f 	and.w	r2, fp, #15
 8001944:	4649      	mov	r1, r9
 8001946:	f10a 0001 	add.w	r0, sl, #1
 800194a:	47c0      	blx	r8
 800194c:	1ead      	subs	r5, r5, #2
 800194e:	1cbf      	adds	r7, r7, #2
 8001950:	9801      	ldr	r0, [sp, #4]
 8001952:	eb00 0a07 	add.w	sl, r0, r7
 8001956:	2d02      	cmp	r5, #2
 8001958:	daeb      	bge.n	8001932 <_DrawCharAA4_Trans+0xe>
 800195a:	b125      	cbz	r5, 8001966 <_DrawCharAA4_Trans+0x42>
 800195c:	7830      	ldrb	r0, [r6, #0]
 800195e:	0902      	lsrs	r2, r0, #4
 8001960:	4649      	mov	r1, r9
 8001962:	4650      	mov	r0, sl
 8001964:	47c0      	blx	r8
 8001966:	980e      	ldr	r0, [sp, #56]	; 0x38
 8001968:	990f      	ldr	r1, [sp, #60]	; 0x3c
 800196a:	1840      	adds	r0, r0, r1
 800196c:	900f      	str	r0, [sp, #60]	; 0x3c
 800196e:	1c64      	adds	r4, r4, #1
 8001970:	9804      	ldr	r0, [sp, #16]
 8001972:	4284      	cmp	r4, r0
 8001974:	da06      	bge.n	8001984 <_DrawCharAA4_Trans+0x60>
 8001976:	9802      	ldr	r0, [sp, #8]
 8001978:	9e0f      	ldr	r6, [sp, #60]	; 0x3c
 800197a:	9d03      	ldr	r5, [sp, #12]
 800197c:	2700      	movs	r7, #0
 800197e:	eb04 0900 	add.w	r9, r4, r0
 8001982:	e7e5      	b.n	8001950 <_DrawCharAA4_Trans+0x2c>
 8001984:	b005      	add	sp, #20
 8001986:	e8bd 8ff0 	ldmia.w	sp!, {r4, r5, r6, r7, r8, r9, sl, fp, pc}

0800198a <_DrawCharAA4_NoTrans>:
 800198a:	e92d 4ff3 	stmdb	sp!, {r0, r1, r4, r5, r6, r7, r8, r9, sl, fp, lr}
 800198e:	485e      	ldr	r0, [pc, #376]	; (8001b08 <.text_8>)
 8001990:	4c5e      	ldr	r4, [pc, #376]	; (8001b0c <.text_9>)
 8001992:	6800      	ldr	r0, [r0, #0]
 8001994:	b081      	sub	sp, #4
 8001996:	6b81      	ldr	r1, [r0, #56]	; 0x38
 8001998:	6bc0      	ldr	r0, [r0, #60]	; 0x3c
 800199a:	680e      	ldr	r6, [r1, #0]
 800199c:	6807      	ldr	r7, [r0, #0]
 800199e:	6e20      	ldr	r0, [r4, #96]	; 0x60
 80019a0:	4690      	mov	r8, r2
 80019a2:	469b      	mov	fp, r3
 80019a4:	42b8      	cmp	r0, r7
 80019a6:	bf04      	itt	eq
 80019a8:	6e60      	ldreq	r0, [r4, #100]	; 0x64
 80019aa:	42b0      	cmpeq	r0, r6
 80019ac:	d01c      	beq.n	80019e8 <_DrawCharAA4_NoTrans+0x5e>
 80019ae:	4630      	mov	r0, r6
 80019b0:	f002 ffd8 	bl	8004964 <LCD_Index2Color>
 80019b4:	4681      	mov	r9, r0
 80019b6:	4638      	mov	r0, r7
 80019b8:	f002 ffd4 	bl	8004964 <LCD_Index2Color>
 80019bc:	4682      	mov	sl, r0
 80019be:	f8c4 9020 	str.w	r9, [r4, #32]
 80019c2:	2501      	movs	r5, #1
 80019c4:	b2ea      	uxtb	r2, r5
 80019c6:	4649      	mov	r1, r9
 80019c8:	4650      	mov	r0, sl
 80019ca:	f002 fffc 	bl	80049c6 <LCD_AA_MixColors>
 80019ce:	eb04 0185 	add.w	r1, r4, r5, lsl #2
 80019d2:	1c6d      	adds	r5, r5, #1
 80019d4:	6208      	str	r0, [r1, #32]
 80019d6:	2d0f      	cmp	r5, #15
 80019d8:	dbf4      	blt.n	80019c4 <_DrawCharAA4_NoTrans+0x3a>
 80019da:	f8c4 a05c 	str.w	sl, [r4, #92]	; 0x5c
 80019de:	4620      	mov	r0, r4
 80019e0:	f003 f8f4 	bl	8004bcc <LCD_GetpPalConvTableUncached>
 80019e4:	6627      	str	r7, [r4, #96]	; 0x60
 80019e6:	6666      	str	r6, [r4, #100]	; 0x64
 80019e8:	f8a4 800c 	strh.w	r8, [r4, #12]
 80019ec:	f8a4 b00e 	strh.w	fp, [r4, #14]
 80019f0:	980c      	ldr	r0, [sp, #48]	; 0x30
 80019f2:	8220      	strh	r0, [r4, #16]
 80019f4:	980d      	ldr	r0, [sp, #52]	; 0x34
 80019f6:	6160      	str	r0, [r4, #20]
 80019f8:	4845      	ldr	r0, [pc, #276]	; (8001b10 <.text_10>)
 80019fa:	7800      	ldrb	r0, [r0, #0]
 80019fc:	7120      	strb	r0, [r4, #4]
 80019fe:	9a02      	ldr	r2, [sp, #8]
 8001a00:	9901      	ldr	r1, [sp, #4]
 8001a02:	f104 000c 	add.w	r0, r4, #12
 8001a06:	b003      	add	sp, #12
 8001a08:	e8bd 4ff0 	ldmia.w	sp!, {r4, r5, r6, r7, r8, r9, sl, fp, lr}
 8001a0c:	f7ff bbfc 	b.w	8001208 <GL_DrawBitmap>

08001a10 <GUI_AA__DrawCharAA4>:
 8001a10:	b570      	push	{r4, r5, r6, lr}
 8001a12:	4e3d      	ldr	r6, [pc, #244]	; (8001b08 <.text_8>)
 8001a14:	6836      	ldr	r6, [r6, #0]
 8001a16:	b084      	sub	sp, #16
 8001a18:	7c36      	ldrb	r6, [r6, #16]
 8001a1a:	9c08      	ldr	r4, [sp, #32]
 8001a1c:	9d09      	ldr	r5, [sp, #36]	; 0x24
 8001a1e:	f016 0603 	ands.w	r6, r6, #3
 8001a22:	d005      	beq.n	8001a30 <GUI_AA__DrawCharAA4+0x20>
 8001a24:	2e02      	cmp	r6, #2
 8001a26:	d008      	beq.n	8001a3a <GUI_AA__DrawCharAA4+0x2a>
 8001a28:	d309      	bcc.n	8001a3e <GUI_AA__DrawCharAA4+0x2e>
 8001a2a:	2e03      	cmp	r6, #3
 8001a2c:	d007      	beq.n	8001a3e <GUI_AA__DrawCharAA4+0x2e>
 8001a2e:	bd7f      	pop	{r0, r1, r2, r3, r4, r5, r6, pc}
 8001a30:	9501      	str	r5, [sp, #4]
 8001a32:	9400      	str	r4, [sp, #0]
 8001a34:	f7ff ffa9 	bl	800198a <_DrawCharAA4_NoTrans>
 8001a38:	bd7f      	pop	{r0, r1, r2, r3, r4, r5, r6, pc}
 8001a3a:	4e36      	ldr	r6, [pc, #216]	; (8001b14 <.text_11>)
 8001a3c:	e000      	b.n	8001a40 <GUI_AA__DrawCharAA4+0x30>
 8001a3e:	4e36      	ldr	r6, [pc, #216]	; (8001b18 <.text_12>)
 8001a40:	9602      	str	r6, [sp, #8]
 8001a42:	9501      	str	r5, [sp, #4]
 8001a44:	9400      	str	r4, [sp, #0]
 8001a46:	f7ff ff6d 	bl	8001924 <_DrawCharAA4_Trans>
 8001a4a:	bd7f      	pop	{r0, r1, r2, r3, r4, r5, r6, pc}

08001a4c <GUIPROP_AA4_DispChar>:
 8001a4c:	e92d 41f0 	stmdb	sp!, {r4, r5, r6, r7, r8, lr}
 8001a50:	4c2d      	ldr	r4, [pc, #180]	; (8001b08 <.text_8>)
 8001a52:	4605      	mov	r5, r0
 8001a54:	6820      	ldr	r0, [r4, #0]
 8001a56:	b086      	sub	sp, #24
 8001a58:	f9b0 702a 	ldrsh.w	r7, [r0, #42]	; 0x2a
 8001a5c:	69c0      	ldr	r0, [r0, #28]
 8001a5e:	69c0      	ldr	r0, [r0, #28]
 8001a60:	4629      	mov	r1, r5
 8001a62:	f7fe ff99 	bl	8000998 <GUIPROP__FindChar>
 8001a66:	b3a8      	cbz	r0, 8001ad4 <GUIPROP_AA4_DispChar+0x88>
 8001a68:	8801      	ldrh	r1, [r0, #0]
 8001a6a:	6840      	ldr	r0, [r0, #4]
 8001a6c:	1a69      	subs	r1, r5, r1
 8001a6e:	eb00 05c1 	add.w	r5, r0, r1, lsl #3
 8001a72:	4638      	mov	r0, r7
 8001a74:	78ae      	ldrb	r6, [r5, #2]
 8001a76:	f002 fcd9 	bl	800442c <LCD_SetDrawMode>
 8001a7a:	6822      	ldr	r2, [r4, #0]
 8001a7c:	4f27      	ldr	r7, [pc, #156]	; (8001b1c <.text_13>)
 8001a7e:	f9b2 1024 	ldrsh.w	r1, [r2, #36]	; 0x24
 8001a82:	69d3      	ldr	r3, [r2, #28]
 8001a84:	f8d5 e004 	ldr.w	lr, [r5, #4]
 8001a88:	f8d7 c000 	ldr.w	ip, [r7]
 8001a8c:	4680      	mov	r8, r0
 8001a8e:	f9b2 0022 	ldrsh.w	r0, [r2, #34]	; 0x22
 8001a92:	782a      	ldrb	r2, [r5, #0]
 8001a94:	f1bc 0f00 	cmp.w	ip, #0
 8001a98:	d00e      	beq.n	8001ab8 <GUIPROP_AA4_DispChar+0x6c>
 8001a9a:	2700      	movs	r7, #0
 8001a9c:	9705      	str	r7, [sp, #20]
 8001a9e:	9603      	str	r6, [sp, #12]
 8001aa0:	f8cd e010 	str.w	lr, [sp, #16]
 8001aa4:	2604      	movs	r6, #4
 8001aa6:	9602      	str	r6, [sp, #8]
 8001aa8:	2601      	movs	r6, #1
 8001aaa:	9601      	str	r6, [sp, #4]
 8001aac:	9600      	str	r6, [sp, #0]
 8001aae:	7e1b      	ldrb	r3, [r3, #24]
 8001ab0:	f8dc 6000 	ldr.w	r6, [ip]
 8001ab4:	47b0      	blx	r6
 8001ab6:	e005      	b.n	8001ac4 <GUIPROP_AA4_DispChar+0x78>
 8001ab8:	f8cd e004 	str.w	lr, [sp, #4]
 8001abc:	9600      	str	r6, [sp, #0]
 8001abe:	7e1b      	ldrb	r3, [r3, #24]
 8001ac0:	f7ff ffa6 	bl	8001a10 <GUI_AA__DrawCharAA4>
 8001ac4:	4640      	mov	r0, r8
 8001ac6:	f002 fcb1 	bl	800442c <LCD_SetDrawMode>
 8001aca:	6820      	ldr	r0, [r4, #0]
 8001acc:	786a      	ldrb	r2, [r5, #1]
 8001ace:	8c41      	ldrh	r1, [r0, #34]	; 0x22
 8001ad0:	1889      	adds	r1, r1, r2
 8001ad2:	8441      	strh	r1, [r0, #34]	; 0x22
 8001ad4:	b006      	add	sp, #24
 8001ad6:	e8bd 81f0 	ldmia.w	sp!, {r4, r5, r6, r7, r8, pc}

08001ada <GUIPROP_AA4_GetCharDistX>:
 8001ada:	b538      	push	{r3, r4, r5, lr}
 8001adc:	4605      	mov	r5, r0
 8001ade:	480a      	ldr	r0, [pc, #40]	; (8001b08 <.text_8>)
 8001ae0:	6800      	ldr	r0, [r0, #0]
 8001ae2:	69c0      	ldr	r0, [r0, #28]
 8001ae4:	69c0      	ldr	r0, [r0, #28]
 8001ae6:	460c      	mov	r4, r1
 8001ae8:	4629      	mov	r1, r5
 8001aea:	f7fe ff55 	bl	8000998 <GUIPROP__FindChar>
 8001aee:	b148      	cbz	r0, 8001b04 <GUIPROP_AA4_GetCharDistX+0x2a>
 8001af0:	8801      	ldrh	r1, [r0, #0]
 8001af2:	6842      	ldr	r2, [r0, #4]
 8001af4:	1a69      	subs	r1, r5, r1
 8001af6:	eb02 00c1 	add.w	r0, r2, r1, lsl #3
 8001afa:	7840      	ldrb	r0, [r0, #1]
 8001afc:	b114      	cbz	r4, 8001b04 <GUIPROP_AA4_GetCharDistX+0x2a>
 8001afe:	f812 1031 	ldrb.w	r1, [r2, r1, lsl #3]
 8001b02:	6021      	str	r1, [r4, #0]
 8001b04:	bd32      	pop	{r1, r4, r5, pc}
	...

08001b08 <.text_8>:
 8001b08:	2000000c 	.word	0x2000000c

08001b0c <.text_9>:
 8001b0c:	2000002c 	.word	0x2000002c

08001b10 <.text_10>:
 8001b10:	20000014 	.word	0x20000014

08001b14 <.text_11>:
 8001b14:	080049f1 	.word	0x080049f1

08001b18 <.text_12>:
 8001b18:	08004a6f 	.word	0x08004a6f

08001b1c <.text_13>:
 8001b1c:	2000077c 	.word	0x2000077c

08001b20 <GUIPROP_AA4_GetFontInfo>:
 8001b20:	2011      	movs	r0, #17
 8001b22:	8008      	strh	r0, [r1, #0]
 8001b24:	4770      	bx	lr

08001b26 <GUIPROP_AA4_IsInFont>:
 8001b26:	b580      	push	{r7, lr}
 8001b28:	69c0      	ldr	r0, [r0, #28]
 8001b2a:	f7fe ff35 	bl	8000998 <GUIPROP__FindChar>
 8001b2e:	b100      	cbz	r0, 8001b32 <GUIPROP_AA4_IsInFont+0xc>
 8001b30:	2001      	movs	r0, #1
 8001b32:	bd02      	pop	{r1, pc}

08001b34 <GUIPROP_AA4_EXT_DispChar>:
 8001b34:	e92d 41f0 	stmdb	sp!, {r4, r5, r6, r7, r8, lr}
 8001b38:	4c26      	ldr	r4, [pc, #152]	; (8001bd4 <GUIPROP_AA4_EXT_DispChar+0xa0>)
 8001b3a:	4605      	mov	r5, r0
 8001b3c:	6820      	ldr	r0, [r4, #0]
 8001b3e:	b086      	sub	sp, #24
 8001b40:	f9b0 702a 	ldrsh.w	r7, [r0, #42]	; 0x2a
 8001b44:	69c0      	ldr	r0, [r0, #28]
 8001b46:	69c0      	ldr	r0, [r0, #28]
 8001b48:	4629      	mov	r1, r5
 8001b4a:	f7fe ffbb 	bl	8000ac4 <GUIPROP_EXT__FindChar>
 8001b4e:	2800      	cmp	r0, #0
 8001b50:	d03c      	beq.n	8001bcc <GUIPROP_AA4_EXT_DispChar+0x98>
 8001b52:	8801      	ldrh	r1, [r0, #0]
 8001b54:	6840      	ldr	r0, [r0, #4]
 8001b56:	1a69      	subs	r1, r5, r1
 8001b58:	220c      	movs	r2, #12
 8001b5a:	fb02 0501 	mla	r5, r2, r1, r0
 8001b5e:	7828      	ldrb	r0, [r5, #0]
 8001b60:	1c40      	adds	r0, r0, #1
 8001b62:	1046      	asrs	r6, r0, #1
 8001b64:	4638      	mov	r0, r7
 8001b66:	f002 fc61 	bl	800442c <LCD_SetDrawMode>
 8001b6a:	6821      	ldr	r1, [r4, #0]
 8001b6c:	f995 2002 	ldrsb.w	r2, [r5, #2]
 8001b70:	786b      	ldrb	r3, [r5, #1]
 8001b72:	f8d5 e008 	ldr.w	lr, [r5, #8]
 8001b76:	4f18      	ldr	r7, [pc, #96]	; (8001bd8 <GUIPROP_AA4_EXT_DispChar+0xa4>)
 8001b78:	f8d7 c000 	ldr.w	ip, [r7]
 8001b7c:	4680      	mov	r8, r0
 8001b7e:	f9b1 0022 	ldrsh.w	r0, [r1, #34]	; 0x22
 8001b82:	f9b1 1024 	ldrsh.w	r1, [r1, #36]	; 0x24
 8001b86:	1810      	adds	r0, r2, r0
 8001b88:	f995 2003 	ldrsb.w	r2, [r5, #3]
 8001b8c:	1851      	adds	r1, r2, r1
 8001b8e:	782a      	ldrb	r2, [r5, #0]
 8001b90:	f1bc 0f00 	cmp.w	ip, #0
 8001b94:	d00d      	beq.n	8001bb2 <GUIPROP_AA4_EXT_DispChar+0x7e>
 8001b96:	2700      	movs	r7, #0
 8001b98:	9705      	str	r7, [sp, #20]
 8001b9a:	9603      	str	r6, [sp, #12]
 8001b9c:	f8cd e010 	str.w	lr, [sp, #16]
 8001ba0:	2604      	movs	r6, #4
 8001ba2:	9602      	str	r6, [sp, #8]
 8001ba4:	2601      	movs	r6, #1
 8001ba6:	9601      	str	r6, [sp, #4]
 8001ba8:	9600      	str	r6, [sp, #0]
 8001baa:	f8dc 6000 	ldr.w	r6, [ip]
 8001bae:	47b0      	blx	r6
 8001bb0:	e004      	b.n	8001bbc <GUIPROP_AA4_EXT_DispChar+0x88>
 8001bb2:	f8cd e004 	str.w	lr, [sp, #4]
 8001bb6:	9600      	str	r6, [sp, #0]
 8001bb8:	f7ff ff2a 	bl	8001a10 <GUI_AA__DrawCharAA4>
 8001bbc:	4640      	mov	r0, r8
 8001bbe:	f002 fc35 	bl	800442c <LCD_SetDrawMode>
 8001bc2:	6820      	ldr	r0, [r4, #0]
 8001bc4:	792a      	ldrb	r2, [r5, #4]
 8001bc6:	8c41      	ldrh	r1, [r0, #34]	; 0x22
 8001bc8:	1889      	adds	r1, r1, r2
 8001bca:	8441      	strh	r1, [r0, #34]	; 0x22
 8001bcc:	b006      	add	sp, #24
 8001bce:	e8bd 81f0 	ldmia.w	sp!, {r4, r5, r6, r7, r8, pc}
 8001bd2:	bf00      	nop
 8001bd4:	2000000c 	.word	0x2000000c
 8001bd8:	2000077c 	.word	0x2000077c

08001bdc <_Color2Index_1616I>:
 8001bdc:	b510      	push	{r4, lr}
 8001bde:	492d      	ldr	r1, [pc, #180]	; (8001c94 <.text_7>)
 8001be0:	6809      	ldr	r1, [r1, #0]
 8001be2:	4604      	mov	r4, r0
 8001be4:	0220      	lsls	r0, r4, #8
 8001be6:	0a00      	lsrs	r0, r0, #8
 8001be8:	4788      	blx	r1
 8001bea:	0e21      	lsrs	r1, r4, #24
 8001bec:	4a2a      	ldr	r2, [pc, #168]	; (8001c98 <.text_8>)
 8001bee:	5c89      	ldrb	r1, [r1, r2]
 8001bf0:	f1c1 010f 	rsb	r1, r1, #15
 8001bf4:	ea40 1001 	orr.w	r0, r0, r1, lsl #4
 8001bf8:	bd10      	pop	{r4, pc}

08001bfa <_Index2Color_1616I>:
 8001bfa:	b510      	push	{r4, lr}
 8001bfc:	4925      	ldr	r1, [pc, #148]	; (8001c94 <.text_7>)
 8001bfe:	6849      	ldr	r1, [r1, #4]
 8001c00:	4604      	mov	r4, r0
 8001c02:	b2e0      	uxtb	r0, r4
 8001c04:	4788      	blx	r1
 8001c06:	0921      	lsrs	r1, r4, #4
 8001c08:	4a24      	ldr	r2, [pc, #144]	; (8001c9c <.text_9>)
 8001c0a:	5c89      	ldrb	r1, [r1, r2]
 8001c0c:	f1c1 01ff 	rsb	r1, r1, #255	; 0xff
 8001c10:	ea40 6001 	orr.w	r0, r0, r1, lsl #24
 8001c14:	bd10      	pop	{r4, pc}

08001c16 <_GetIndexMask_1616I>:
 8001c16:	20ff      	movs	r0, #255	; 0xff
 8001c18:	4770      	bx	lr

08001c1a <_Color2IndexBulk_1616I>:
 8001c1a:	e92d 43f8 	stmdb	sp!, {r3, r4, r5, r6, r7, r8, r9, lr}
 8001c1e:	4680      	mov	r8, r0
 8001c20:	460c      	mov	r4, r1
 8001c22:	4615      	mov	r5, r2
 8001c24:	4699      	mov	r9, r3
 8001c26:	4f1c      	ldr	r7, [pc, #112]	; (8001c98 <.text_8>)
 8001c28:	f858 6b04 	ldr.w	r6, [r8], #4
 8001c2c:	4919      	ldr	r1, [pc, #100]	; (8001c94 <.text_7>)
 8001c2e:	6809      	ldr	r1, [r1, #0]
 8001c30:	0230      	lsls	r0, r6, #8
 8001c32:	0a00      	lsrs	r0, r0, #8
 8001c34:	4788      	blx	r1
 8001c36:	0e31      	lsrs	r1, r6, #24
 8001c38:	1e6d      	subs	r5, r5, #1
 8001c3a:	5dc9      	ldrb	r1, [r1, r7]
 8001c3c:	f1c1 010f 	rsb	r1, r1, #15
 8001c40:	ea40 1001 	orr.w	r0, r0, r1, lsl #4
 8001c44:	7020      	strb	r0, [r4, #0]
 8001c46:	444c      	add	r4, r9
 8001c48:	d1ee      	bne.n	8001c28 <_Color2IndexBulk_1616I+0xe>
 8001c4a:	e8bd 83f1 	ldmia.w	sp!, {r0, r4, r5, r6, r7, r8, r9, pc}

08001c4e <_Index2ColorBulk_1616I>:
 8001c4e:	e92d 47f0 	stmdb	sp!, {r4, r5, r6, r7, r8, r9, sl, lr}
 8001c52:	4614      	mov	r4, r2
 8001c54:	461d      	mov	r5, r3
 8001c56:	1e62      	subs	r2, r4, #1
 8001c58:	fb05 0602 	mla	r6, r5, r2, r0
 8001c5c:	eb01 0084 	add.w	r0, r1, r4, lsl #2
 8001c60:	f1a0 0a04 	sub.w	sl, r0, #4
 8001c64:	f8df 8034 	ldr.w	r8, [pc, #52]	; 8001c9c <.text_9>
 8001c68:	f8df 9028 	ldr.w	r9, [pc, #40]	; 8001c94 <.text_7>
 8001c6c:	7837      	ldrb	r7, [r6, #0]
 8001c6e:	f8d9 1004 	ldr.w	r1, [r9, #4]
 8001c72:	b2f8      	uxtb	r0, r7
 8001c74:	4788      	blx	r1
 8001c76:	0939      	lsrs	r1, r7, #4
 8001c78:	f811 1008 	ldrb.w	r1, [r1, r8]
 8001c7c:	f1c1 01ff 	rsb	r1, r1, #255	; 0xff
 8001c80:	ea40 6001 	orr.w	r0, r0, r1, lsl #24
 8001c84:	f84a 0904 	str.w	r0, [sl], #-4
 8001c88:	4268      	negs	r0, r5
 8001c8a:	1986      	adds	r6, r0, r6
 8001c8c:	1e64      	subs	r4, r4, #1
 8001c8e:	d1ed      	bne.n	8001c6c <_Index2ColorBulk_1616I+0x1e>
 8001c90:	e8bd 87f0 	ldmia.w	sp!, {r4, r5, r6, r7, r8, r9, sl, pc}

08001c94 <.text_7>:
 8001c94:	08017bf8 	.word	0x08017bf8

08001c98 <.text_8>:
 8001c98:	08017880 	.word	0x08017880

08001c9c <.text_9>:
 8001c9c:	08017870 	.word	0x08017870

08001ca0 <LCD_Color2Index_8666>:
 8001ca0:	b2c1      	uxtb	r1, r0
 8001ca2:	f3c0 2207 	ubfx	r2, r0, #8, #8
 8001ca6:	f3c0 4007 	ubfx	r0, r0, #16, #8
 8001caa:	4291      	cmp	r1, r2
 8001cac:	bf08      	it	eq
 8001cae:	4282      	cmpeq	r2, r0
 8001cb0:	d106      	bne.n	8001cc0 <LCD_Color2Index_8666+0x20>
 8001cb2:	f101 0008 	add.w	r0, r1, #8
 8001cb6:	2111      	movs	r1, #17
 8001cb8:	fbb0 f0f1 	udiv	r0, r0, r1
 8001cbc:	3078      	adds	r0, #120	; 0x78
 8001cbe:	4770      	bx	lr
 8001cc0:	eb01 0181 	add.w	r1, r1, r1, lsl #2
 8001cc4:	eb02 0282 	add.w	r2, r2, r2, lsl #2
 8001cc8:	317f      	adds	r1, #127	; 0x7f
 8001cca:	23ff      	movs	r3, #255	; 0xff
 8001ccc:	327f      	adds	r2, #127	; 0x7f
 8001cce:	fbb1 f1f3 	udiv	r1, r1, r3
 8001cd2:	fbb2 f2f3 	udiv	r2, r2, r3
 8001cd6:	2306      	movs	r3, #6
 8001cd8:	fb03 1102 	mla	r1, r3, r2, r1
 8001cdc:	eb00 0080 	add.w	r0, r0, r0, lsl #2
 8001ce0:	307f      	adds	r0, #127	; 0x7f
 8001ce2:	22ff      	movs	r2, #255	; 0xff
 8001ce4:	fbb0 f0f2 	udiv	r0, r0, r2
 8001ce8:	2224      	movs	r2, #36	; 0x24
 8001cea:	fb02 1000 	mla	r0, r2, r0, r1
 8001cee:	286c      	cmp	r0, #108	; 0x6c
 8001cf0:	bf28      	it	cs
 8001cf2:	3028      	addcs	r0, #40	; 0x28
 8001cf4:	4770      	bx	lr

08001cf6 <LCD_Index2Color_8666>:
 8001cf6:	b530      	push	{r4, r5, lr}
 8001cf8:	f1a0 0178 	sub.w	r1, r0, #120	; 0x78
 8001cfc:	2910      	cmp	r1, #16
 8001cfe:	d202      	bcs.n	8001d06 <LCD_Index2Color_8666+0x10>
 8001d00:	4810      	ldr	r0, [pc, #64]	; (8001d44 <.text_4>)
 8001d02:	4348      	muls	r0, r1
 8001d04:	bd30      	pop	{r4, r5, pc}
 8001d06:	286c      	cmp	r0, #108	; 0x6c
 8001d08:	d304      	bcc.n	8001d14 <LCD_Index2Color_8666+0x1e>
 8001d0a:	2894      	cmp	r0, #148	; 0x94
 8001d0c:	d201      	bcs.n	8001d12 <LCD_Index2Color_8666+0x1c>
 8001d0e:	2000      	movs	r0, #0
 8001d10:	bd30      	pop	{r4, r5, pc}
 8001d12:	3828      	subs	r0, #40	; 0x28
 8001d14:	2106      	movs	r1, #6
 8001d16:	fbb0 f1f1 	udiv	r1, r0, r1
 8001d1a:	2306      	movs	r3, #6
 8001d1c:	2506      	movs	r5, #6
 8001d1e:	fb03 0411 	mls	r4, r3, r1, r0
 8001d22:	fbb1 f5f5 	udiv	r5, r1, r5
 8001d26:	2233      	movs	r2, #51	; 0x33
 8001d28:	fb03 1115 	mls	r1, r3, r5, r1
 8001d2c:	4351      	muls	r1, r2
 8001d2e:	2324      	movs	r3, #36	; 0x24
 8001d30:	0209      	lsls	r1, r1, #8
 8001d32:	fbb0 f0f3 	udiv	r0, r0, r3
 8001d36:	fb02 1104 	mla	r1, r2, r4, r1
 8001d3a:	4350      	muls	r0, r2
 8001d3c:	eb01 4000 	add.w	r0, r1, r0, lsl #16
 8001d40:	bd30      	pop	{r4, r5, pc}
	...

08001d44 <.text_4>:
 8001d44:	00111111 	.word	0x00111111

08001d48 <_GetIndexMask_8666>:
 8001d48:	20ff      	movs	r0, #255	; 0xff
 8001d4a:	4770      	bx	lr

08001d4c <_Color2Index_88666I>:
 8001d4c:	b510      	push	{r4, lr}
 8001d4e:	492b      	ldr	r1, [pc, #172]	; (8001dfc <.text_7>)
 8001d50:	6809      	ldr	r1, [r1, #0]
 8001d52:	4604      	mov	r4, r0
 8001d54:	0220      	lsls	r0, r4, #8
 8001d56:	0a00      	lsrs	r0, r0, #8
 8001d58:	4788      	blx	r1
 8001d5a:	0c21      	lsrs	r1, r4, #16
 8001d5c:	f401 417f 	and.w	r1, r1, #65280	; 0xff00
 8001d60:	f481 417f 	eor.w	r1, r1, #65280	; 0xff00
 8001d64:	4308      	orrs	r0, r1
 8001d66:	bd10      	pop	{r4, pc}

08001d68 <_Index2Color_88666I>:
 8001d68:	b510      	push	{r4, lr}
 8001d6a:	4924      	ldr	r1, [pc, #144]	; (8001dfc <.text_7>)
 8001d6c:	6849      	ldr	r1, [r1, #4]
 8001d6e:	4604      	mov	r4, r0
 8001d70:	b2e0      	uxtb	r0, r4
 8001d72:	4788      	blx	r1
 8001d74:	f404 417f 	and.w	r1, r4, #65280	; 0xff00
 8001d78:	f04f 427f 	mov.w	r2, #4278190080	; 0xff000000
 8001d7c:	ea82 4101 	eor.w	r1, r2, r1, lsl #16
 8001d80:	4308      	orrs	r0, r1
 8001d82:	bd10      	pop	{r4, pc}

08001d84 <_GetIndexMask_88666I>:
 8001d84:	f64f 70ff 	movw	r0, #65535	; 0xffff
 8001d88:	4770      	bx	lr

08001d8a <_Color2IndexBulk_88666I>:
 8001d8a:	e92d 41f0 	stmdb	sp!, {r4, r5, r6, r7, r8, lr}
 8001d8e:	4604      	mov	r4, r0
 8001d90:	460f      	mov	r7, r1
 8001d92:	4615      	mov	r5, r2
 8001d94:	4698      	mov	r8, r3
 8001d96:	f854 6b04 	ldr.w	r6, [r4], #4
 8001d9a:	4918      	ldr	r1, [pc, #96]	; (8001dfc <.text_7>)
 8001d9c:	6809      	ldr	r1, [r1, #0]
 8001d9e:	0230      	lsls	r0, r6, #8
 8001da0:	0a00      	lsrs	r0, r0, #8
 8001da2:	4788      	blx	r1
 8001da4:	0c31      	lsrs	r1, r6, #16
 8001da6:	f401 417f 	and.w	r1, r1, #65280	; 0xff00
 8001daa:	f481 417f 	eor.w	r1, r1, #65280	; 0xff00
 8001dae:	4308      	orrs	r0, r1
 8001db0:	8038      	strh	r0, [r7, #0]
 8001db2:	4447      	add	r7, r8
 8001db4:	1e6d      	subs	r5, r5, #1
 8001db6:	d1ee      	bne.n	8001d96 <_Color2IndexBulk_88666I+0xc>
 8001db8:	e8bd 81f0 	ldmia.w	sp!, {r4, r5, r6, r7, r8, pc}

08001dbc <_Index2ColorBulk_88666I>:
 8001dbc:	e92d 43f8 	stmdb	sp!, {r3, r4, r5, r6, r7, r8, r9, lr}
 8001dc0:	4614      	mov	r4, r2
 8001dc2:	461d      	mov	r5, r3
 8001dc4:	1e62      	subs	r2, r4, #1
 8001dc6:	fb05 0802 	mla	r8, r5, r2, r0
 8001dca:	eb01 0084 	add.w	r0, r1, r4, lsl #2
 8001dce:	1f07      	subs	r7, r0, #4
 8001dd0:	4e0a      	ldr	r6, [pc, #40]	; (8001dfc <.text_7>)
 8001dd2:	f8b8 9000 	ldrh.w	r9, [r8]
 8001dd6:	6871      	ldr	r1, [r6, #4]
 8001dd8:	fa5f f089 	uxtb.w	r0, r9
 8001ddc:	4788      	blx	r1
 8001dde:	f409 417f 	and.w	r1, r9, #65280	; 0xff00
 8001de2:	f04f 427f 	mov.w	r2, #4278190080	; 0xff000000
 8001de6:	ea82 4101 	eor.w	r1, r2, r1, lsl #16
 8001dea:	4308      	orrs	r0, r1
 8001dec:	f847 0904 	str.w	r0, [r7], #-4
 8001df0:	4268      	negs	r0, r5
 8001df2:	4480      	add	r8, r0
 8001df4:	1e64      	subs	r4, r4, #1
 8001df6:	d1ec      	bne.n	8001dd2 <_Index2ColorBulk_88666I+0x16>
 8001df8:	e8bd 83f1 	ldmia.w	sp!, {r0, r4, r5, r6, r7, r8, r9, pc}

08001dfc <.text_7>:
 8001dfc:	08016f18 	.word	0x08016f18

08001e00 <LCD_Index2Color_8888>:
 8001e00:	4770      	bx	lr
	...

08001e04 <_Color2Index_M1555I>:
 8001e04:	b510      	push	{r4, lr}
 8001e06:	4940      	ldr	r1, [pc, #256]	; (8001f08 <.text_9>)
 8001e08:	b2c2      	uxtb	r2, r0
 8001e0a:	f3c0 2307 	ubfx	r3, r0, #8, #8
 8001e0e:	5c52      	ldrb	r2, [r2, r1]
 8001e10:	5c5b      	ldrb	r3, [r3, r1]
 8001e12:	f3c0 4407 	ubfx	r4, r0, #16, #8
 8001e16:	0e00      	lsrs	r0, r0, #24
 8001e18:	5c61      	ldrb	r1, [r4, r1]
 8001e1a:	2880      	cmp	r0, #128	; 0x80
 8001e1c:	4180      	sbcs	r0, r0
 8001e1e:	eb01 1143 	add.w	r1, r1, r3, lsl #5
 8001e22:	0fc0      	lsrs	r0, r0, #31
 8001e24:	eb01 2182 	add.w	r1, r1, r2, lsl #10
 8001e28:	eb01 30c0 	add.w	r0, r1, r0, lsl #15
 8001e2c:	bd10      	pop	{r4, pc}

08001e2e <_Index2Color_M1555I>:
 8001e2e:	4937      	ldr	r1, [pc, #220]	; (8001f0c <.text_10>)
 8001e30:	f3c0 2284 	ubfx	r2, r0, #10, #5
 8001e34:	f3c0 1344 	ubfx	r3, r0, #5, #5
 8001e38:	5c52      	ldrb	r2, [r2, r1]
 8001e3a:	5c5b      	ldrb	r3, [r3, r1]
 8001e3c:	eb02 2203 	add.w	r2, r2, r3, lsl #8
 8001e40:	f000 031f 	and.w	r3, r0, #31
 8001e44:	0bc0      	lsrs	r0, r0, #15
 8001e46:	5c59      	ldrb	r1, [r3, r1]
 8001e48:	f000 0001 	and.w	r0, r0, #1
 8001e4c:	f080 0001 	eor.w	r0, r0, #1
 8001e50:	eb02 4101 	add.w	r1, r2, r1, lsl #16
 8001e54:	f5c0 7080 	rsb	r0, r0, #256	; 0x100
 8001e58:	eb01 6000 	add.w	r0, r1, r0, lsl #24
 8001e5c:	4770      	bx	lr

08001e5e <_GetIndexMask_M1555I>:
 8001e5e:	f64f 70ff 	movw	r0, #65535	; 0xffff
 8001e62:	4770      	bx	lr

08001e64 <_Color2IndexBulk_M1555I>:
 8001e64:	b5f8      	push	{r3, r4, r5, r6, r7, lr}
 8001e66:	4c2a      	ldr	r4, [pc, #168]	; (8001f10 <.text_11>)
 8001e68:	6824      	ldr	r4, [r4, #0]
 8001e6a:	0025      	movs	r5, r4
 8001e6c:	d001      	beq.n	8001e72 <_Color2IndexBulk_M1555I+0xe>
 8001e6e:	47a0      	blx	r4
 8001e70:	bdf1      	pop	{r0, r4, r5, r6, r7, pc}
 8001e72:	4c25      	ldr	r4, [pc, #148]	; (8001f08 <.text_9>)
 8001e74:	f850 5b04 	ldr.w	r5, [r0], #4
 8001e78:	b2ee      	uxtb	r6, r5
 8001e7a:	f3c5 2707 	ubfx	r7, r5, #8, #8
 8001e7e:	f3c5 4c07 	ubfx	ip, r5, #16, #8
 8001e82:	5d36      	ldrb	r6, [r6, r4]
 8001e84:	5d3f      	ldrb	r7, [r7, r4]
 8001e86:	f81c c004 	ldrb.w	ip, [ip, r4]
 8001e8a:	0e2d      	lsrs	r5, r5, #24
 8001e8c:	2d80      	cmp	r5, #128	; 0x80
 8001e8e:	41ad      	sbcs	r5, r5
 8001e90:	eb06 1647 	add.w	r6, r6, r7, lsl #5
 8001e94:	0fed      	lsrs	r5, r5, #31
 8001e96:	eb06 268c 	add.w	r6, r6, ip, lsl #10
 8001e9a:	eb06 35c5 	add.w	r5, r6, r5, lsl #15
 8001e9e:	800d      	strh	r5, [r1, #0]
 8001ea0:	1859      	adds	r1, r3, r1
 8001ea2:	1e52      	subs	r2, r2, #1
 8001ea4:	d1e6      	bne.n	8001e74 <_Color2IndexBulk_M1555I+0x10>
 8001ea6:	bdf1      	pop	{r0, r4, r5, r6, r7, pc}

08001ea8 <_Index2ColorBulk_M1555I>:
 8001ea8:	b5f8      	push	{r3, r4, r5, r6, r7, lr}
 8001eaa:	4c19      	ldr	r4, [pc, #100]	; (8001f10 <.text_11>)
 8001eac:	6864      	ldr	r4, [r4, #4]
 8001eae:	0025      	movs	r5, r4
 8001eb0:	d001      	beq.n	8001eb6 <_Index2ColorBulk_M1555I+0xe>
 8001eb2:	47a0      	blx	r4
 8001eb4:	bdf1      	pop	{r0, r4, r5, r6, r7, pc}
 8001eb6:	1e54      	subs	r4, r2, #1
 8001eb8:	fb03 0004 	mla	r0, r3, r4, r0
 8001ebc:	eb01 0182 	add.w	r1, r1, r2, lsl #2
 8001ec0:	1f09      	subs	r1, r1, #4
 8001ec2:	4c12      	ldr	r4, [pc, #72]	; (8001f0c <.text_10>)
 8001ec4:	8805      	ldrh	r5, [r0, #0]
 8001ec6:	0aae      	lsrs	r6, r5, #10
 8001ec8:	096f      	lsrs	r7, r5, #5
 8001eca:	f006 061f 	and.w	r6, r6, #31
 8001ece:	f007 071f 	and.w	r7, r7, #31
 8001ed2:	5d36      	ldrb	r6, [r6, r4]
 8001ed4:	5d3f      	ldrb	r7, [r7, r4]
 8001ed6:	eb06 2607 	add.w	r6, r6, r7, lsl #8
 8001eda:	f005 071f 	and.w	r7, r5, #31
 8001ede:	0bed      	lsrs	r5, r5, #15
 8001ee0:	5d3f      	ldrb	r7, [r7, r4]
 8001ee2:	f085 0501 	eor.w	r5, r5, #1
 8001ee6:	eb06 4607 	add.w	r6, r6, r7, lsl #16
 8001eea:	f5c5 7580 	rsb	r5, r5, #256	; 0x100
 8001eee:	eb06 6505 	add.w	r5, r6, r5, lsl #24
 8001ef2:	f841 5904 	str.w	r5, [r1], #-4
 8001ef6:	425d      	negs	r5, r3
 8001ef8:	1828      	adds	r0, r5, r0
 8001efa:	1e52      	subs	r2, r2, #1
 8001efc:	d1e2      	bne.n	8001ec4 <_Index2ColorBulk_M1555I+0x1c>
 8001efe:	bdf1      	pop	{r0, r4, r5, r6, r7, pc}

08001f00 <GUICC_M1555I_SetCustColorConv>:
 8001f00:	4a03      	ldr	r2, [pc, #12]	; (8001f10 <.text_11>)
 8001f02:	6010      	str	r0, [r2, #0]
 8001f04:	6051      	str	r1, [r2, #4]
 8001f06:	4770      	bx	lr

08001f08 <.text_9>:
 8001f08:	08017980 	.word	0x08017980

08001f0c <.text_10>:
 8001f0c:	08017b80 	.word	0x08017b80

08001f10 <.text_11>:
 8001f10:	200008a8 	.word	0x200008a8

08001f14 <_Color2Index_M4444I>:
 8001f14:	f240 1107 	movw	r1, #263	; 0x107
 8001f18:	eba1 6110 	sub.w	r1, r1, r0, lsr #24
 8001f1c:	2211      	movs	r2, #17
 8001f1e:	fbb1 f1f2 	udiv	r1, r1, r2
 8001f22:	b2c2      	uxtb	r2, r0
 8001f24:	3208      	adds	r2, #8
 8001f26:	2311      	movs	r3, #17
 8001f28:	fbb2 f2f3 	udiv	r2, r2, r3
 8001f2c:	0212      	lsls	r2, r2, #8
 8001f2e:	eb02 3101 	add.w	r1, r2, r1, lsl #12
 8001f32:	f3c0 2207 	ubfx	r2, r0, #8, #8
 8001f36:	3208      	adds	r2, #8
 8001f38:	f3c0 4007 	ubfx	r0, r0, #16, #8
 8001f3c:	fbb2 f2f3 	udiv	r2, r2, r3
 8001f40:	3008      	adds	r0, #8
 8001f42:	eb01 1102 	add.w	r1, r1, r2, lsl #4
 8001f46:	fbb0 f0f3 	udiv	r0, r0, r3
 8001f4a:	1840      	adds	r0, r0, r1
 8001f4c:	4770      	bx	lr

08001f4e <_Index2Color_M4444I>:
 8001f4e:	4939      	ldr	r1, [pc, #228]	; (8002034 <.text_9>)
 8001f50:	f3c0 3203 	ubfx	r2, r0, #12, #4
 8001f54:	f000 030f 	and.w	r3, r0, #15
 8001f58:	5c52      	ldrb	r2, [r2, r1]
 8001f5a:	5c5b      	ldrb	r3, [r3, r1]
 8001f5c:	f082 02ff 	eor.w	r2, r2, #255	; 0xff
 8001f60:	041b      	lsls	r3, r3, #16
 8001f62:	eb03 6202 	add.w	r2, r3, r2, lsl #24
 8001f66:	f3c0 1303 	ubfx	r3, r0, #4, #4
 8001f6a:	f3c0 2003 	ubfx	r0, r0, #8, #4
 8001f6e:	5c5b      	ldrb	r3, [r3, r1]
 8001f70:	5c40      	ldrb	r0, [r0, r1]
 8001f72:	eb02 2203 	add.w	r2, r2, r3, lsl #8
 8001f76:	1810      	adds	r0, r2, r0
 8001f78:	4770      	bx	lr

08001f7a <_GetIndexMask_M4444I>:
 8001f7a:	f64f 70ff 	movw	r0, #65535	; 0xffff
 8001f7e:	4770      	bx	lr

08001f80 <_Color2IndexBulk_M4444I>:
 8001f80:	b5f8      	push	{r3, r4, r5, r6, r7, lr}
 8001f82:	4c2d      	ldr	r4, [pc, #180]	; (8002038 <.text_10>)
 8001f84:	6824      	ldr	r4, [r4, #0]
 8001f86:	0025      	movs	r5, r4
 8001f88:	d001      	beq.n	8001f8e <_Color2IndexBulk_M4444I+0xe>
 8001f8a:	47a0      	blx	r4
 8001f8c:	bdf1      	pop	{r0, r4, r5, r6, r7, pc}
 8001f8e:	f850 4b04 	ldr.w	r4, [r0], #4
 8001f92:	f240 1507 	movw	r5, #263	; 0x107
 8001f96:	eba5 6514 	sub.w	r5, r5, r4, lsr #24
 8001f9a:	2611      	movs	r6, #17
 8001f9c:	fbb5 f5f6 	udiv	r5, r5, r6
 8001fa0:	b2e6      	uxtb	r6, r4
 8001fa2:	3608      	adds	r6, #8
 8001fa4:	2711      	movs	r7, #17
 8001fa6:	fbb6 f6f7 	udiv	r6, r6, r7
 8001faa:	0236      	lsls	r6, r6, #8
 8001fac:	eb06 3505 	add.w	r5, r6, r5, lsl #12
 8001fb0:	f3c4 2607 	ubfx	r6, r4, #8, #8
 8001fb4:	3608      	adds	r6, #8
 8001fb6:	f3c4 4407 	ubfx	r4, r4, #16, #8
 8001fba:	fbb6 f6f7 	udiv	r6, r6, r7
 8001fbe:	3408      	adds	r4, #8
 8001fc0:	eb05 1506 	add.w	r5, r5, r6, lsl #4
 8001fc4:	fbb4 f4f7 	udiv	r4, r4, r7
 8001fc8:	1964      	adds	r4, r4, r5
 8001fca:	800c      	strh	r4, [r1, #0]
 8001fcc:	1859      	adds	r1, r3, r1
 8001fce:	1e52      	subs	r2, r2, #1
 8001fd0:	d1dd      	bne.n	8001f8e <_Color2IndexBulk_M4444I+0xe>
 8001fd2:	bdf1      	pop	{r0, r4, r5, r6, r7, pc}

08001fd4 <_Index2ColorBulk_M4444I>:
 8001fd4:	b5f8      	push	{r3, r4, r5, r6, r7, lr}
 8001fd6:	4c18      	ldr	r4, [pc, #96]	; (8002038 <.text_10>)
 8001fd8:	6864      	ldr	r4, [r4, #4]
 8001fda:	0025      	movs	r5, r4
 8001fdc:	d001      	beq.n	8001fe2 <_Index2ColorBulk_M4444I+0xe>
 8001fde:	47a0      	blx	r4
 8001fe0:	bdf1      	pop	{r0, r4, r5, r6, r7, pc}
 8001fe2:	1e54      	subs	r4, r2, #1
 8001fe4:	fb03 0004 	mla	r0, r3, r4, r0
 8001fe8:	eb01 0182 	add.w	r1, r1, r2, lsl #2
 8001fec:	1f09      	subs	r1, r1, #4
 8001fee:	4c11      	ldr	r4, [pc, #68]	; (8002034 <.text_9>)
 8001ff0:	8805      	ldrh	r5, [r0, #0]
 8001ff2:	0b2e      	lsrs	r6, r5, #12
 8001ff4:	f005 070f 	and.w	r7, r5, #15
 8001ff8:	5d36      	ldrb	r6, [r6, r4]
 8001ffa:	5d3f      	ldrb	r7, [r7, r4]
 8001ffc:	f086 06ff 	eor.w	r6, r6, #255	; 0xff
 8002000:	043f      	lsls	r7, r7, #16
 8002002:	eb07 6606 	add.w	r6, r7, r6, lsl #24
 8002006:	092f      	lsrs	r7, r5, #4
 8002008:	f007 070f 	and.w	r7, r7, #15
 800200c:	0a2d      	lsrs	r5, r5, #8
 800200e:	f005 050f 	and.w	r5, r5, #15
 8002012:	5d3f      	ldrb	r7, [r7, r4]
 8002014:	5d2d      	ldrb	r5, [r5, r4]
 8002016:	eb06 2607 	add.w	r6, r6, r7, lsl #8
 800201a:	1975      	adds	r5, r6, r5
 800201c:	f841 5904 	str.w	r5, [r1], #-4
 8002020:	425d      	negs	r5, r3
 8002022:	1828      	adds	r0, r5, r0
 8002024:	1e52      	subs	r2, r2, #1
 8002026:	d1e3      	bne.n	8001ff0 <_Index2ColorBulk_M4444I+0x1c>
 8002028:	bdf1      	pop	{r0, r4, r5, r6, r7, pc}

0800202a <GUICC_M4444I_SetCustColorConv>:
 800202a:	4a03      	ldr	r2, [pc, #12]	; (8002038 <.text_10>)
 800202c:	6010      	str	r0, [r2, #0]
 800202e:	6051      	str	r1, [r2, #4]
 8002030:	4770      	bx	lr
	...

08002034 <.text_9>:
 8002034:	08017870 	.word	0x08017870

08002038 <.text_10>:
 8002038:	200008b0 	.word	0x200008b0

0800203c <_Color2Index_M565>:
 800203c:	b510      	push	{r4, lr}
 800203e:	492c      	ldr	r1, [pc, #176]	; (80020f0 <.text_8>)
 8002040:	4c2c      	ldr	r4, [pc, #176]	; (80020f4 <.text_9>)
 8002042:	f3c0 4207 	ubfx	r2, r0, #16, #8
 8002046:	f3c0 2307 	ubfx	r3, r0, #8, #8
 800204a:	b2c0      	uxtb	r0, r0
 800204c:	5c52      	ldrb	r2, [r2, r1]
 800204e:	5d1b      	ldrb	r3, [r3, r4]
 8002050:	5c40      	ldrb	r0, [r0, r1]
 8002052:	eb02 1243 	add.w	r2, r2, r3, lsl #5
 8002056:	eb02 20c0 	add.w	r0, r2, r0, lsl #11
 800205a:	bd10      	pop	{r4, pc}

0800205c <_GetIndexMask_M565>:
 800205c:	f64f 70ff 	movw	r0, #65535	; 0xffff
 8002060:	4770      	bx	lr

08002062 <_Color2IndexBulk>:
 8002062:	b5f8      	push	{r3, r4, r5, r6, r7, lr}
 8002064:	4c24      	ldr	r4, [pc, #144]	; (80020f8 <.text_10>)
 8002066:	6824      	ldr	r4, [r4, #0]
 8002068:	0025      	movs	r5, r4
 800206a:	d001      	beq.n	8002070 <_Color2IndexBulk+0xe>
 800206c:	47a0      	blx	r4
 800206e:	bdf1      	pop	{r0, r4, r5, r6, r7, pc}
 8002070:	4c20      	ldr	r4, [pc, #128]	; (80020f4 <.text_9>)
 8002072:	4d1f      	ldr	r5, [pc, #124]	; (80020f0 <.text_8>)
 8002074:	f850 6b04 	ldr.w	r6, [r0], #4
 8002078:	f3c6 4707 	ubfx	r7, r6, #16, #8
 800207c:	f3c6 2c07 	ubfx	ip, r6, #8, #8
 8002080:	b2f6      	uxtb	r6, r6
 8002082:	5d7f      	ldrb	r7, [r7, r5]
 8002084:	f81c c004 	ldrb.w	ip, [ip, r4]
 8002088:	5d76      	ldrb	r6, [r6, r5]
 800208a:	eb07 174c 	add.w	r7, r7, ip, lsl #5
 800208e:	eb07 26c6 	add.w	r6, r7, r6, lsl #11
 8002092:	800e      	strh	r6, [r1, #0]
 8002094:	1859      	adds	r1, r3, r1
 8002096:	1e52      	subs	r2, r2, #1
 8002098:	d1ec      	bne.n	8002074 <_Color2IndexBulk+0x12>
 800209a:	bdf1      	pop	{r0, r4, r5, r6, r7, pc}

0800209c <_Index2ColorBulk>:
 800209c:	b5f8      	push	{r3, r4, r5, r6, r7, lr}
 800209e:	4c16      	ldr	r4, [pc, #88]	; (80020f8 <.text_10>)
 80020a0:	6864      	ldr	r4, [r4, #4]
 80020a2:	0025      	movs	r5, r4
 80020a4:	d001      	beq.n	80020aa <_Index2ColorBulk+0xe>
 80020a6:	47a0      	blx	r4
 80020a8:	bdf1      	pop	{r0, r4, r5, r6, r7, pc}
 80020aa:	1e54      	subs	r4, r2, #1
 80020ac:	fb03 0004 	mla	r0, r3, r4, r0
 80020b0:	eb01 0182 	add.w	r1, r1, r2, lsl #2
 80020b4:	1f09      	subs	r1, r1, #4
 80020b6:	4c11      	ldr	r4, [pc, #68]	; (80020fc <.text_11>)
 80020b8:	4d11      	ldr	r5, [pc, #68]	; (8002100 <.text_12>)
 80020ba:	8806      	ldrh	r6, [r0, #0]
 80020bc:	ea4f 1c56 	mov.w	ip, r6, lsr #5
 80020c0:	0af7      	lsrs	r7, r6, #11
 80020c2:	f00c 0c3f 	and.w	ip, ip, #63	; 0x3f
 80020c6:	f006 061f 	and.w	r6, r6, #31
 80020ca:	5d7f      	ldrb	r7, [r7, r5]
 80020cc:	f81c c004 	ldrb.w	ip, [ip, r4]
 80020d0:	5d76      	ldrb	r6, [r6, r5]
 80020d2:	eb07 270c 	add.w	r7, r7, ip, lsl #8
 80020d6:	eb07 4606 	add.w	r6, r7, r6, lsl #16
 80020da:	f841 6904 	str.w	r6, [r1], #-4
 80020de:	425e      	negs	r6, r3
 80020e0:	1830      	adds	r0, r6, r0
 80020e2:	1e52      	subs	r2, r2, #1
 80020e4:	d1e9      	bne.n	80020ba <_Index2ColorBulk+0x1e>
 80020e6:	bdf1      	pop	{r0, r4, r5, r6, r7, pc}

080020e8 <GUICC_M565_SetCustColorConv>:
 80020e8:	4a03      	ldr	r2, [pc, #12]	; (80020f8 <.text_10>)
 80020ea:	6010      	str	r0, [r2, #0]
 80020ec:	6051      	str	r1, [r2, #4]
 80020ee:	4770      	bx	lr

080020f0 <.text_8>:
 80020f0:	08017980 	.word	0x08017980

080020f4 <.text_9>:
 80020f4:	08017a80 	.word	0x08017a80

080020f8 <.text_10>:
 80020f8:	200008b8 	.word	0x200008b8

080020fc <.text_11>:
 80020fc:	08017ba0 	.word	0x08017ba0

08002100 <.text_12>:
 8002100:	08017b80 	.word	0x08017b80

08002104 <LCD_Index2Color_M565>:
 8002104:	b510      	push	{r4, lr}
 8002106:	4908      	ldr	r1, [pc, #32]	; (8002128 <LCD_Index2Color_M565+0x24>)
 8002108:	4c08      	ldr	r4, [pc, #32]	; (800212c <LCD_Index2Color_M565+0x28>)
 800210a:	f3c0 22c4 	ubfx	r2, r0, #11, #5
 800210e:	f3c0 1345 	ubfx	r3, r0, #5, #6
 8002112:	f000 001f 	and.w	r0, r0, #31
 8002116:	5c52      	ldrb	r2, [r2, r1]
 8002118:	5d1b      	ldrb	r3, [r3, r4]
 800211a:	5c40      	ldrb	r0, [r0, r1]
 800211c:	eb02 2203 	add.w	r2, r2, r3, lsl #8
 8002120:	eb02 4000 	add.w	r0, r2, r0, lsl #16
 8002124:	bd10      	pop	{r4, pc}
 8002126:	bf00      	nop
 8002128:	08017b80 	.word	0x08017b80
 800212c:	08017ba0 	.word	0x08017ba0

08002130 <_Color2Index_M888>:
 8002130:	b2c1      	uxtb	r1, r0
 8002132:	f400 427f 	and.w	r2, r0, #65280	; 0xff00
 8002136:	ea42 4101 	orr.w	r1, r2, r1, lsl #16
 800213a:	f3c0 4007 	ubfx	r0, r0, #16, #8
 800213e:	4308      	orrs	r0, r1
 8002140:	4770      	bx	lr

08002142 <_GetIndexMask_M888>:
 8002142:	f06f 407f 	mvn.w	r0, #4278190080	; 0xff000000
 8002146:	4770      	bx	lr

08002148 <_Color2IndexBulk>:
 8002148:	b570      	push	{r4, r5, r6, lr}
 800214a:	4c17      	ldr	r4, [pc, #92]	; (80021a8 <.text_8>)
 800214c:	6824      	ldr	r4, [r4, #0]
 800214e:	0025      	movs	r5, r4
 8002150:	d001      	beq.n	8002156 <_Color2IndexBulk+0xe>
 8002152:	47a0      	blx	r4
 8002154:	bd70      	pop	{r4, r5, r6, pc}
 8002156:	f850 4b04 	ldr.w	r4, [r0], #4
 800215a:	b2e5      	uxtb	r5, r4
 800215c:	f404 467f 	and.w	r6, r4, #65280	; 0xff00
 8002160:	ea46 4505 	orr.w	r5, r6, r5, lsl #16
 8002164:	f3c4 4407 	ubfx	r4, r4, #16, #8
 8002168:	432c      	orrs	r4, r5
 800216a:	600c      	str	r4, [r1, #0]
 800216c:	1859      	adds	r1, r3, r1
 800216e:	1e52      	subs	r2, r2, #1
 8002170:	d1f1      	bne.n	8002156 <_Color2IndexBulk+0xe>
 8002172:	bd70      	pop	{r4, r5, r6, pc}

08002174 <_Index2ColorBulk>:
 8002174:	b570      	push	{r4, r5, r6, lr}
 8002176:	4c0c      	ldr	r4, [pc, #48]	; (80021a8 <.text_8>)
 8002178:	6864      	ldr	r4, [r4, #4]
 800217a:	0025      	movs	r5, r4
 800217c:	d001      	beq.n	8002182 <_Index2ColorBulk+0xe>
 800217e:	47a0      	blx	r4
 8002180:	bd70      	pop	{r4, r5, r6, pc}
 8002182:	6804      	ldr	r4, [r0, #0]
 8002184:	b2e5      	uxtb	r5, r4
 8002186:	f404 467f 	and.w	r6, r4, #65280	; 0xff00
 800218a:	ea46 4505 	orr.w	r5, r6, r5, lsl #16
 800218e:	f3c4 4407 	ubfx	r4, r4, #16, #8
 8002192:	432c      	orrs	r4, r5
 8002194:	1818      	adds	r0, r3, r0
 8002196:	f841 4b04 	str.w	r4, [r1], #4
 800219a:	1e52      	subs	r2, r2, #1
 800219c:	d1f1      	bne.n	8002182 <_Index2ColorBulk+0xe>
 800219e:	bd70      	pop	{r4, r5, r6, pc}

080021a0 <GUICC_M888_SetCustColorConv>:
 80021a0:	4a01      	ldr	r2, [pc, #4]	; (80021a8 <.text_8>)
 80021a2:	6010      	str	r0, [r2, #0]
 80021a4:	6051      	str	r1, [r2, #4]
 80021a6:	4770      	bx	lr

080021a8 <.text_8>:
 80021a8:	200008c0 	.word	0x200008c0

080021ac <_Color2Index_M8888I>:
 80021ac:	e000      	b.n	80021b0 <.text_5>

080021ae <_Index2Color_M8888I>:
 80021ae:	bf00      	nop

080021b0 <.text_5>:
 80021b0:	f000 417f 	and.w	r1, r0, #4278190080	; 0xff000000
 80021b4:	f04f 427f 	mov.w	r2, #4278190080	; 0xff000000
 80021b8:	4051      	eors	r1, r2
 80021ba:	b2c2      	uxtb	r2, r0
 80021bc:	ea41 4202 	orr.w	r2, r1, r2, lsl #16
 80021c0:	f400 437f 	and.w	r3, r0, #65280	; 0xff00
 80021c4:	431a      	orrs	r2, r3
 80021c6:	f3c0 4007 	ubfx	r0, r0, #16, #8
 80021ca:	4310      	orrs	r0, r2
 80021cc:	4308      	orrs	r0, r1
 80021ce:	4770      	bx	lr

080021d0 <_GetIndexMask_M8888I>:
 80021d0:	f04f 30ff 	mov.w	r0, #4294967295
 80021d4:	4770      	bx	lr

080021d6 <_Color2IndexBulk_M8888I>:
 80021d6:	b5f8      	push	{r3, r4, r5, r6, r7, lr}
 80021d8:	4c1e      	ldr	r4, [pc, #120]	; (8002254 <.text_10>)
 80021da:	6824      	ldr	r4, [r4, #0]
 80021dc:	0025      	movs	r5, r4
 80021de:	d001      	beq.n	80021e4 <_Color2IndexBulk_M8888I+0xe>
 80021e0:	47a0      	blx	r4
 80021e2:	bdf1      	pop	{r0, r4, r5, r6, r7, pc}
 80021e4:	f850 4b04 	ldr.w	r4, [r0], #4
 80021e8:	f004 457f 	and.w	r5, r4, #4278190080	; 0xff000000
 80021ec:	f04f 467f 	mov.w	r6, #4278190080	; 0xff000000
 80021f0:	4075      	eors	r5, r6
 80021f2:	b2e6      	uxtb	r6, r4
 80021f4:	ea45 4606 	orr.w	r6, r5, r6, lsl #16
 80021f8:	f404 477f 	and.w	r7, r4, #65280	; 0xff00
 80021fc:	433e      	orrs	r6, r7
 80021fe:	f3c4 4407 	ubfx	r4, r4, #16, #8
 8002202:	4334      	orrs	r4, r6
 8002204:	432c      	orrs	r4, r5
 8002206:	600c      	str	r4, [r1, #0]
 8002208:	1859      	adds	r1, r3, r1
 800220a:	1e52      	subs	r2, r2, #1
 800220c:	d1ea      	bne.n	80021e4 <_Color2IndexBulk_M8888I+0xe>
 800220e:	bdf1      	pop	{r0, r4, r5, r6, r7, pc}

08002210 <_Index2ColorBulk_M8888I>:
 8002210:	b5f8      	push	{r3, r4, r5, r6, r7, lr}
 8002212:	4c10      	ldr	r4, [pc, #64]	; (8002254 <.text_10>)
 8002214:	6864      	ldr	r4, [r4, #4]
 8002216:	0025      	movs	r5, r4
 8002218:	d001      	beq.n	800221e <_Index2ColorBulk_M8888I+0xe>
 800221a:	47a0      	blx	r4
 800221c:	bdf1      	pop	{r0, r4, r5, r6, r7, pc}
 800221e:	6804      	ldr	r4, [r0, #0]
 8002220:	f004 457f 	and.w	r5, r4, #4278190080	; 0xff000000
 8002224:	f04f 467f 	mov.w	r6, #4278190080	; 0xff000000
 8002228:	4075      	eors	r5, r6
 800222a:	b2e6      	uxtb	r6, r4
 800222c:	ea45 4606 	orr.w	r6, r5, r6, lsl #16
 8002230:	f404 477f 	and.w	r7, r4, #65280	; 0xff00
 8002234:	433e      	orrs	r6, r7
 8002236:	f3c4 4407 	ubfx	r4, r4, #16, #8
 800223a:	4334      	orrs	r4, r6
 800223c:	432c      	orrs	r4, r5
 800223e:	1818      	adds	r0, r3, r0
 8002240:	f841 4b04 	str.w	r4, [r1], #4
 8002244:	1e52      	subs	r2, r2, #1
 8002246:	d1ea      	bne.n	800221e <_Index2ColorBulk_M8888I+0xe>
 8002248:	bdf1      	pop	{r0, r4, r5, r6, r7, pc}

0800224a <GUICC_M8888I_SetCustColorConv>:
 800224a:	4a02      	ldr	r2, [pc, #8]	; (8002254 <.text_10>)
 800224c:	6010      	str	r0, [r2, #0]
 800224e:	6051      	str	r1, [r2, #4]
 8002250:	4770      	bx	lr
	...

08002254 <.text_10>:
 8002254:	200008c8 	.word	0x200008c8

08002258 <LCD_Index2Color_M888>:
 8002258:	b2c1      	uxtb	r1, r0
 800225a:	f400 427f 	and.w	r2, r0, #65280	; 0xff00
 800225e:	ea42 4101 	orr.w	r1, r2, r1, lsl #16
 8002262:	f3c0 4007 	ubfx	r0, r0, #16, #8
 8002266:	4308      	orrs	r0, r1
 8002268:	4770      	bx	lr
	...

0800226c <GUI_MEMDEV__WriteToActiveAt>:
 800226c:	b5f8      	push	{r3, r4, r5, r6, r7, lr}
 800226e:	4604      	mov	r4, r0
 8002270:	460d      	mov	r5, r1
 8002272:	4616      	mov	r6, r2
 8002274:	f7fe fa69 	bl	800074a <GUI_ALLOC_LockH>
 8002278:	4602      	mov	r2, r0
 800227a:	9200      	str	r2, [sp, #0]
 800227c:	2116      	movs	r1, #22
 800227e:	6812      	ldr	r2, [r2, #0]
 8002280:	68d2      	ldr	r2, [r2, #12]
 8002282:	6a52      	ldr	r2, [r2, #36]	; 0x24
 8002284:	2000      	movs	r0, #0
 8002286:	4790      	blx	r2
 8002288:	4607      	mov	r7, r0
 800228a:	f000 f8ab 	bl	80023e4 <.text_6>
 800228e:	0038      	movs	r0, r7
 8002290:	d003      	beq.n	800229a <GUI_MEMDEV__WriteToActiveAt+0x2e>
 8002292:	4632      	mov	r2, r6
 8002294:	4629      	mov	r1, r5
 8002296:	4620      	mov	r0, r4
 8002298:	47b8      	blx	r7
 800229a:	bdf1      	pop	{r0, r4, r5, r6, r7, pc}

0800229c <GUI_MEMDEV__CreateFixed>:
 800229c:	e92d 4ff3 	stmdb	sp!, {r0, r1, r4, r5, r6, r7, r8, r9, sl, fp, lr}
 80022a0:	f8df b2bc 	ldr.w	fp, [pc, #700]	; 8002560 <.text_12>
 80022a4:	f8db 0000 	ldr.w	r0, [fp]
 80022a8:	b083      	sub	sp, #12
 80022aa:	461d      	mov	r5, r3
 80022ac:	7c43      	ldrb	r3, [r0, #17]
 80022ae:	9910      	ldr	r1, [sp, #64]	; 0x40
 80022b0:	980f      	ldr	r0, [sp, #60]	; 0x3c
 80022b2:	4690      	mov	r8, r2
 80022b4:	2600      	movs	r6, #0
 80022b6:	2200      	movs	r2, #0
 80022b8:	f7fe fdb0 	bl	8000e1c <GUI_DEVICE_Create>
 80022bc:	0004      	movs	r4, r0
 80022be:	d042      	beq.n	8002346 <GUI_MEMDEV__CreateFixed+0xaa>
 80022c0:	6920      	ldr	r0, [r4, #16]
 80022c2:	6880      	ldr	r0, [r0, #8]
 80022c4:	4780      	blx	r0
 80022c6:	f002 fdd8 	bl	8004e7a <LCD__GetBPPDevice>
 80022ca:	4681      	mov	r9, r0
 80022cc:	fb09 f008 	mul.w	r0, r9, r8
 80022d0:	1dc0      	adds	r0, r0, #7
 80022d2:	ea4f 0ad0 	mov.w	sl, r0, lsr #3
 80022d6:	f7fe fa87 	bl	80007e8 <GUI_ALLOC_RequestSize>
 80022da:	9f0e      	ldr	r7, [sp, #56]	; 0x38
 80022dc:	07f9      	lsls	r1, r7, #31
 80022de:	d405      	bmi.n	80022ec <GUI_MEMDEV__CreateFixed+0x50>
 80022e0:	1041      	asrs	r1, r0, #1
 80022e2:	eb00 7091 	add.w	r0, r0, r1, lsr #30
 80022e6:	1080      	asrs	r0, r0, #2
 80022e8:	eb00 0040 	add.w	r0, r0, r0, lsl #1
 80022ec:	2d01      	cmp	r5, #1
 80022ee:	da07      	bge.n	8002300 <GUI_MEMDEV__CreateFixed+0x64>
 80022f0:	3818      	subs	r0, #24
 80022f2:	4269      	negs	r1, r5
 80022f4:	fbb0 f0fa 	udiv	r0, r0, sl
 80022f8:	460d      	mov	r5, r1
 80022fa:	4285      	cmp	r5, r0
 80022fc:	bfc8      	it	gt
 80022fe:	4605      	movgt	r5, r0
 8002300:	07f8      	lsls	r0, r7, #31
 8002302:	d407      	bmi.n	8002314 <GUI_MEMDEV__CreateFixed+0x78>
 8002304:	9904      	ldr	r1, [sp, #16]
 8002306:	9803      	ldr	r0, [sp, #12]
 8002308:	9600      	str	r6, [sp, #0]
 800230a:	462b      	mov	r3, r5
 800230c:	4642      	mov	r2, r8
 800230e:	f000 fa26 	bl	800275e <GUI_USAGE_BM_Create>
 8002312:	4606      	mov	r6, r0
 8002314:	2d01      	cmp	r5, #1
 8002316:	da03      	bge.n	8002320 <GUI_MEMDEV__CreateFixed+0x84>
 8002318:	4620      	mov	r0, r4
 800231a:	f7fe fd7d 	bl	8000e18 <GUI_DEVICE_Delete>
 800231e:	e012      	b.n	8002346 <GUI_MEMDEV__CreateFixed+0xaa>
 8002320:	fb0a f005 	mul.w	r0, sl, r5
 8002324:	3018      	adds	r0, #24
 8002326:	07f9      	lsls	r1, r7, #31
 8002328:	d502      	bpl.n	8002330 <GUI_MEMDEV__CreateFixed+0x94>
 800232a:	f7fe fa01 	bl	8000730 <GUI_ALLOC_AllocNoInit>
 800232e:	e001      	b.n	8002334 <GUI_MEMDEV__CreateFixed+0x98>
 8002330:	f7fe fad2 	bl	80008d8 <GUI_ALLOC_AllocZero>
 8002334:	0007      	movs	r7, r0
 8002336:	d108      	bne.n	800234a <GUI_MEMDEV__CreateFixed+0xae>
 8002338:	4620      	mov	r0, r4
 800233a:	f7fe fd6d 	bl	8000e18 <GUI_DEVICE_Delete>
 800233e:	b116      	cbz	r6, 8002346 <GUI_MEMDEV__CreateFixed+0xaa>
 8002340:	4630      	mov	r0, r6
 8002342:	f7fe fa8b 	bl	800085c <GUI_ALLOC_Free>
 8002346:	2000      	movs	r0, #0
 8002348:	e01a      	b.n	8002380 <GUI_MEMDEV__CreateFixed+0xe4>
 800234a:	f7fe f9fe 	bl	800074a <GUI_ALLOC_LockH>
 800234e:	9001      	str	r0, [sp, #4]
 8002350:	6004      	str	r4, [r0, #0]
 8002352:	9903      	ldr	r1, [sp, #12]
 8002354:	8081      	strh	r1, [r0, #4]
 8002356:	9904      	ldr	r1, [sp, #16]
 8002358:	80c1      	strh	r1, [r0, #6]
 800235a:	f8a0 8008 	strh.w	r8, [r0, #8]
 800235e:	8145      	strh	r5, [r0, #10]
 8002360:	f8c0 a00c 	str.w	sl, [r0, #12]
 8002364:	f8c0 9010 	str.w	r9, [r0, #16]
 8002368:	6146      	str	r6, [r0, #20]
 800236a:	a801      	add	r0, sp, #4
 800236c:	f7fe f9f8 	bl	8000760 <GUI_ALLOC_UnlockH>
 8002370:	9810      	ldr	r0, [sp, #64]	; 0x40
 8002372:	6120      	str	r0, [r4, #16]
 8002374:	60a7      	str	r7, [r4, #8]
 8002376:	f8db 0000 	ldr.w	r0, [fp]
 800237a:	7c40      	ldrb	r0, [r0, #17]
 800237c:	61a0      	str	r0, [r4, #24]
 800237e:	4638      	mov	r0, r7
 8002380:	b005      	add	sp, #20
 8002382:	e8bd 8ff0 	ldmia.w	sp!, {r4, r5, r6, r7, r8, r9, sl, fp, pc}

08002386 <GUI_MEMDEV_GetBitsPerPixel>:
 8002386:	b510      	push	{r4, lr}
 8002388:	b082      	sub	sp, #8
 800238a:	2400      	movs	r4, #0
 800238c:	b158      	cbz	r0, 80023a6 <GUI_MEMDEV_GetBitsPerPixel+0x20>
 800238e:	f7fe f9dc 	bl	800074a <GUI_ALLOC_LockH>
 8002392:	9000      	str	r0, [sp, #0]
 8002394:	6800      	ldr	r0, [r0, #0]
 8002396:	6900      	ldr	r0, [r0, #16]
 8002398:	6880      	ldr	r0, [r0, #8]
 800239a:	4780      	blx	r0
 800239c:	f002 fd6d 	bl	8004e7a <LCD__GetBPPDevice>
 80023a0:	4604      	mov	r4, r0
 80023a2:	f000 f81f 	bl	80023e4 <.text_6>
 80023a6:	4620      	mov	r0, r4
 80023a8:	bd16      	pop	{r1, r2, r4, pc}

080023aa <GUI_MEMDEV_Delete>:
 80023aa:	b510      	push	{r4, lr}
 80023ac:	b082      	sub	sp, #8
 80023ae:	0004      	movs	r4, r0
 80023b0:	d017      	beq.n	80023e2 <GUI_MEMDEV_Delete+0x38>
 80023b2:	486b      	ldr	r0, [pc, #428]	; (8002560 <.text_12>)
 80023b4:	6800      	ldr	r0, [r0, #0]
 80023b6:	6e00      	ldr	r0, [r0, #96]	; 0x60
 80023b8:	42a0      	cmp	r0, r4
 80023ba:	bf08      	it	eq
 80023bc:	f7ff f9d0 	bleq	8001760 <GUI_SelectLCD>
 80023c0:	4620      	mov	r0, r4
 80023c2:	f7fe f9c2 	bl	800074a <GUI_ALLOC_LockH>
 80023c6:	9000      	str	r0, [sp, #0]
 80023c8:	6940      	ldr	r0, [r0, #20]
 80023ca:	b108      	cbz	r0, 80023d0 <GUI_MEMDEV_Delete+0x26>
 80023cc:	f000 f900 	bl	80025d0 <GUI_USAGE_DecUseCnt>
 80023d0:	9800      	ldr	r0, [sp, #0]
 80023d2:	6800      	ldr	r0, [r0, #0]
 80023d4:	f7fe fd20 	bl	8000e18 <GUI_DEVICE_Delete>
 80023d8:	f000 f804 	bl	80023e4 <.text_6>
 80023dc:	4620      	mov	r0, r4
 80023de:	f7fe fa3d 	bl	800085c <GUI_ALLOC_Free>
 80023e2:	bd13      	pop	{r0, r1, r4, pc}

080023e4 <.text_6>:
 80023e4:	a800      	add	r0, sp, #0
 80023e6:	f7fe b9bb 	b.w	8000760 <GUI_ALLOC_UnlockH>

080023ea <GUI_MEMDEV_CreateEx>:
 80023ea:	e92d 47f0 	stmdb	sp!, {r4, r5, r6, r7, r8, r9, sl, lr}
 80023ee:	4604      	mov	r4, r0
 80023f0:	485b      	ldr	r0, [pc, #364]	; (8002560 <.text_12>)
 80023f2:	6800      	ldr	r0, [r0, #0]
 80023f4:	b084      	sub	sp, #16
 80023f6:	4688      	mov	r8, r1
 80023f8:	7c40      	ldrb	r0, [r0, #17]
 80023fa:	495a      	ldr	r1, [pc, #360]	; (8002564 <.text_13>)
 80023fc:	f851 7020 	ldr.w	r7, [r1, r0, lsl #2]
 8002400:	4691      	mov	r9, r2
 8002402:	469a      	mov	sl, r3
 8002404:	2600      	movs	r6, #0
 8002406:	68f9      	ldr	r1, [r7, #12]
 8002408:	6809      	ldr	r1, [r1, #0]
 800240a:	2904      	cmp	r1, #4
 800240c:	d003      	beq.n	8002416 <GUI_MEMDEV_CreateEx+0x2c>
 800240e:	683f      	ldr	r7, [r7, #0]
 8002410:	2f00      	cmp	r7, #0
 8002412:	d1f8      	bne.n	8002406 <GUI_MEMDEV_CreateEx+0x1c>
 8002414:	e000      	b.n	8002418 <GUI_MEMDEV_CreateEx+0x2e>
 8002416:	b917      	cbnz	r7, 800241e <GUI_MEMDEV_CreateEx+0x34>
 8002418:	f7fe fcee 	bl	8000df8 <GUI_DEVICE__GetpDriver>
 800241c:	4607      	mov	r7, r0
 800241e:	68fa      	ldr	r2, [r7, #12]
 8002420:	6ad2      	ldr	r2, [r2, #44]	; 0x2c
 8002422:	2101      	movs	r1, #1
 8002424:	4638      	mov	r0, r7
 8002426:	4790      	blx	r2
 8002428:	0005      	movs	r5, r0
 800242a:	d013      	beq.n	8002454 <GUI_MEMDEV_CreateEx+0x6a>
 800242c:	693f      	ldr	r7, [r7, #16]
 800242e:	9e0c      	ldr	r6, [sp, #48]	; 0x30
 8002430:	68b8      	ldr	r0, [r7, #8]
 8002432:	4780      	blx	r0
 8002434:	f110 0f01 	cmn.w	r0, #1
 8002438:	bf04      	itt	eq
 800243a:	4f4b      	ldreq	r7, [pc, #300]	; (8002568 <.text_14>)
 800243c:	f046 0601 	orreq.w	r6, r6, #1
 8002440:	9702      	str	r7, [sp, #8]
 8002442:	9501      	str	r5, [sp, #4]
 8002444:	9600      	str	r6, [sp, #0]
 8002446:	4653      	mov	r3, sl
 8002448:	464a      	mov	r2, r9
 800244a:	4641      	mov	r1, r8
 800244c:	4620      	mov	r0, r4
 800244e:	f7ff ff25 	bl	800229c <GUI_MEMDEV__CreateFixed>
 8002452:	4606      	mov	r6, r0
 8002454:	4630      	mov	r0, r6
 8002456:	b004      	add	sp, #16
 8002458:	e8bd 87f0 	ldmia.w	sp!, {r4, r5, r6, r7, r8, r9, sl, pc}

0800245c <GUI_MEMDEV_Create>:
 800245c:	b510      	push	{r4, lr}
 800245e:	b082      	sub	sp, #8
 8002460:	2400      	movs	r4, #0
 8002462:	9400      	str	r4, [sp, #0]
 8002464:	f7ff ffc1 	bl	80023ea <GUI_MEMDEV_CreateEx>
 8002468:	bd16      	pop	{r1, r2, r4, pc}

0800246a <GUI_MEMDEV_Select>:
 800246a:	b570      	push	{r4, r5, r6, lr}
 800246c:	4d3c      	ldr	r5, [pc, #240]	; (8002560 <.text_12>)
 800246e:	0004      	movs	r4, r0
 8002470:	6828      	ldr	r0, [r5, #0]
 8002472:	b082      	sub	sp, #8
 8002474:	6e06      	ldr	r6, [r0, #96]	; 0x60
 8002476:	d102      	bne.n	800247e <GUI_MEMDEV_Select+0x14>
 8002478:	f7ff f972 	bl	8001760 <GUI_SelectLCD>
 800247c:	e01d      	b.n	80024ba <GUI_MEMDEV_Select+0x50>
 800247e:	b10e      	cbz	r6, 8002484 <GUI_MEMDEV_Select+0x1a>
 8002480:	f7ff f96e 	bl	8001760 <GUI_SelectLCD>
 8002484:	f003 fe7b 	bl	800617e <WM_Deactivate>
 8002488:	4620      	mov	r0, r4
 800248a:	f7fe f95e 	bl	800074a <GUI_ALLOC_LockH>
 800248e:	6829      	ldr	r1, [r5, #0]
 8002490:	9000      	str	r0, [sp, #0]
 8002492:	6e08      	ldr	r0, [r1, #96]	; 0x60
 8002494:	b928      	cbnz	r0, 80024a2 <GUI_MEMDEV_Select+0x38>
 8002496:	f101 0064 	add.w	r0, r1, #100	; 0x64
 800249a:	3108      	adds	r1, #8
 800249c:	2208      	movs	r2, #8
 800249e:	f009 f8f5 	bl	800b68c <__aeabi_memcpy>
 80024a2:	6828      	ldr	r0, [r5, #0]
 80024a4:	6604      	str	r4, [r0, #96]	; 0x60
 80024a6:	9800      	ldr	r0, [sp, #0]
 80024a8:	6800      	ldr	r0, [r0, #0]
 80024aa:	f7fe fcdb 	bl	8000e64 <GUI_DEVICE_Link>
 80024ae:	f7ff ff99 	bl	80023e4 <.text_6>
 80024b2:	f002 fe79 	bl	80051a8 <LCD_UpdateColorIndices>
 80024b6:	f002 f9fc 	bl	80048b2 <LCD_SetClipRectMax>
 80024ba:	4630      	mov	r0, r6
 80024bc:	bd76      	pop	{r1, r2, r4, r5, r6, pc}

080024be <GUI_MEMDEV_CopyToLCDAt>:
 80024be:	e92d 43fe 	stmdb	sp!, {r1, r2, r3, r4, r5, r6, r7, r8, r9, lr}
 80024c2:	0004      	movs	r4, r0
 80024c4:	4688      	mov	r8, r1
 80024c6:	4691      	mov	r9, r2
 80024c8:	d045      	beq.n	8002556 <GUI_MEMDEV_CopyToLCDAt+0x98>
 80024ca:	2000      	movs	r0, #0
 80024cc:	f7ff f957 	bl	800177e <GUI_SetDrawMode>
 80024d0:	4605      	mov	r5, r0
 80024d2:	4823      	ldr	r0, [pc, #140]	; (8002560 <.text_12>)
 80024d4:	6800      	ldr	r0, [r0, #0]
 80024d6:	6e06      	ldr	r6, [r0, #96]	; 0x60
 80024d8:	4620      	mov	r0, r4
 80024da:	f7fe f936 	bl	800074a <GUI_ALLOC_LockH>
 80024de:	9000      	str	r0, [sp, #0]
 80024e0:	6800      	ldr	r0, [r0, #0]
 80024e2:	6980      	ldr	r0, [r0, #24]
 80024e4:	f7ff f8fc 	bl	80016e0 <GUI_SelectLayer>
 80024e8:	4607      	mov	r7, r0
 80024ea:	4820      	ldr	r0, [pc, #128]	; (800256c <.text_15>)
 80024ec:	4580      	cmp	r8, r0
 80024ee:	d104      	bne.n	80024fa <GUI_MEMDEV_CopyToLCDAt+0x3c>
 80024f0:	9800      	ldr	r0, [sp, #0]
 80024f2:	f9b0 8004 	ldrsh.w	r8, [r0, #4]
 80024f6:	f9b0 9006 	ldrsh.w	r9, [r0, #6]
 80024fa:	9900      	ldr	r1, [sp, #0]
 80024fc:	f8ad 8004 	strh.w	r8, [sp, #4]
 8002500:	f8bd 0004 	ldrh.w	r0, [sp, #4]
 8002504:	8909      	ldrh	r1, [r1, #8]
 8002506:	f8ad 9006 	strh.w	r9, [sp, #6]
 800250a:	1808      	adds	r0, r1, r0
 800250c:	1e40      	subs	r0, r0, #1
 800250e:	9900      	ldr	r1, [sp, #0]
 8002510:	f8ad 0008 	strh.w	r0, [sp, #8]
 8002514:	8949      	ldrh	r1, [r1, #10]
 8002516:	f8bd 0006 	ldrh.w	r0, [sp, #6]
 800251a:	1808      	adds	r0, r1, r0
 800251c:	1e40      	subs	r0, r0, #1
 800251e:	f8ad 000a 	strh.w	r0, [sp, #10]
 8002522:	f003 fe26 	bl	8006172 <WM_Activate>
 8002526:	f7ff ff5d 	bl	80023e4 <.text_6>
 800252a:	a801      	add	r0, sp, #4
 800252c:	f003 fb6d 	bl	8005c0a <WM__InitIVRSearch>
 8002530:	b140      	cbz	r0, 8002544 <GUI_MEMDEV_CopyToLCDAt+0x86>
 8002532:	464a      	mov	r2, r9
 8002534:	4641      	mov	r1, r8
 8002536:	4620      	mov	r0, r4
 8002538:	f000 fc16 	bl	8002d68 <GUI_MEMDEV__WriteToActiveOpaque>
 800253c:	f003 fb4a 	bl	8005bd4 <WM__GetNextIVR>
 8002540:	2800      	cmp	r0, #0
 8002542:	d1f6      	bne.n	8002532 <GUI_MEMDEV_CopyToLCDAt+0x74>
 8002544:	4638      	mov	r0, r7
 8002546:	f7ff f8cb 	bl	80016e0 <GUI_SelectLayer>
 800254a:	4630      	mov	r0, r6
 800254c:	f7ff ff8d 	bl	800246a <GUI_MEMDEV_Select>
 8002550:	4628      	mov	r0, r5
 8002552:	f7ff f914 	bl	800177e <GUI_SetDrawMode>
 8002556:	e8bd 83f7 	ldmia.w	sp!, {r0, r1, r2, r4, r5, r6, r7, r8, r9, pc}

0800255a <GUI_MEMDEV_CopyToLCD>:
 800255a:	4a04      	ldr	r2, [pc, #16]	; (800256c <.text_15>)
 800255c:	4611      	mov	r1, r2
 800255e:	e7ae      	b.n	80024be <GUI_MEMDEV_CopyToLCDAt>

08002560 <.text_12>:
 8002560:	2000000c 	.word	0x2000000c

08002564 <.text_13>:
 8002564:	200007fc 	.word	0x200007fc

08002568 <.text_14>:
 8002568:	08017c10 	.word	0x08017c10

0800256c <.text_15>:
 800256c:	fffff001 	.word	0xfffff001

08002570 <GUI_MEMDEV_MarkDirty>:
 8002570:	b5fe      	push	{r1, r2, r3, r4, r5, r6, r7, lr}
 8002572:	460c      	mov	r4, r1
 8002574:	4615      	mov	r5, r2
 8002576:	461e      	mov	r6, r3
 8002578:	b1c0      	cbz	r0, 80025ac <GUI_MEMDEV_MarkDirty+0x3c>
 800257a:	f7fe f8e6 	bl	800074a <GUI_ALLOC_LockH>
 800257e:	9002      	str	r0, [sp, #8]
 8002580:	6947      	ldr	r7, [r0, #20]
 8002582:	a802      	add	r0, sp, #8
 8002584:	f7fe f8ec 	bl	8000760 <GUI_ALLOC_UnlockH>
 8002588:	b187      	cbz	r7, 80025ac <GUI_MEMDEV_MarkDirty+0x3c>
 800258a:	4638      	mov	r0, r7
 800258c:	f7fe f8dd 	bl	800074a <GUI_ALLOC_LockH>
 8002590:	9908      	ldr	r1, [sp, #32]
 8002592:	9001      	str	r0, [sp, #4]
 8002594:	1b49      	subs	r1, r1, r5
 8002596:	1c49      	adds	r1, r1, #1
 8002598:	9100      	str	r1, [sp, #0]
 800259a:	462a      	mov	r2, r5
 800259c:	1b31      	subs	r1, r6, r4
 800259e:	1c4b      	adds	r3, r1, #1
 80025a0:	4621      	mov	r1, r4
 80025a2:	f000 f826 	bl	80025f2 <GUI_USAGE_AddRect>
 80025a6:	a801      	add	r0, sp, #4
 80025a8:	f7fe f8da 	bl	8000760 <GUI_ALLOC_UnlockH>
 80025ac:	bdf7      	pop	{r0, r1, r2, r4, r5, r6, r7, pc}
	...

080025b0 <GUI_USAGE_Select>:
 80025b0:	b510      	push	{r4, lr}
 80025b2:	4604      	mov	r4, r0
 80025b4:	4805      	ldr	r0, [pc, #20]	; (80025cc <.text_3>)
 80025b6:	6800      	ldr	r0, [r0, #0]
 80025b8:	b082      	sub	sp, #8
 80025ba:	6e00      	ldr	r0, [r0, #96]	; 0x60
 80025bc:	f7fe f8c5 	bl	800074a <GUI_ALLOC_LockH>
 80025c0:	9000      	str	r0, [sp, #0]
 80025c2:	6144      	str	r4, [r0, #20]
 80025c4:	a800      	add	r0, sp, #0
 80025c6:	f7fe f8cb 	bl	8000760 <GUI_ALLOC_UnlockH>
 80025ca:	bd13      	pop	{r0, r1, r4, pc}

080025cc <.text_3>:
 80025cc:	2000000c 	.word	0x2000000c

080025d0 <GUI_USAGE_DecUseCnt>:
 80025d0:	b538      	push	{r3, r4, r5, lr}
 80025d2:	4604      	mov	r4, r0
 80025d4:	f7fe f8b9 	bl	800074a <GUI_ALLOC_LockH>
 80025d8:	9000      	str	r0, [sp, #0]
 80025da:	8981      	ldrh	r1, [r0, #12]
 80025dc:	1e4d      	subs	r5, r1, #1
 80025de:	8185      	strh	r5, [r0, #12]
 80025e0:	a800      	add	r0, sp, #0
 80025e2:	f7fe f8bd 	bl	8000760 <GUI_ALLOC_UnlockH>
 80025e6:	b22d      	sxth	r5, r5
 80025e8:	b915      	cbnz	r5, 80025f0 <GUI_USAGE_DecUseCnt+0x20>
 80025ea:	4620      	mov	r0, r4
 80025ec:	f7fe f936 	bl	800085c <GUI_ALLOC_Free>
 80025f0:	bd31      	pop	{r0, r4, r5, pc}

080025f2 <GUI_USAGE_AddRect>:
 80025f2:	e92d 41f0 	stmdb	sp!, {r4, r5, r6, r7, r8, lr}
 80025f6:	9f06      	ldr	r7, [sp, #24]
 80025f8:	4604      	mov	r4, r0
 80025fa:	460d      	mov	r5, r1
 80025fc:	4616      	mov	r6, r2
 80025fe:	4698      	mov	r8, r3
 8002600:	f8d4 c008 	ldr.w	ip, [r4, #8]
 8002604:	f8dc c004 	ldr.w	ip, [ip, #4]
 8002608:	4643      	mov	r3, r8
 800260a:	4632      	mov	r2, r6
 800260c:	4629      	mov	r1, r5
 800260e:	4620      	mov	r0, r4
 8002610:	47e0      	blx	ip
 8002612:	1c76      	adds	r6, r6, #1
 8002614:	1e7f      	subs	r7, r7, #1
 8002616:	d1f3      	bne.n	8002600 <GUI_USAGE_AddRect+0xe>
 8002618:	e8bd 81f0 	ldmia.w	sp!, {r4, r5, r6, r7, r8, pc}

0800261c <GUI_USAGE_BM_AddPixel>:
 800261c:	f9b0 3000 	ldrsh.w	r3, [r0]
 8002620:	1ac9      	subs	r1, r1, r3
 8002622:	f9b0 3002 	ldrsh.w	r3, [r0, #2]
 8002626:	1ad2      	subs	r2, r2, r3
 8002628:	6903      	ldr	r3, [r0, #16]
 800262a:	fb03 0002 	mla	r0, r3, r2, r0
 800262e:	eb00 00e1 	add.w	r0, r0, r1, asr #3
 8002632:	2380      	movs	r3, #128	; 0x80
 8002634:	f810 2f14 	ldrb.w	r2, [r0, #20]!
 8002638:	f001 0107 	and.w	r1, r1, #7
 800263c:	fa23 f101 	lsr.w	r1, r3, r1
 8002640:	4311      	orrs	r1, r2
 8002642:	7001      	strb	r1, [r0, #0]
 8002644:	4770      	bx	lr

08002646 <GUI_USAGE_BM_AddHLine>:
 8002646:	b570      	push	{r4, r5, r6, lr}
 8002648:	f9b0 4000 	ldrsh.w	r4, [r0]
 800264c:	1b09      	subs	r1, r1, r4
 800264e:	f9b0 4004 	ldrsh.w	r4, [r0, #4]
 8002652:	42a1      	cmp	r1, r4
 8002654:	da2f      	bge.n	80026b6 <GUI_USAGE_BM_AddHLine+0x70>
 8002656:	f9b0 4002 	ldrsh.w	r4, [r0, #2]
 800265a:	1b12      	subs	r2, r2, r4
 800265c:	6904      	ldr	r4, [r0, #16]
 800265e:	10cd      	asrs	r5, r1, #3
 8002660:	fb04 0002 	mla	r0, r4, r2, r0
 8002664:	1828      	adds	r0, r5, r0
 8002666:	f100 0414 	add.w	r4, r0, #20
 800266a:	1858      	adds	r0, r3, r1
 800266c:	1e40      	subs	r0, r0, #1
 800266e:	ebc5 05e0 	rsb	r5, r5, r0, asr #3
 8002672:	f000 0007 	and.w	r0, r0, #7
 8002676:	22ff      	movs	r2, #255	; 0xff
 8002678:	f1c0 0007 	rsb	r0, r0, #7
 800267c:	f001 0107 	and.w	r1, r1, #7
 8002680:	fa02 f600 	lsl.w	r6, r2, r0
 8002684:	fa22 f101 	lsr.w	r1, r2, r1
 8002688:	b2f6      	uxtb	r6, r6
 800268a:	b91d      	cbnz	r5, 8002694 <GUI_USAGE_BM_AddHLine+0x4e>
 800268c:	7820      	ldrb	r0, [r4, #0]
 800268e:	4031      	ands	r1, r6
 8002690:	4308      	orrs	r0, r1
 8002692:	e00f      	b.n	80026b4 <GUI_USAGE_BM_AddHLine+0x6e>
 8002694:	4620      	mov	r0, r4
 8002696:	1c44      	adds	r4, r0, #1
 8002698:	7802      	ldrb	r2, [r0, #0]
 800269a:	4311      	orrs	r1, r2
 800269c:	1e6d      	subs	r5, r5, #1
 800269e:	7001      	strb	r1, [r0, #0]
 80026a0:	2d01      	cmp	r5, #1
 80026a2:	db05      	blt.n	80026b0 <GUI_USAGE_BM_AddHLine+0x6a>
 80026a4:	462a      	mov	r2, r5
 80026a6:	21ff      	movs	r1, #255	; 0xff
 80026a8:	4620      	mov	r0, r4
 80026aa:	f009 f919 	bl	800b8e0 <memset>
 80026ae:	192c      	adds	r4, r5, r4
 80026b0:	7820      	ldrb	r0, [r4, #0]
 80026b2:	4330      	orrs	r0, r6
 80026b4:	7020      	strb	r0, [r4, #0]
 80026b6:	bd70      	pop	{r4, r5, r6, pc}

080026b8 <GUI_USAGE_BM_Clear>:
 80026b8:	f9b0 1006 	ldrsh.w	r1, [r0, #6]
 80026bc:	6902      	ldr	r2, [r0, #16]
 80026be:	434a      	muls	r2, r1
 80026c0:	2100      	movs	r1, #0
 80026c2:	3014      	adds	r0, #20
 80026c4:	f009 b90c 	b.w	800b8e0 <memset>

080026c8 <GUI_USAGE_BM_GetNextDirty>:
 80026c8:	b570      	push	{r4, r5, r6, lr}
 80026ca:	f9b0 5006 	ldrsh.w	r5, [r0, #6]
 80026ce:	680b      	ldr	r3, [r1, #0]
 80026d0:	f9b0 4004 	ldrsh.w	r4, [r0, #4]
 80026d4:	42aa      	cmp	r2, r5
 80026d6:	da1a      	bge.n	800270e <GUI_USAGE_BM_GetNextDirty+0x46>
 80026d8:	6906      	ldr	r6, [r0, #16]
 80026da:	10dd      	asrs	r5, r3, #3
 80026dc:	fb06 0002 	mla	r0, r6, r2, r0
 80026e0:	1828      	adds	r0, r5, r0
 80026e2:	3014      	adds	r0, #20
 80026e4:	42a3      	cmp	r3, r4
 80026e6:	da12      	bge.n	800270e <GUI_USAGE_BM_GetNextDirty+0x46>
 80026e8:	1e62      	subs	r2, r4, #1
 80026ea:	ebc5 02e2 	rsb	r2, r5, r2, asr #3
 80026ee:	f810 4b01 	ldrb.w	r4, [r0], #1
 80026f2:	f003 0507 	and.w	r5, r3, #7
 80026f6:	40ac      	lsls	r4, r5
 80026f8:	e005      	b.n	8002706 <GUI_USAGE_BM_GetNextDirty+0x3e>
 80026fa:	f810 4b01 	ldrb.w	r4, [r0], #1
 80026fe:	3308      	adds	r3, #8
 8002700:	1e52      	subs	r2, r2, #1
 8002702:	f023 0307 	bic.w	r3, r3, #7
 8002706:	b2e4      	uxtb	r4, r4
 8002708:	b92c      	cbnz	r4, 8002716 <GUI_USAGE_BM_GetNextDirty+0x4e>
 800270a:	2a00      	cmp	r2, #0
 800270c:	d1f5      	bne.n	80026fa <GUI_USAGE_BM_GetNextDirty+0x32>
 800270e:	2000      	movs	r0, #0
 8002710:	bd70      	pop	{r4, r5, r6, pc}
 8002712:	0064      	lsls	r4, r4, #1
 8002714:	1c5b      	adds	r3, r3, #1
 8002716:	0625      	lsls	r5, r4, #24
 8002718:	d5fb      	bpl.n	8002712 <GUI_USAGE_BM_GetNextDirty+0x4a>
 800271a:	b2e4      	uxtb	r4, r4
 800271c:	2cff      	cmp	r4, #255	; 0xff
 800271e:	d006      	beq.n	800272e <GUI_USAGE_BM_GetNextDirty+0x66>
 8002720:	461d      	mov	r5, r3
 8002722:	0666      	lsls	r6, r4, #25
 8002724:	bf44      	itt	mi
 8002726:	0064      	lslmi	r4, r4, #1
 8002728:	1c6d      	addmi	r5, r5, #1
 800272a:	d4fa      	bmi.n	8002722 <GUI_USAGE_BM_GetNextDirty+0x5a>
 800272c:	e000      	b.n	8002730 <GUI_USAGE_BM_GetNextDirty+0x68>
 800272e:	1ddd      	adds	r5, r3, #7
 8002730:	f005 0407 	and.w	r4, r5, #7
 8002734:	2c07      	cmp	r4, #7
 8002736:	d004      	beq.n	8002742 <GUI_USAGE_BM_GetNextDirty+0x7a>
 8002738:	1ae8      	subs	r0, r5, r3
 800273a:	600b      	str	r3, [r1, #0]
 800273c:	1c40      	adds	r0, r0, #1
 800273e:	bd70      	pop	{r4, r5, r6, pc}
 8002740:	3508      	adds	r5, #8
 8002742:	1e52      	subs	r2, r2, #1
 8002744:	d4f8      	bmi.n	8002738 <GUI_USAGE_BM_GetNextDirty+0x70>
 8002746:	f810 4b01 	ldrb.w	r4, [r0], #1
 800274a:	2cff      	cmp	r4, #255	; 0xff
 800274c:	d0f8      	beq.n	8002740 <GUI_USAGE_BM_GetNextDirty+0x78>
 800274e:	0620      	lsls	r0, r4, #24
 8002750:	bf44      	itt	mi
 8002752:	0064      	lslmi	r4, r4, #1
 8002754:	1c6d      	addmi	r5, r5, #1
 8002756:	d4fa      	bmi.n	800274e <GUI_USAGE_BM_GetNextDirty+0x86>
 8002758:	e7ee      	b.n	8002738 <GUI_USAGE_BM_GetNextDirty+0x70>

0800275a <_GUI_USAGE_BM_Delete>:
 800275a:	f7fe b87f 	b.w	800085c <GUI_ALLOC_Free>

0800275e <GUI_USAGE_BM_Create>:
 800275e:	e92d 43f8 	stmdb	sp!, {r3, r4, r5, r6, r7, r8, r9, lr}
 8002762:	4604      	mov	r4, r0
 8002764:	4616      	mov	r6, r2
 8002766:	f106 000f 	add.w	r0, r6, #15
 800276a:	1100      	asrs	r0, r0, #4
 800276c:	4698      	mov	r8, r3
 800276e:	0047      	lsls	r7, r0, #1
 8002770:	fb07 f008 	mul.w	r0, r7, r8
 8002774:	460d      	mov	r5, r1
 8002776:	3014      	adds	r0, #20
 8002778:	f7fe f8ae 	bl	80008d8 <GUI_ALLOC_AllocZero>
 800277c:	ea5f 0900 	movs.w	r9, r0
 8002780:	d011      	beq.n	80027a6 <GUI_USAGE_BM_Create+0x48>
 8002782:	f7fd ffe2 	bl	800074a <GUI_ALLOC_LockH>
 8002786:	9000      	str	r0, [sp, #0]
 8002788:	8004      	strh	r4, [r0, #0]
 800278a:	8045      	strh	r5, [r0, #2]
 800278c:	8086      	strh	r6, [r0, #4]
 800278e:	f8a0 8006 	strh.w	r8, [r0, #6]
 8002792:	f20f 0118 	addw	r1, pc, #24
 8002796:	6081      	str	r1, [r0, #8]
 8002798:	2101      	movs	r1, #1
 800279a:	8181      	strh	r1, [r0, #12]
 800279c:	6107      	str	r7, [r0, #16]
 800279e:	a800      	add	r0, sp, #0
 80027a0:	f7fd ffde 	bl	8000760 <GUI_ALLOC_UnlockH>
 80027a4:	4648      	mov	r0, r9
 80027a6:	e8bd 83f2 	ldmia.w	sp!, {r1, r4, r5, r6, r7, r8, r9, pc}
	...

080027ac <API>:
 80027ac:	261d 0800 2647 0800 26b9 0800 0000 0000     .&..G&...&......
 80027bc:	275b 0800 26c9 0800                         ['...&..

080027c4 <_Convert16>:
 80027c4:	e92d 4ff8 	stmdb	sp!, {r3, r4, r5, r6, r7, r8, r9, sl, fp, lr}
 80027c8:	468a      	mov	sl, r1
 80027ca:	4693      	mov	fp, r2
 80027cc:	9d0a      	ldr	r5, [sp, #40]	; 0x28
 80027ce:	9e0b      	ldr	r6, [sp, #44]	; 0x2c
 80027d0:	4681      	mov	r9, r0
 80027d2:	461f      	mov	r7, r3
 80027d4:	46d0      	mov	r8, sl
 80027d6:	465c      	mov	r4, fp
 80027d8:	f839 0b02 	ldrh.w	r0, [r9], #2
 80027dc:	47a8      	blx	r5
 80027de:	47b0      	blx	r6
 80027e0:	f84a 0b04 	str.w	r0, [sl], #4
 80027e4:	1e64      	subs	r4, r4, #1
 80027e6:	d1f7      	bne.n	80027d8 <_Convert16+0x14>
 80027e8:	2f20      	cmp	r7, #32
 80027ea:	d206      	bcs.n	80027fa <_Convert16+0x36>
 80027ec:	463a      	mov	r2, r7
 80027ee:	4659      	mov	r1, fp
 80027f0:	4640      	mov	r0, r8
 80027f2:	e8bd 4ff8 	ldmia.w	sp!, {r3, r4, r5, r6, r7, r8, r9, sl, fp, lr}
 80027f6:	f004 ba49 	b.w	8006c8c <GUI__CompactPixelIndices>
 80027fa:	e8bd 8ff1 	ldmia.w	sp!, {r0, r4, r5, r6, r7, r8, r9, sl, fp, pc}

080027fe <_WriteToActiveOpaque_8>:
 80027fe:	e92d 4ff4 	stmdb	sp!, {r2, r4, r5, r6, r7, r8, r9, sl, fp, lr}
 8002802:	4689      	mov	r9, r1
 8002804:	b092      	sub	sp, #72	; 0x48
 8002806:	f20f 519c 	addw	r1, pc, #1436	; 0x59c
 800280a:	4680      	mov	r8, r0
 800280c:	c90c      	ldmia	r1!, {r2, r3}
 800280e:	a810      	add	r0, sp, #64	; 0x40
 8002810:	c00c      	stmia	r0!, {r2, r3}
 8002812:	4640      	mov	r0, r8
 8002814:	f7fd ff99 	bl	800074a <GUI_ALLOC_LockH>
 8002818:	900a      	str	r0, [sp, #40]	; 0x28
 800281a:	6944      	ldr	r4, [r0, #20]
 800281c:	68c5      	ldr	r5, [r0, #12]
 800281e:	6906      	ldr	r6, [r0, #16]
 8002820:	f9b0 0008 	ldrsh.w	r0, [r0, #8]
 8002824:	900b      	str	r0, [sp, #44]	; 0x2c
 8002826:	980a      	ldr	r0, [sp, #40]	; 0x28
 8002828:	f9b0 000a 	ldrsh.w	r0, [r0, #10]
 800282c:	900d      	str	r0, [sp, #52]	; 0x34
 800282e:	f000 f931 	bl	8002a94 <.text_8>
 8002832:	f002 faa1 	bl	8004d78 <GUI_GetBitsPerPixelEx>
 8002836:	4682      	mov	sl, r0
 8002838:	980a      	ldr	r0, [sp, #40]	; 0x28
 800283a:	6800      	ldr	r0, [r0, #0]
 800283c:	6900      	ldr	r0, [r0, #16]
 800283e:	6840      	ldr	r0, [r0, #4]
 8002840:	9006      	str	r0, [sp, #24]
 8002842:	f000 f927 	bl	8002a94 <.text_8>
 8002846:	f002 fabd 	bl	8004dc4 <GUI_GetpfIndex2ColorEx>
 800284a:	4607      	mov	r7, r0
 800284c:	a80a      	add	r0, sp, #40	; 0x28
 800284e:	f7fd ff87 	bl	8000760 <GUI_ALLOC_UnlockH>
 8002852:	2e09      	cmp	r6, #9
 8002854:	d213      	bcs.n	800287e <_WriteToActiveOpaque_8+0x80>
 8002856:	2001      	movs	r0, #1
 8002858:	900c      	str	r0, [sp, #48]	; 0x30
 800285a:	2e01      	cmp	r6, #1
 800285c:	bf0c      	ite	eq
 800285e:	f10d 0b40 	addeq.w	fp, sp, #64	; 0x40
 8002862:	f04f 0b00 	movne.w	fp, #0
 8002866:	4640      	mov	r0, r8
 8002868:	f007 fa0e 	bl	8009c88 <GUI_MEMDEV_GetDataPtr>
 800286c:	4680      	mov	r8, r0
 800286e:	2c00      	cmp	r4, #0
 8002870:	f000 80f2 	beq.w	8002a58 <_WriteToActiveOpaque_8+0x25a>
 8002874:	f000 fa58 	bl	8002d28 <.text_15+0x2>
 8002878:	9008      	str	r0, [sp, #32]
 800287a:	2700      	movs	r7, #0
 800287c:	e0a0      	b.n	80029c0 <_WriteToActiveOpaque_8+0x1c2>
 800287e:	2e11      	cmp	r6, #17
 8002880:	bf34      	ite	cc
 8002882:	2002      	movcc	r0, #2
 8002884:	2004      	movcs	r0, #4
 8002886:	900c      	str	r0, [sp, #48]	; 0x30
 8002888:	f04f 0b00 	mov.w	fp, #0
 800288c:	f1ba 0f08 	cmp.w	sl, #8
 8002890:	d3e9      	bcc.n	8002866 <_WriteToActiveOpaque_8+0x68>
 8002892:	9806      	ldr	r0, [sp, #24]
 8002894:	42b8      	cmp	r0, r7
 8002896:	d0e6      	beq.n	8002866 <_WriteToActiveOpaque_8+0x68>
 8002898:	f000 f8fc 	bl	8002a94 <.text_8>
 800289c:	f002 fa9f 	bl	8004dde <GUI_GetpfColor2IndexEx>
 80028a0:	900f      	str	r0, [sp, #60]	; 0x3c
 80028a2:	980b      	ldr	r0, [sp, #44]	; 0x2c
 80028a4:	0080      	lsls	r0, r0, #2
 80028a6:	f7fd ff43 	bl	8000730 <GUI_ALLOC_AllocNoInit>
 80028aa:	ea5f 0b00 	movs.w	fp, r0
 80028ae:	d06d      	beq.n	800298c <_WriteToActiveOpaque_8+0x18e>
 80028b0:	4640      	mov	r0, r8
 80028b2:	f007 f9e9 	bl	8009c88 <GUI_MEMDEV_GetDataPtr>
 80028b6:	4680      	mov	r8, r0
 80028b8:	2c00      	cmp	r4, #0
 80028ba:	d05e      	beq.n	800297a <_WriteToActiveOpaque_8+0x17c>
 80028bc:	f000 fa34 	bl	8002d28 <.text_15+0x2>
 80028c0:	9008      	str	r0, [sp, #32]
 80028c2:	2700      	movs	r7, #0
 80028c4:	e029      	b.n	800291a <_WriteToActiveOpaque_8+0x11c>
 80028c6:	4658      	mov	r0, fp
 80028c8:	f7fd ff3f 	bl	800074a <GUI_ALLOC_LockH>
 80028cc:	9009      	str	r0, [sp, #36]	; 0x24
 80028ce:	4653      	mov	r3, sl
 80028d0:	980f      	ldr	r0, [sp, #60]	; 0x3c
 80028d2:	9909      	ldr	r1, [sp, #36]	; 0x24
 80028d4:	f8dd c030 	ldr.w	ip, [sp, #48]	; 0x30
 80028d8:	9001      	str	r0, [sp, #4]
 80028da:	4622      	mov	r2, r4
 80028dc:	9806      	ldr	r0, [sp, #24]
 80028de:	9000      	str	r0, [sp, #0]
 80028e0:	9807      	ldr	r0, [sp, #28]
 80028e2:	fb0c 8000 	mla	r0, ip, r0, r8
 80028e6:	f7ff ff6d 	bl	80027c4 <_Convert16>
 80028ea:	f000 f8c5 	bl	8002a78 <.text_6>
 80028ee:	9004      	str	r0, [sp, #16]
 80028f0:	4622      	mov	r2, r4
 80028f2:	2000      	movs	r0, #0
 80028f4:	9003      	str	r0, [sp, #12]
 80028f6:	4631      	mov	r1, r6
 80028f8:	f000 fa1f 	bl	8002d3a <.text_17>
 80028fc:	9807      	ldr	r0, [sp, #28]
 80028fe:	4448      	add	r0, r9
 8002900:	f001 fedd 	bl	80046be <LCD_DrawBitmap>
 8002904:	a809      	add	r0, sp, #36	; 0x24
 8002906:	f7fd ff2b 	bl	8000760 <GUI_ALLOC_UnlockH>
 800290a:	f000 f8c7 	bl	8002a9c <.text_9>
 800290e:	4604      	mov	r4, r0
 8002910:	2c00      	cmp	r4, #0
 8002912:	d1d8      	bne.n	80028c6 <_WriteToActiveOpaque_8+0xc8>
 8002914:	f8dd 8038 	ldr.w	r8, [sp, #56]	; 0x38
 8002918:	1c7f      	adds	r7, r7, #1
 800291a:	980d      	ldr	r0, [sp, #52]	; 0x34
 800291c:	4287      	cmp	r7, r0
 800291e:	da28      	bge.n	8002972 <_WriteToActiveOpaque_8+0x174>
 8002920:	2000      	movs	r0, #0
 8002922:	f000 f8bd 	bl	8002aa0 <.text_9+0x4>
 8002926:	4604      	mov	r4, r0
 8002928:	eb05 0008 	add.w	r0, r5, r8
 800292c:	900e      	str	r0, [sp, #56]	; 0x38
 800292e:	9812      	ldr	r0, [sp, #72]	; 0x48
 8002930:	183e      	adds	r6, r7, r0
 8002932:	980b      	ldr	r0, [sp, #44]	; 0x2c
 8002934:	4284      	cmp	r4, r0
 8002936:	d1eb      	bne.n	8002910 <_WriteToActiveOpaque_8+0x112>
 8002938:	4658      	mov	r0, fp
 800293a:	f7fd ff06 	bl	800074a <GUI_ALLOC_LockH>
 800293e:	9009      	str	r0, [sp, #36]	; 0x24
 8002940:	4653      	mov	r3, sl
 8002942:	980f      	ldr	r0, [sp, #60]	; 0x3c
 8002944:	9909      	ldr	r1, [sp, #36]	; 0x24
 8002946:	9001      	str	r0, [sp, #4]
 8002948:	4622      	mov	r2, r4
 800294a:	9806      	ldr	r0, [sp, #24]
 800294c:	9000      	str	r0, [sp, #0]
 800294e:	4640      	mov	r0, r8
 8002950:	f7ff ff38 	bl	80027c4 <_Convert16>
 8002954:	f000 f890 	bl	8002a78 <.text_6>
 8002958:	9a0b      	ldr	r2, [sp, #44]	; 0x2c
 800295a:	9004      	str	r0, [sp, #16]
 800295c:	4631      	mov	r1, r6
 800295e:	2000      	movs	r0, #0
 8002960:	9003      	str	r0, [sp, #12]
 8002962:	f000 f9ea 	bl	8002d3a <.text_17>
 8002966:	f000 f884 	bl	8002a72 <.text_5>
 800296a:	a809      	add	r0, sp, #36	; 0x24
 800296c:	f7fd fef8 	bl	8000760 <GUI_ALLOC_UnlockH>
 8002970:	e7d0      	b.n	8002914 <_WriteToActiveOpaque_8+0x116>
 8002972:	a808      	add	r0, sp, #32
 8002974:	f7fd fef4 	bl	8000760 <GUI_ALLOC_UnlockH>
 8002978:	e005      	b.n	8002986 <_WriteToActiveOpaque_8+0x188>
 800297a:	2000      	movs	r0, #0
 800297c:	9005      	str	r0, [sp, #20]
 800297e:	f000 f882 	bl	8002a86 <.text_7>
 8002982:	f000 f872 	bl	8002a6a <.text_4>
 8002986:	4658      	mov	r0, fp
 8002988:	f7fd ff68 	bl	800085c <GUI_ALLOC_Free>
 800298c:	e06a      	b.n	8002a64 <_WriteToActiveOpaque_8+0x266>
 800298e:	9807      	ldr	r0, [sp, #28]
 8002990:	990c      	ldr	r1, [sp, #48]	; 0x30
 8002992:	f8cd b014 	str.w	fp, [sp, #20]
 8002996:	fb01 8000 	mla	r0, r1, r0, r8
 800299a:	9004      	str	r0, [sp, #16]
 800299c:	9503      	str	r5, [sp, #12]
 800299e:	f000 f9cc 	bl	8002d3a <.text_17>
 80029a2:	9602      	str	r6, [sp, #8]
 80029a4:	2301      	movs	r3, #1
 80029a6:	9807      	ldr	r0, [sp, #28]
 80029a8:	4622      	mov	r2, r4
 80029aa:	4651      	mov	r1, sl
 80029ac:	4448      	add	r0, r9
 80029ae:	f001 fe86 	bl	80046be <LCD_DrawBitmap>
 80029b2:	f000 f873 	bl	8002a9c <.text_9>
 80029b6:	4604      	mov	r4, r0
 80029b8:	2c00      	cmp	r4, #0
 80029ba:	d1e8      	bne.n	800298e <_WriteToActiveOpaque_8+0x190>
 80029bc:	44a8      	add	r8, r5
 80029be:	1c7f      	adds	r7, r7, #1
 80029c0:	980d      	ldr	r0, [sp, #52]	; 0x34
 80029c2:	4287      	cmp	r7, r0
 80029c4:	da44      	bge.n	8002a50 <_WriteToActiveOpaque_8+0x252>
 80029c6:	2000      	movs	r0, #0
 80029c8:	f000 f86a 	bl	8002aa0 <.text_9+0x4>
 80029cc:	4604      	mov	r4, r0
 80029ce:	9812      	ldr	r0, [sp, #72]	; 0x48
 80029d0:	eb07 0a00 	add.w	sl, r7, r0
 80029d4:	980b      	ldr	r0, [sp, #44]	; 0x2c
 80029d6:	4284      	cmp	r4, r0
 80029d8:	d11d      	bne.n	8002a16 <_WriteToActiveOpaque_8+0x218>
 80029da:	9700      	str	r7, [sp, #0]
 80029dc:	e000      	b.n	80029e0 <_WriteToActiveOpaque_8+0x1e2>
 80029de:	1c7f      	adds	r7, r7, #1
 80029e0:	9808      	ldr	r0, [sp, #32]
 80029e2:	6883      	ldr	r3, [r0, #8]
 80029e4:	695b      	ldr	r3, [r3, #20]
 80029e6:	1c7a      	adds	r2, r7, #1
 80029e8:	a907      	add	r1, sp, #28
 80029ea:	4798      	blx	r3
 80029ec:	42a0      	cmp	r0, r4
 80029ee:	d0f6      	beq.n	80029de <_WriteToActiveOpaque_8+0x1e0>
 80029f0:	9800      	ldr	r0, [sp, #0]
 80029f2:	9a0b      	ldr	r2, [sp, #44]	; 0x2c
 80029f4:	f8cd b014 	str.w	fp, [sp, #20]
 80029f8:	1a38      	subs	r0, r7, r0
 80029fa:	1c44      	adds	r4, r0, #1
 80029fc:	f000 f99d 	bl	8002d3a <.text_17>
 8002a00:	f8cd 8010 	str.w	r8, [sp, #16]
 8002a04:	9503      	str	r5, [sp, #12]
 8002a06:	9602      	str	r6, [sp, #8]
 8002a08:	4623      	mov	r3, r4
 8002a0a:	4651      	mov	r1, sl
 8002a0c:	f000 f831 	bl	8002a72 <.text_5>
 8002a10:	fb05 8804 	mla	r8, r5, r4, r8
 8002a14:	e7d3      	b.n	80029be <_WriteToActiveOpaque_8+0x1c0>
 8002a16:	2e01      	cmp	r6, #1
 8002a18:	d1ce      	bne.n	80029b8 <_WriteToActiveOpaque_8+0x1ba>
 8002a1a:	2c00      	cmp	r4, #0
 8002a1c:	d0ce      	beq.n	80029bc <_WriteToActiveOpaque_8+0x1be>
 8002a1e:	9807      	ldr	r0, [sp, #28]
 8002a20:	f8cd b014 	str.w	fp, [sp, #20]
 8002a24:	f000 0007 	and.w	r0, r0, #7
 8002a28:	9006      	str	r0, [sp, #24]
 8002a2a:	9503      	str	r5, [sp, #12]
 8002a2c:	9602      	str	r6, [sp, #8]
 8002a2e:	2301      	movs	r3, #1
 8002a30:	9807      	ldr	r0, [sp, #28]
 8002a32:	eb08 00e0 	add.w	r0, r8, r0, asr #3
 8002a36:	9004      	str	r0, [sp, #16]
 8002a38:	4622      	mov	r2, r4
 8002a3a:	f000 f97e 	bl	8002d3a <.text_17>
 8002a3e:	4651      	mov	r1, sl
 8002a40:	9807      	ldr	r0, [sp, #28]
 8002a42:	4448      	add	r0, r9
 8002a44:	f001 fd93 	bl	800456e <LCD__DrawBitmap_1bpp>
 8002a48:	f000 f828 	bl	8002a9c <.text_9>
 8002a4c:	4604      	mov	r4, r0
 8002a4e:	e7e4      	b.n	8002a1a <_WriteToActiveOpaque_8+0x21c>
 8002a50:	a808      	add	r0, sp, #32
 8002a52:	f7fd fe85 	bl	8000760 <GUI_ALLOC_UnlockH>
 8002a56:	e005      	b.n	8002a64 <_WriteToActiveOpaque_8+0x266>
 8002a58:	f000 f815 	bl	8002a86 <.text_7>
 8002a5c:	f8cd b014 	str.w	fp, [sp, #20]
 8002a60:	f000 f803 	bl	8002a6a <.text_4>
 8002a64:	b013      	add	sp, #76	; 0x4c
 8002a66:	e8bd 8ff0 	ldmia.w	sp!, {r4, r5, r6, r7, r8, r9, sl, fp, pc}

08002a6a <.text_4>:
 8002a6a:	f8cd 8010 	str.w	r8, [sp, #16]
 8002a6e:	9503      	str	r5, [sp, #12]
 8002a70:	9602      	str	r6, [sp, #8]

08002a72 <.text_5>:
 8002a72:	4648      	mov	r0, r9
 8002a74:	f001 be23 	b.w	80046be <LCD_DrawBitmap>

08002a78 <.text_6>:
 8002a78:	2000      	movs	r0, #0
 8002a7a:	9005      	str	r0, [sp, #20]
 8002a7c:	f8cd a008 	str.w	sl, [sp, #8]
 8002a80:	2301      	movs	r3, #1
 8002a82:	9809      	ldr	r0, [sp, #36]	; 0x24
 8002a84:	4770      	bx	lr

08002a86 <.text_7>:
 8002a86:	2001      	movs	r0, #1
 8002a88:	9001      	str	r0, [sp, #4]
 8002a8a:	9000      	str	r0, [sp, #0]
 8002a8c:	9b0d      	ldr	r3, [sp, #52]	; 0x34
 8002a8e:	9a0b      	ldr	r2, [sp, #44]	; 0x2c
 8002a90:	9912      	ldr	r1, [sp, #72]	; 0x48
 8002a92:	4770      	bx	lr

08002a94 <.text_8>:
 8002a94:	489c      	ldr	r0, [pc, #624]	; (8002d08 <.text_11>)
 8002a96:	6800      	ldr	r0, [r0, #0]
 8002a98:	7c40      	ldrb	r0, [r0, #17]
 8002a9a:	4770      	bx	lr

08002a9c <.text_9>:
 8002a9c:	9807      	ldr	r0, [sp, #28]
 8002a9e:	1820      	adds	r0, r4, r0
 8002aa0:	9007      	str	r0, [sp, #28]
 8002aa2:	463a      	mov	r2, r7
 8002aa4:	9808      	ldr	r0, [sp, #32]
 8002aa6:	6883      	ldr	r3, [r0, #8]
 8002aa8:	695b      	ldr	r3, [r3, #20]
 8002aaa:	a907      	add	r1, sp, #28

08002aac <__iar_annotation$$tailcall>:
 8002aac:	4718      	bx	r3

08002aae <_WriteToActiveOpaque_HT>:
 8002aae:	e92d 4ff2 	stmdb	sp!, {r1, r4, r5, r6, r7, r8, r9, sl, fp, lr}
 8002ab2:	b08e      	sub	sp, #56	; 0x38
 8002ab4:	4604      	mov	r4, r0
 8002ab6:	4691      	mov	r9, r2
 8002ab8:	461d      	mov	r5, r3
 8002aba:	f7fd fe46 	bl	800074a <GUI_ALLOC_LockH>
 8002abe:	9006      	str	r0, [sp, #24]
 8002ac0:	f9b0 a00a 	ldrsh.w	sl, [r0, #10]
 8002ac4:	68c0      	ldr	r0, [r0, #12]
 8002ac6:	4f90      	ldr	r7, [pc, #576]	; (8002d08 <.text_11>)
 8002ac8:	9009      	str	r0, [sp, #36]	; 0x24
 8002aca:	9806      	ldr	r0, [sp, #24]
 8002acc:	f100 0618 	add.w	r6, r0, #24
 8002ad0:	6838      	ldr	r0, [r7, #0]
 8002ad2:	7c40      	ldrb	r0, [r0, #17]
 8002ad4:	f002 f950 	bl	8004d78 <GUI_GetBitsPerPixelEx>
 8002ad8:	2809      	cmp	r0, #9
 8002ada:	bf38      	it	cc
 8002adc:	2001      	movcc	r0, #1
 8002ade:	d303      	bcc.n	8002ae8 <_WriteToActiveOpaque_HT+0x3a>
 8002ae0:	2811      	cmp	r0, #17
 8002ae2:	bf34      	ite	cc
 8002ae4:	2002      	movcc	r0, #2
 8002ae6:	2004      	movcs	r0, #4
 8002ae8:	4988      	ldr	r1, [pc, #544]	; (8002d0c <.text_12>)
 8002aea:	900a      	str	r0, [sp, #40]	; 0x28
 8002aec:	9806      	ldr	r0, [sp, #24]
 8002aee:	6800      	ldr	r0, [r0, #0]
 8002af0:	6900      	ldr	r0, [r0, #16]
 8002af2:	900c      	str	r0, [sp, #48]	; 0x30
 8002af4:	6838      	ldr	r0, [r7, #0]
 8002af6:	7c40      	ldrb	r0, [r0, #17]
 8002af8:	f851 0020 	ldr.w	r0, [r1, r0, lsl #2]
 8002afc:	6907      	ldr	r7, [r0, #16]
 8002afe:	980c      	ldr	r0, [sp, #48]	; 0x30
 8002b00:	f8d7 8000 	ldr.w	r8, [r7]
 8002b04:	f8d0 b004 	ldr.w	fp, [r0, #4]
 8002b08:	42b8      	cmp	r0, r7
 8002b0a:	d110      	bne.n	8002b2e <_WriteToActiveOpaque_HT+0x80>
 8002b0c:	2000      	movs	r0, #0
 8002b0e:	9005      	str	r0, [sp, #20]
 8002b10:	9604      	str	r6, [sp, #16]
 8002b12:	4653      	mov	r3, sl
 8002b14:	9809      	ldr	r0, [sp, #36]	; 0x24
 8002b16:	9003      	str	r0, [sp, #12]
 8002b18:	9502      	str	r5, [sp, #8]
 8002b1a:	f000 f90e 	bl	8002d3a <.text_17>
 8002b1e:	4649      	mov	r1, r9
 8002b20:	9806      	ldr	r0, [sp, #24]
 8002b22:	f9b0 2008 	ldrsh.w	r2, [r0, #8]
 8002b26:	980e      	ldr	r0, [sp, #56]	; 0x38
 8002b28:	f001 fdc9 	bl	80046be <LCD_DrawBitmap>
 8002b2c:	e0e4      	b.n	8002cf8 <_WriteToActiveOpaque_HT+0x24a>
 8002b2e:	980a      	ldr	r0, [sp, #40]	; 0x28
 8002b30:	00c0      	lsls	r0, r0, #3
 8002b32:	900d      	str	r0, [sp, #52]	; 0x34
 8002b34:	2d20      	cmp	r5, #32
 8002b36:	d14f      	bne.n	8002bd8 <_WriteToActiveOpaque_HT+0x12a>
 8002b38:	f000 f8f9 	bl	8002d2e <.text_16>
 8002b3c:	980a      	ldr	r0, [sp, #40]	; 0x28
 8002b3e:	4368      	muls	r0, r5
 8002b40:	f7fd fdf6 	bl	8000730 <GUI_ALLOC_AllocNoInit>
 8002b44:	900b      	str	r0, [sp, #44]	; 0x2c
 8002b46:	2800      	cmp	r0, #0
 8002b48:	d0f0      	beq.n	8002b2c <_WriteToActiveOpaque_HT+0x7e>
 8002b4a:	f7fd fdfe 	bl	800074a <GUI_ALLOC_LockH>
 8002b4e:	f000 f8ea 	bl	8002d26 <.text_15>
 8002b52:	9006      	str	r0, [sp, #24]
 8002b54:	f100 0b18 	add.w	fp, r0, #24
 8002b58:	9806      	ldr	r0, [sp, #24]
 8002b5a:	f9b0 5008 	ldrsh.w	r5, [r0, #8]
 8002b5e:	980a      	ldr	r0, [sp, #40]	; 0x28
 8002b60:	eb0b 0685 	add.w	r6, fp, r5, lsl #2
 8002b64:	2801      	cmp	r0, #1
 8002b66:	d004      	beq.n	8002b72 <_WriteToActiveOpaque_HT+0xc4>
 8002b68:	2802      	cmp	r0, #2
 8002b6a:	d00f      	beq.n	8002b8c <_WriteToActiveOpaque_HT+0xde>
 8002b6c:	2804      	cmp	r0, #4
 8002b6e:	d01a      	beq.n	8002ba6 <_WriteToActiveOpaque_HT+0xf8>
 8002b70:	e02a      	b.n	8002bc8 <_WriteToActiveOpaque_HT+0x11a>
 8002b72:	f000 f8d2 	bl	8002d1a <.text_14>
 8002b76:	bf18      	it	ne
 8002b78:	2301      	movne	r3, #1
 8002b7a:	d118      	bne.n	8002bae <_WriteToActiveOpaque_HT+0x100>
 8002b7c:	f85b 0b04 	ldr.w	r0, [fp], #4
 8002b80:	47c0      	blx	r8
 8002b82:	f804 0b01 	strb.w	r0, [r4], #1
 8002b86:	1e6d      	subs	r5, r5, #1
 8002b88:	d1f8      	bne.n	8002b7c <_WriteToActiveOpaque_HT+0xce>
 8002b8a:	e01d      	b.n	8002bc8 <_WriteToActiveOpaque_HT+0x11a>
 8002b8c:	f000 f8c5 	bl	8002d1a <.text_14>
 8002b90:	bf18      	it	ne
 8002b92:	2302      	movne	r3, #2
 8002b94:	d10b      	bne.n	8002bae <_WriteToActiveOpaque_HT+0x100>
 8002b96:	f85b 0b04 	ldr.w	r0, [fp], #4
 8002b9a:	47c0      	blx	r8
 8002b9c:	f824 0b02 	strh.w	r0, [r4], #2
 8002ba0:	1e6d      	subs	r5, r5, #1
 8002ba2:	d1f8      	bne.n	8002b96 <_WriteToActiveOpaque_HT+0xe8>
 8002ba4:	e010      	b.n	8002bc8 <_WriteToActiveOpaque_HT+0x11a>
 8002ba6:	f000 f8b8 	bl	8002d1a <.text_14>
 8002baa:	d006      	beq.n	8002bba <_WriteToActiveOpaque_HT+0x10c>
 8002bac:	2304      	movs	r3, #4
 8002bae:	462a      	mov	r2, r5
 8002bb0:	4621      	mov	r1, r4
 8002bb2:	4658      	mov	r0, fp
 8002bb4:	47e0      	blx	ip
 8002bb6:	46b3      	mov	fp, r6
 8002bb8:	e006      	b.n	8002bc8 <_WriteToActiveOpaque_HT+0x11a>
 8002bba:	f85b 0b04 	ldr.w	r0, [fp], #4
 8002bbe:	47c0      	blx	r8
 8002bc0:	f844 0b04 	str.w	r0, [r4], #4
 8002bc4:	1e6d      	subs	r5, r5, #1
 8002bc6:	d1f8      	bne.n	8002bba <_WriteToActiveOpaque_HT+0x10c>
 8002bc8:	f000 f8bb 	bl	8002d42 <.text_18>
 8002bcc:	f109 0901 	add.w	r9, r9, #1
 8002bd0:	f1ba 0a01 	subs.w	sl, sl, #1
 8002bd4:	d1c0      	bne.n	8002b58 <_WriteToActiveOpaque_HT+0xaa>
 8002bd6:	e089      	b.n	8002cec <_WriteToActiveOpaque_HT+0x23e>
 8002bd8:	2d10      	cmp	r5, #16
 8002bda:	d1a7      	bne.n	8002b2c <_WriteToActiveOpaque_HT+0x7e>
 8002bdc:	f000 f8a7 	bl	8002d2e <.text_16>
 8002be0:	980a      	ldr	r0, [sp, #40]	; 0x28
 8002be2:	4368      	muls	r0, r5
 8002be4:	f7fd fda4 	bl	8000730 <GUI_ALLOC_AllocNoInit>
 8002be8:	900b      	str	r0, [sp, #44]	; 0x2c
 8002bea:	2800      	cmp	r0, #0
 8002bec:	d09e      	beq.n	8002b2c <_WriteToActiveOpaque_HT+0x7e>
 8002bee:	f7fd fdac 	bl	800074a <GUI_ALLOC_LockH>
 8002bf2:	f000 f898 	bl	8002d26 <.text_15>
 8002bf6:	9006      	str	r0, [sp, #24]
 8002bf8:	f100 0418 	add.w	r4, r0, #24
 8002bfc:	f9b0 0008 	ldrsh.w	r0, [r0, #8]
 8002c00:	0080      	lsls	r0, r0, #2
 8002c02:	f7fd fd95 	bl	8000730 <GUI_ALLOC_AllocNoInit>
 8002c06:	9009      	str	r0, [sp, #36]	; 0x24
 8002c08:	b110      	cbz	r0, 8002c10 <_WriteToActiveOpaque_HT+0x162>
 8002c0a:	f7fd fd9e 	bl	800074a <GUI_ALLOC_LockH>
 8002c0e:	9008      	str	r0, [sp, #32]
 8002c10:	9806      	ldr	r0, [sp, #24]
 8002c12:	f9b0 5008 	ldrsh.w	r5, [r0, #8]
 8002c16:	eb04 0045 	add.w	r0, r4, r5, lsl #1
 8002c1a:	9000      	str	r0, [sp, #0]
 8002c1c:	980a      	ldr	r0, [sp, #40]	; 0x28
 8002c1e:	2801      	cmp	r0, #1
 8002c20:	d004      	beq.n	8002c2c <_WriteToActiveOpaque_HT+0x17e>
 8002c22:	2802      	cmp	r0, #2
 8002c24:	d01b      	beq.n	8002c5e <_WriteToActiveOpaque_HT+0x1b0>
 8002c26:	2804      	cmp	r0, #4
 8002c28:	d032      	beq.n	8002c90 <_WriteToActiveOpaque_HT+0x1e2>
 8002c2a:	e050      	b.n	8002cce <_WriteToActiveOpaque_HT+0x220>
 8002c2c:	6938      	ldr	r0, [r7, #16]
 8002c2e:	9e07      	ldr	r6, [sp, #28]
 8002c30:	2800      	cmp	r0, #0
 8002c32:	bf1e      	ittt	ne
 8002c34:	980c      	ldrne	r0, [sp, #48]	; 0x30
 8002c36:	f8d0 c014 	ldrne.w	ip, [r0, #20]
 8002c3a:	f1bc 0f00 	cmpne.w	ip, #0
 8002c3e:	d005      	beq.n	8002c4c <_WriteToActiveOpaque_HT+0x19e>
 8002c40:	9809      	ldr	r0, [sp, #36]	; 0x24
 8002c42:	b118      	cbz	r0, 8002c4c <_WriteToActiveOpaque_HT+0x19e>
 8002c44:	f000 f864 	bl	8002d10 <.text_13>
 8002c48:	2301      	movs	r3, #1
 8002c4a:	e030      	b.n	8002cae <_WriteToActiveOpaque_HT+0x200>
 8002c4c:	f834 0b02 	ldrh.w	r0, [r4], #2
 8002c50:	47d8      	blx	fp
 8002c52:	47c0      	blx	r8
 8002c54:	f806 0b01 	strb.w	r0, [r6], #1
 8002c58:	1e6d      	subs	r5, r5, #1
 8002c5a:	d1f7      	bne.n	8002c4c <_WriteToActiveOpaque_HT+0x19e>
 8002c5c:	e037      	b.n	8002cce <_WriteToActiveOpaque_HT+0x220>
 8002c5e:	6938      	ldr	r0, [r7, #16]
 8002c60:	9e07      	ldr	r6, [sp, #28]
 8002c62:	2800      	cmp	r0, #0
 8002c64:	bf1e      	ittt	ne
 8002c66:	980c      	ldrne	r0, [sp, #48]	; 0x30
 8002c68:	f8d0 c014 	ldrne.w	ip, [r0, #20]
 8002c6c:	f1bc 0f00 	cmpne.w	ip, #0
 8002c70:	d005      	beq.n	8002c7e <_WriteToActiveOpaque_HT+0x1d0>
 8002c72:	9809      	ldr	r0, [sp, #36]	; 0x24
 8002c74:	b118      	cbz	r0, 8002c7e <_WriteToActiveOpaque_HT+0x1d0>
 8002c76:	f000 f84b 	bl	8002d10 <.text_13>
 8002c7a:	2302      	movs	r3, #2
 8002c7c:	e017      	b.n	8002cae <_WriteToActiveOpaque_HT+0x200>
 8002c7e:	f834 0b02 	ldrh.w	r0, [r4], #2
 8002c82:	47d8      	blx	fp
 8002c84:	47c0      	blx	r8
 8002c86:	f826 0b02 	strh.w	r0, [r6], #2
 8002c8a:	1e6d      	subs	r5, r5, #1
 8002c8c:	d1f7      	bne.n	8002c7e <_WriteToActiveOpaque_HT+0x1d0>
 8002c8e:	e01e      	b.n	8002cce <_WriteToActiveOpaque_HT+0x220>
 8002c90:	6938      	ldr	r0, [r7, #16]
 8002c92:	9e07      	ldr	r6, [sp, #28]
 8002c94:	2800      	cmp	r0, #0
 8002c96:	bf1e      	ittt	ne
 8002c98:	980c      	ldrne	r0, [sp, #48]	; 0x30
 8002c9a:	f8d0 c014 	ldrne.w	ip, [r0, #20]
 8002c9e:	f1bc 0f00 	cmpne.w	ip, #0
 8002ca2:	d00c      	beq.n	8002cbe <_WriteToActiveOpaque_HT+0x210>
 8002ca4:	9809      	ldr	r0, [sp, #36]	; 0x24
 8002ca6:	b150      	cbz	r0, 8002cbe <_WriteToActiveOpaque_HT+0x210>
 8002ca8:	f000 f832 	bl	8002d10 <.text_13>
 8002cac:	2304      	movs	r3, #4
 8002cae:	9808      	ldr	r0, [sp, #32]
 8002cb0:	f8d7 c010 	ldr.w	ip, [r7, #16]
 8002cb4:	462a      	mov	r2, r5
 8002cb6:	4631      	mov	r1, r6
 8002cb8:	47e0      	blx	ip
 8002cba:	9c00      	ldr	r4, [sp, #0]
 8002cbc:	e007      	b.n	8002cce <_WriteToActiveOpaque_HT+0x220>
 8002cbe:	f834 0b02 	ldrh.w	r0, [r4], #2
 8002cc2:	47d8      	blx	fp
 8002cc4:	47c0      	blx	r8
 8002cc6:	f846 0b04 	str.w	r0, [r6], #4
 8002cca:	1e6d      	subs	r5, r5, #1
 8002ccc:	d1f7      	bne.n	8002cbe <_WriteToActiveOpaque_HT+0x210>
 8002cce:	f000 f838 	bl	8002d42 <.text_18>
 8002cd2:	f109 0901 	add.w	r9, r9, #1
 8002cd6:	f1ba 0a01 	subs.w	sl, sl, #1
 8002cda:	d199      	bne.n	8002c10 <_WriteToActiveOpaque_HT+0x162>
 8002cdc:	9809      	ldr	r0, [sp, #36]	; 0x24
 8002cde:	b128      	cbz	r0, 8002cec <_WriteToActiveOpaque_HT+0x23e>
 8002ce0:	a808      	add	r0, sp, #32
 8002ce2:	f7fd fd3d 	bl	8000760 <GUI_ALLOC_UnlockH>
 8002ce6:	9809      	ldr	r0, [sp, #36]	; 0x24
 8002ce8:	f7fd fdb8 	bl	800085c <GUI_ALLOC_Free>
 8002cec:	a807      	add	r0, sp, #28
 8002cee:	f7fd fd37 	bl	8000760 <GUI_ALLOC_UnlockH>
 8002cf2:	980b      	ldr	r0, [sp, #44]	; 0x2c
 8002cf4:	f7fd fdb2 	bl	800085c <GUI_ALLOC_Free>
 8002cf8:	9806      	ldr	r0, [sp, #24]
 8002cfa:	b108      	cbz	r0, 8002d00 <_WriteToActiveOpaque_HT+0x252>
 8002cfc:	f000 f81a 	bl	8002d34 <.text_16+0x6>
 8002d00:	b00f      	add	sp, #60	; 0x3c
 8002d02:	e8bd 8ff0 	ldmia.w	sp!, {r4, r5, r6, r7, r8, r9, sl, fp, pc}
	...

08002d08 <.text_11>:
 8002d08:	2000000c 	.word	0x2000000c

08002d0c <.text_12>:
 8002d0c:	200007fc 	.word	0x200007fc

08002d10 <.text_13>:
 8002d10:	9908      	ldr	r1, [sp, #32]
 8002d12:	2302      	movs	r3, #2
 8002d14:	462a      	mov	r2, r5
 8002d16:	4620      	mov	r0, r4

08002d18 <__iar_annotation$$tailcall>:
 8002d18:	4760      	bx	ip

08002d1a <.text_14>:
 8002d1a:	f8d7 c010 	ldr.w	ip, [r7, #16]
 8002d1e:	9c07      	ldr	r4, [sp, #28]
 8002d20:	f1bc 0f00 	cmp.w	ip, #0
 8002d24:	4770      	bx	lr

08002d26 <.text_15>:
 8002d26:	9007      	str	r0, [sp, #28]
 8002d28:	4620      	mov	r0, r4
 8002d2a:	f7fd bd0e 	b.w	800074a <GUI_ALLOC_LockH>

08002d2e <.text_16>:
 8002d2e:	9806      	ldr	r0, [sp, #24]
 8002d30:	f9b0 5008 	ldrsh.w	r5, [r0, #8]
 8002d34:	a806      	add	r0, sp, #24
 8002d36:	f7fd bd13 	b.w	8000760 <GUI_ALLOC_UnlockH>

08002d3a <.text_17>:
 8002d3a:	2001      	movs	r0, #1
 8002d3c:	9001      	str	r0, [sp, #4]
 8002d3e:	9000      	str	r0, [sp, #0]
 8002d40:	4770      	bx	lr

08002d42 <.text_18>:
 8002d42:	2000      	movs	r0, #0
 8002d44:	9005      	str	r0, [sp, #20]
 8002d46:	2301      	movs	r3, #1
